:100000000C9460000C947F000C947F000C947F0093
:100010000C947F000C947F000C947F000C947F0064
:100020000C947F000C947F000C947F000C947F0054
:100030000C947F000C947F000C947F000C947F0044
:100040000C947F000C947F000C947F000C947F0034
:100050000C947F000C947F000C947F000C947F0024
:100060000C947F000C947F000C947F000C947F0014
:100070000C947F000C947F000C947F000C947F0004
:100080000C947F000C947F000C947F00C800D30078
:100090000301330163019301C301EB001B014B0119
:1000A0007B01AB01DB014D020902150221022C028A
:1000B000370242020F021B02270231023D024702B1
:1000C00011241FBECFEFD0E4DEBFCDBF11E0A0E012
:1000D000B1E0E6E0F5E000E00BBF02C007900D9252
:1000E000AE30B107D9F721E0AEE0B1E001C01D921A
:1000F000A031B207E1F70E9452020C9481020C94E5
:100100000000CF93DF9300D01F92CDB7DEB7898375
:100110007B836A8389818A3031F48A819B81BC0127
:100120008DE00E94810080EC90E0FC018081882FAE
:1001300090E080729927892BB1F386EC90E02981B9
:10014000FC01208380E090E00F900F900F90DF91F2
:10015000CF910895CF93DF93CDB7DEB785E290E0DE
:10016000FC01108280910E0190910F01CC01A0E062
:10017000B0E040E050E02CE030E0841B950B281705
:10018000390708F430C18A5B9F4FFC010C94780258
:1001900085E290E0FC01108281E090E090930F01F5
:1001A00080930E0120C180E290E0FC018081882FC5
:1001B00090E081709927892B39F487E090E0909343
:1001C0000F0180930E010FC181E090E090930F0129
:1001D00080930E0108C180E290E0FC018081882FAD
:1001E00090E081709927892B39F487E090E0909313
:1001F0000F0180930E01F7C082E090E090930F0111
:1002000080930E01F0C080E290E0FC018081882F95
:1002100090E081709927892B39F488E090E09093E1
:100220000F0180930E01DFC082E090E090930F01F8
:1002300080930E01D8C080E290E0FC018081882F7D
:1002400090E081709927892B39F488E090E09093B1
:100250000F0180930E01C7C083E090E090930F01DF
:1002600080930E01C0C080E290E0FC018081882F65
:1002700090E081709927892B39F489E090E0909380
:100280000F0180930E01AFC083E090E090930F01C7
:1002900080930E01A8C080E290E0FC018081882F4D
:1002A00090E081709927892B39F489E090E0909350
:1002B0000F0180930E0197C084E090E090930F01AE
:1002C00080930E0190C080E290E0FC018081882F35
:1002D00090E081709927892B39F48AE090E090931F
:1002E0000F0180930E017FC084E090E090930F0196
:1002F00080930E0178C080E290E0FC018081882F1D
:1003000090E081709927892B39F48AE090E09093EE
:100310000F0180930E0167C085E090E090930F017C
:1003200080930E0160C080E290E0FC018081882F04
:1003300090E081709927892B39F48BE090E09093BD
:100340000F0180930E014FC085E090E090930F0164
:1003500080930E0148C080E290E0FC018081882FEC
:1003600090E081709927892B39F48BE090E090938D
:100370000F0180930E0137C086E090E090930F014B
:1003800080930E0130C080E290E0FC018081882FD4
:1003900090E081709927892B39F48CE090E090935C
:1003A0000F0180930E011FC086E090E090930F0133
:1003B00080930E0118C080E290E0FC018081882FBC
:1003C00090E081709927892B39F48CE090E090932C
:1003D0000F0180930E0106C081E090E090930F0121
:1003E00080930E01000080910E0190910F01CC01CD
:1003F000A0E0B0E040E050E02CE030E0841B950B42
:100400002817390708F44AC08D5A9F4FFC010C94F5
:10041000780285E290E025E1FC0120833FC085E27F
:1004200090E02AE2FC01208339C085E290E02AE2D4
:10043000FC01208333C085E290E02FEFFC01208394
:100440002DC085E290E02FEFFC01208327C085E2DC
:1004500090E0FC01108222C085E290E0FC01108255
:100460001DC085E290E02FEFFC01208317C085E2DC
:1004700090E02FEFFC01208311C085E290E0FC01A9
:1004800010820CC085E290E0FC01108207C085E27A
:1004900090E025E1FC01208301C000000000DF9115
:1004A000CF910895CF93DF93CDB7DEB781E290E08F
:1004B000FC01108282E290E02FEFFC01208384E2B5
:1004C00090E02FEFFC01208385E290E0FC01108298
:1004D0008AE290E02FEFFC0120838BE290E0FC01A8
:1004E000108210920F0110920E010E94AA00FDCFFF
:1004F000EE0FFF1F0024001C0BBE0790F691E02DAD
:060500000994F894FFCFFE
:0E050600000000020000000081000000000064
:00000001FF
