:100000000C9460000C947F000C947F000C947F0093
:100010000C947F000C947F000C947F000C947F0064
:100020000C947F000C947F000C947F000C947F0054
:100030000C947F000C947F000C947F000C947F0044
:100040000C947F000C947F000C947F000C947F0034
:100050000C947F000C947F000C947F000C947F0024
:100060000C947F000C947F000C947F000C947F0014
:100070000C947F000C947F000C947F000C947F0004
:100080000C947F000C947F000C947F00C400CB0084
:10009000E300FB0013012B0143015B0173018B01A2
:1000A000A301BB01D3014502010207020D021302A5
:1000B00019021F02240229022F0235023A023F02CE
:1000C00011241FBECFEFD0E4DEBFCDBF11E0A0E012
:1000D000B1E0ECEEF4E000E00BBF02C007900D923F
:1000E000AE30B107D9F721E0AEE0B1E001C01D921A
:1000F000A031B207E1F70E944A020C9474020C94FA
:100100000000CF93DF9300D01F92CDB7DEB7898375
:100110007B836A8389818A3031F48A819B81BC0127
:100120008DE00E94810080EC90E0FC018081882FAE
:1001300090E080729927892BB1F386EC90E02981B9
:10014000FC01208380E090E00F900F900F90DF91F2
:10015000CF910895CF93DF93CDB7DEB780910E0195
:1001600090910F01CC01A0E0B0E040E050E02CE025
:1001700030E0841B950B2817390708F42CC18A5BE3
:100180009F4FFC010C946B0281E090E090930F0173
:1001900080930E0120C180E290E0FC018081882FD5
:1001A00090E081709927892B39F482E090E0909358
:1001B0000F0180930E010FC181E090E090930F0139
:1001C00080930E0108C180E290E0FC018081882FBD
:1001D00090E081709927892B39F482E090E0909328
:1001E0000F0180930E01F7C083E090E090930F0120
:1001F00080930E01F0C080E290E0FC018081882FA6
:1002000090E081709927892B39F484E090E09093F5
:100210000F0180930E01DFC083E090E090930F0107
:1002200080930E01D8C080E290E0FC018081882F8D
:1002300090E081709927892B39F484E090E09093C5
:100240000F0180930E01C7C085E090E090930F01ED
:1002500080930E01C0C080E290E0FC018081882F75
:1002600090E081709927892B39F486E090E0909393
:100270000F0180930E01AFC085E090E090930F01D5
:1002800080930E01A8C080E290E0FC018081882F5D
:1002900090E081709927892B39F486E090E0909363
:1002A0000F0180930E0197C087E090E090930F01BB
:1002B00080930E0190C080E290E0FC018081882F45
:1002C00090E081709927892B39F488E090E0909331
:1002D0000F0180930E017FC087E090E090930F01A3
:1002E00080930E0178C080E290E0FC018081882F2D
:1002F00090E081709927892B39F488E090E0909301
:100300000F0180930E0167C089E090E090930F0188
:1003100080930E0160C080E290E0FC018081882F14
:1003200090E081709927892B39F48AE090E09093CE
:100330000F0180930E014FC089E090E090930F0170
:1003400080930E0148C080E290E0FC018081882FFC
:1003500090E081709927892B39F48AE090E090939E
:100360000F0180930E0137C08BE090E090930F0156
:1003700080930E0130C080E290E0FC018081882FE4
:1003800090E081709927892B39F48CE090E090936C
:100390000F0180930E011FC08BE090E090930F013E
:1003A00080930E0118C080E290E0FC018081882FCC
:1003B00090E081709927892B39F48CE090E090933C
:1003C0000F0180930E0106C081E090E090930F0131
:1003D00080930E01000080910E0190910F01CC01DD
:1003E000A0E0B0E040E050E02CE030E0841B950B52
:1003F0002817390708F44AC08D5A9F4FFC010C9406
:100400006B0285E290E025E1FC0120833FC085E29C
:1004100090E02AE2FC01208339C085E290E02AE2E4
:10042000FC01208333C085E290E02FEFFC012083A4
:100430002DC085E290E02FEFFC01208327C085E2EC
:1004400090E0FC01108222C085E290E0FC01108265
:100450001DC085E290E02FEFFC01208317C085E2EC
:1004600090E02FEFFC01208311C085E290E0FC01B9
:1004700010820CC085E290E0FC01108207C085E28A
:1004800090E025E1FC01208301C000000000DF9125
:10049000CF910895CF93DF93CDB7DEB781E290E09F
:1004A000FC01108282E290E02FEFFC01208384E2C5
:1004B00090E02FEFFC01208385E290E0FC011082A8
:1004C00085E290E0FC01108210920F0110920E0163
:1004D0000E94AA00FDCFEE0FFF1F0024001C0BBEE0
:0C04E0000790F691E02D0994F894FFCFEE
:0E04EC0000000002000000008100000000007F
:00000001FF
