:100000000C9456000C9475000C9475000C947500BB
:100010000C9475000C9475000C9475000C9475008C
:100020000C9475000C9475000C9475000C9475007C
:100030000C9475000C9475000C9475000C9475006C
:100040000C9475000C9475000C9475000C9475005C
:100050000C9475000C9475000C9475000C9475004C
:100060000C9475000C9475000C9475000C9475003C
:100070000C9475000C9475000C9475000C9475002C
:100080000C9475000C9475000C947500BA00C600B1
:1000900006010D013A0141016E017501D501D5013D
:1000A000AA01D501BA01D501CA01D50111241FBE8B
:1000B000CFEFD0E4DEBFCDBF11E0A0E0B1E0EEE1D4
:1000C000F4E000E00BBF02C007900D92AE30B10724
:1000D000D9F721E0AEE0B1E001C01D92A031B20736
:1000E000E1F70E94DE010C940D020C940000CF9306
:1000F000DF9300D01F92CDB7DEB789837B836A83FD
:1001000089818A3031F48A819B81BC018DE00E9413
:10011000770080EC90E0FC018081882F90E0807275
:100120009927892BB1F386EC90E02981FC0120838B
:1001300080E090E00F900F900F90DF91CF910895A5
:10014000CF93DF93CDB7DEB780910E0190910F0171
:10015000CC01A0E0B0E040E050E027E030E0841BBC
:10016000950B2817390708F4DAC08A5B9F4FFC010A
:100170000C94040285E290E027E0FC01208381E0FA
:1001800090E090930F0180930E01CFC080E290E049
:10019000FC018081882F90E080959095837099274D
:1001A000019739F482E090E090930F0180930E0163
:1001B000BCC080E290E0FC018081882F90E08095B7
:1001C000909583709927029739F484E090E090939A
:1001D0000F0180930E01A9C080E290E0FC018081B4
:1001E000882F90E08095909583709927039739F434
:1001F00086E090E090930F0180930E0196C081E01D
:1002000090E090930F0180930E018FC083E090E007
:1002100090930F0180930E0188C080E290E0FC0172
:100220008081882F90E08095909583709927892B05
:1002300039F481E090E090930F0180930E0175C036
:1002400080E290E0FC018081882F90E0809590957D
:1002500083709927039739F486E090E090930F011B
:1002600080930E0162C083E090E090930F01809331
:100270000E015BC085E090E090930F0180930E012A
:1002800054C080E290E0FC018081882F90E080954E
:10029000909583709927892B39F481E090E09093B1
:1002A0000F0180930E0141C080E290E0FC0180814B
:1002B000882F90E08095909583709927039739F463
:1002C00086E090E090930F0180930E012EC085E0B0
:1002D00090E090930F0180930E0127C087E090E09B
:1002E00090930F0180930E0120C080E290E0FC010A
:1002F0008081882F90E08095909583709927892B35
:1003000039F481E090E090930F0180930E010DC0CD
:1003100087E090E090930F0180930E0106C08BE27E
:1003200090E02FEFFC012083000080910E0190915E
:100330000F01CC01A0E0B0E040E050E027E030E069
:10034000841B950B2817390750F1825B9F4FFC01E6
:100350000C94040283E290E0FC018081893038F53E
:1003600085E290E023E230E0F90120812F5FFC017B
:1003700020831DC083E290E0FC0180818823C9F0C6
:1003800085E290E023E230E0F90120812150FC0178
:1003900020830FC085E290E0FC0110820BC08BE24D
:1003A00090E02FEFFC01208305C0000003C0000097
:1003B00001C000000000DF91CF910895CF93DF933B
:1003C000CDB7DEB781E290E0FC01108282E290E0DE
:1003D0002FEFFC01208384E290E02FEFFC012083CB
:1003E00085E290E0FC0110828AE290E02FEFFC01B0
:1003F00020838BE290E0FC01108210920F0110929A
:100400000E010E94A000FDCFEE0FFF1F0024001C74
:0E0410000BBE0790F691E02D0994F894FFCFF3
:0E041E00000000020000000077000000000057
:00000001FF
