:100000000C9446000C9465000C9465000C946500FB
:100010000C9465000C9465000C9465000C946500CC
:100020000C9465000C9465000C9465000C946500BC
:100030000C9465000C94B5000C9465000C9465005C
:100040000C9465000C9465000C9465000C9465009C
:100050000C9465000C9465000C9465000C9465008C
:100060000C9465000C9465000C9465000C9465007C
:100070000C9465000C9465000C9465000C9465006C
:100080000C9465000C9465000C94650011241FBE4F
:10009000CFEFD0E4DEBFCDBF11E0A0E0B1E0E6E9F4
:1000A000F5E000E00BBF02C007900D92A231B1074E
:1000B000D9F721E0A2E1B1E001C01D92AD31B20754
:1000C000E1F70E9498020C94C9020C940000CF93AF
:1000D000DF93CDB7DEB781E890E02BE0FC01208311
:1000E00088E890E02DE730E0FC01318320838FE643
:1000F00090E022E0FC01208384E890E0FC01118282
:1001000010828091000190910101A0910201B091B3
:1001100003018093130190931401A0931501B093F0
:1001200016018FE590E02FE530E0F901208120688D
:10013000FC0120830000DF91CF910895CF93DF93DE
:10014000CDB7DEB781E890E0FC0110820000DF91BE
:10015000CF910895CF93DF93CDB7DEB781E0809341
:1001600012010000DF91CF9108951F920F9200902D
:100170005F000F92112400905B000F922F933F932A
:100180004F935F936F937F938F939F93AF93BF939F
:10019000EF93FF93CF93DF93CDB7DEB78091130139
:1001A00090911401A0911501B09116010197A10938
:1001B000B1098093130190931401A0931501B0939A
:1001C00016018091130190911401A0911501B09135
:1001D0001601892B8A2B8B2B91F40E94AA00809107
:1001E000000190910101A0910201B091030180935F
:1001F000130190931401A0931501B0931601000010
:10020000DF91CF91FF91EF91BF91AF919F918F912E
:100210007F916F915F914F913F912F910F9000923D
:100220005B000F9000925F000F901F901895CF9386
:10023000DF9300D000D0CDB7DEB769837A838B839C
:100240009C8389819A81AB81BC81809300019093CA
:100250000101A0930201B0930301809100019091EC
:100260000101A0910201B0910301809313019093C9
:100270001401A0931501B093160100000F900F9088
:100280000F900F90DF91CF910895CF93DF9300D01F
:100290001F92CDB7DEB789837B836A8389818A30D9
:1002A00031F48A819B81BC018DE00E94450180EC84
:1002B00090E0FC018081882F90E080729927892B43
:1002C000B1F386EC90E02981FC01208380E090E08E
:1002D0000F900F900F90DF91CF910895CF93DF9300
:1002E000CDB7DEB780911B0190911C018130910543
:1002F000A1F08130910530F08230910531F1039702
:10030000E1F153C085E290E0FC01108281E090E0D1
:1003100090931C0180931B0148C080E290E0FC0197
:100320008081882F90E081709927892B39F482E0B1
:1003300090E090931C0180931B0137C081E090E016
:1003400090931C0180931B0130C080E290E0FC017F
:100350008081882F90E081709927892B39F482E081
:1003600090E090931C0180931B011FC083E090E0FC
:1003700090931C0180931B0118C080E290E0FC0167
:100380008081882F90E081709927892B39F481E052
:1003900090E090931C0180931B0106C083E090E0E5
:1003A00090931C0180931B01000080911B01909190
:1003B0001C018130910561F08130910508F4AFC0D6
:1003C0008230910509F445C0039709F477C0ACC0A9
:1003D0008091190190911A01049720F010921A014E
:1003E000109219018091190190911A010196909330
:1003F0001A01809319018091190190911A010197B6
:1004000029F485E290E021E0FC012083809119012C
:1004100090911A01029729F485E290E022E0FC0114
:1004200020838091190190911A01039729F485E2A4
:1004300090E024E0FC0120838091190190911A0141
:10044000049709F06EC085E290E022E0FC01208371
:1004500068C08091190190911A01909318018093BE
:1004600017018091190190911A01019729F485E2F1
:1004700090E021E0FC0120838091190190911A0104
:10048000029729F485E290E022E0FC01208380912C
:10049000190190911A01039729F485E290E024E074
:1004A000FC0120838091190190911A010497D9F5DC
:1004B00085E290E022E0FC01208335C080911701A5
:1004C00090911801019729F485E290E021E0FC0168
:1004D00020838091170190911801029729F485E2F9
:1004E00090E022E0FC012083809117019091180197
:1004F000039729F485E290E024E0FC0120838091B9
:10050000170190911801049729F485E290E022E008
:10051000FC01208310921A011092190105C00000FD
:1005200003C0000001C000000000DF91CF910895DA
:10053000CF93DF93CDB7DEB784E290E02FEFFC01DD
:10054000208385E290E0FC0110828AE290E02FEFA8
:10055000FC0120838BE290E0FC01108281E290E0BC
:10056000FC01108282E290E02FEFFC0120836CE21C
:1005700071E080E090E00E9417010E9467000E94F5
:100580006E010000809112018823E1F310921201A4
:06059000F6CFF894FFCF46
:10059600010000000000000200000000450100000C
:0205A600000053
:00000001FF
