:100000000C9456000C9475000C9475000C947500BB
:100010000C9475000C9475000C9475000C9475008C
:100020000C9475000C9475000C9475000C9475007C
:100030000C9475000C94C5000C9475000C9475001C
:100040000C9475000C9475000C9475000C9475005C
:100050000C9475000C9475000C9475000C9475004C
:100060000C9475000C9475000C9475000C9475003C
:100070000C9475000C9475000C9475000C9475002C
:100080000C9475000C9475000C9475009801A401F3
:10009000E401ED0136023F0288028F02EF02EF0217
:1000A000C402EF02D402EF02E402EF0211241FBEE9
:1000B000CFEFD0E4DEBFCDBF11E0A0E0B1E0E0E7DC
:1000C000F6E000E00BBF02C007900D92A231B1072D
:1000D000D9F721E0A2E1B1E001C01D92AA31B20737
:1000E000E1F70E94F8020C9436030C940000CF93C1
:1000F000DF93CDB7DEB781E890E02BE0FC012083F1
:1001000088E890E02DE730E0FC01318320838FE622
:1001100090E022E0FC01208384E890E0FC01118261
:1001200010828091000190910101A0910201B09193
:1001300003018093130190931401A0931501B093D0
:1001400016018FE590E02FE530E0F901208120686D
:10015000FC0120830000DF91CF910895CF93DF93BE
:10016000CDB7DEB781E890E0FC0110820000DF919E
:10017000CF910895CF93DF93CDB7DEB781E0809321
:1001800012010000DF91CF9108951F920F9200900D
:100190005F000F92112400905B000F922F933F930A
:1001A0004F935F936F937F938F939F93AF93BF937F
:1001B000EF93FF93CF93DF93CDB7DEB78091130119
:1001C00090911401A0911501B09116010197A10918
:1001D000B1098093130190931401A0931501B0937A
:1001E00016018091130190911401A0911501B09115
:1001F0001601892B8A2B8B2B91F40E94BA008091D7
:10020000000190910101A0910201B091030180933E
:10021000130190931401A0931501B09316010000EF
:10022000DF91CF91FF91EF91BF91AF919F918F910E
:100230007F916F915F914F913F912F910F9000921D
:100240005B000F9000925F000F901F901895CF9366
:10025000DF9300D000D0CDB7DEB769837A838B837C
:100260009C8389819A81AB81BC81809300019093AA
:100270000101A0930201B0930301809100019091CC
:100280000101A0910201B0910301809313019093A9
:100290001401A0931501B093160100000F900F9068
:1002A0000F900F90DF91CF910895CF93DF9300D0FF
:1002B0001F92CDB7DEB789837B836A8389818A30B9
:1002C00031F48A819B81BC018DE00E94550180EC54
:1002D00090E0FC018081882F90E080729927892B23
:1002E000B1F386EC90E02981FC01208380E090E06E
:1002F0000F900F900F90DF91CF910895CF93DF93E0
:10030000CDB7DEB78091180190911901CC01A0E022
:10031000B0E040E050E027E030E0841B950B281768
:10032000390708F416C18A5B9F4FFC010C942D031A
:1003300085E290E027E0FC01208381E090E090934B
:100340001901809318010BC180E290E0FC018081CB
:10035000882F90E08095909583709927019739F4C4
:1003600082E090E09093190180931801F8C080E238
:1003700090E0FC018081882F90E0809590958370BB
:100380009927029739F484E090E0909319018093C3
:100390001801E5C080E290E0FC018081882F90E0A8
:1003A0008095909583709927039739F486E090E0C3
:1003B0009093190180931801D2C081E090E090934E
:1003C000190180931801CBC01092170183E090E0CF
:1003D0009093190180931801C2C0809117018F5F1B
:1003E0008093170180E290E0FC018081882F90E0EB
:1003F0008095909583709927892B39F481E090E05E
:100400009093190180931801AAC080E290E0FC014A
:100410008081882F90E0809590958370992701972F
:1004200059F4809117018B3038F082E090E090937E
:1004300019018093180193C080E290E0FC01808153
:10044000882F90E08095909583709927039739F4D1
:1004500086E090E0909319018093180180C083E0BA
:1004600090E0909319018093180179C010921701C0
:1004700085E090E0909319018093180170C08091FD
:1004800017018F5F8093170180E290E0FC0180816B
:10049000882F90E08095909583709927892B39F467
:1004A00081E090E0909319018093180158C080E298
:1004B00090E0FC018081882F90E08095909583707A
:1004C0009927029759F4809117018B3038F084E016
:1004D00090E0909319018093180141C080E290E070
:1004E000FC018081882F90E08095909583709927FA
:1004F000039739F486E090E09093190180931801F6
:100500002EC085E090E0909319018093180127C0D8
:1005100087E090E0909319018093180120C080E259
:1005200090E0FC018081882F90E080959095837009
:100530009927892B39F481E090E0909319018093F9
:1005400018010DC087E090E0909319018093180185
:1005500006C08BE290E02FEFFC0120830000809129
:10056000180190911901CC01A0E0B0E040E050E00A
:1005700027E030E0841B950B2817390750F1825B88
:100580009F4FFC010C942D0383E290E0FC018081DD
:10059000893038F585E290E023E230E0F9012081EE
:1005A0002F5FFC0120831DC083E290E0FC0180816D
:1005B0008823C9F085E290E023E230E0F901208150
:1005C0002150FC0120830FC085E290E0FC011082E5
:1005D0000BC08BE290E02FEFFC01208305C00000F0
:1005E00003C0000001C000000000DF91CF9108951A
:1005F000CF93DF93CDB7DEB781E290E0FC011082AC
:1006000082E290E02FEFFC01208384E290E02FEF64
:10061000FC01208385E290E0FC0110828AE290E0F8
:100620002FEFFC0120838BE290E0FC0110821092FE
:1006300019011092180164E670E080E090E00E94D9
:1006400027010E9477000E947E0100008091120124
:100650008823E1F310921201F6CFEE0FFF1F002462
:10066000001C0BBE0790F691E02D0994F894FFCF83
:100670000100000000000002000000005501000021
:02068000000078
:00000001FF
