:100000000C9446000C9465000C9465000C946500FB
:100010000C9465000C9465000C9465000C946500CC
:100020000C9465000C9465000C9465000C946500BC
:100030000C9465000C94B5000C9465000C9465005C
:100040000C9465000C9465000C9465000C9465009C
:100050000C9465000C9465000C9465000C9465008C
:100060000C9465000C9465000C9465000C9465007C
:100070000C9465000C9465000C9465000C9465006C
:100080000C9465000C9465000C94650011241FBE4F
:10009000CFEFD0E4DEBFCDBF11E0A0E0B1E0EEEDE8
:1000A000F9E000E00BBF02C007900D92AE3AB10735
:1000B000D9F721E0AEEAB1E001C01D92AF3EB20730
:1000C000E1F70E942B030C94ED040C940000CF93F5
:1000D000DF93CDB7DEB781E890E02BE0FC01208311
:1000E00088E890E02DE730E0FC01318320838FE643
:1000F00090E022E0FC01208384E890E0FC01118282
:1001000010828091000190910101A0910201B091B3
:1001100003018093AF019093B001A093B101B0931C
:10012000B2018FE590E02FE530E0F90120812068F1
:10013000FC0120830000DF91CF910895CF93DF93DE
:10014000CDB7DEB781E890E0FC0110820000DF91BE
:10015000CF910895CF93DF93CDB7DEB781E0809341
:10016000AE010000DF91CF9108951F920F92009091
:100170005F000F92112400905B000F922F933F932A
:100180004F935F936F937F938F939F93AF93BF939F
:10019000EF93FF93CF93DF93CDB7DEB78091AF019D
:1001A0009091B001A091B101B091B2010197A10964
:1001B000B1098093AF019093B001A093B101B093C6
:1001C000B2018091AF019091B001A091B101B091C5
:1001D000B201892B8A2B8B2B91F40E94AA0080916B
:1001E000000190910101A0910201B091030180935F
:1001F000AF019093B001A093B101B093B2010000A0
:10020000DF91CF91FF91EF91BF91AF919F918F912E
:100210007F916F915F914F913F912F910F9000923D
:100220005B000F9000925F000F901F901895CF9386
:10023000DF9300D000D0CDB7DEB769837A838B839C
:100240009C8389819A81AB81BC81809300019093CA
:100250000101A0930201B0930301809100019091EC
:100260000101A0910201B09103018093AF0190932D
:10027000B001A093B101B093B20100000F900F90B4
:100280000F900F90DF91CF910895CF93DF9300D01F
:100290001F92CDB7DEB789837B836A8389818A30D9
:1002A00031F48A819B81BC018DE00E94450180EC84
:1002B00090E0FC018081882F90E080729927892B43
:1002C000B1F386EC90E02981FC01208380E090E08E
:1002D0000F900F900F90DF91CF9108950F931F9380
:1002E000CF93DF9300D000D0CDB7DEB769837A8398
:1002F0008B839C838091B5019091B601A091B70149
:10030000B091B8019C01AD0169817A818B819C819A
:100310000E945903882309F477C020E030E0A90146
:1003200069817A818B819C810E945903882351F4D1
:1003300081E990E021E930E0F90120812870FC0199
:10034000208309C081E990E021E930E0F9012081B2
:100350002360FC01208328E539E344E75FE36981FA
:100360007A818B819C810E945903882344F488E917
:1003700090E02FEF3FEFFC013183208334C020E079
:1003800034E244EF56E469817A818B819C810E943A
:100390007B04181634F488E990E0FC011182108285
:1003A00022C008E910E020E030E040E053E4698139
:1003B0007A818B819C810E948004DC01CB019C01AD
:1003C000AD0160E074E284EF9AE40E945E03DC0118
:1003D000CB01BC01CD010E94D003DC01CB01019710
:1003E000F8019183808384E990E0FC0111821082FE
:1003F00089819A81AB81BC818093B5019093B601CC
:10040000A093B701B093B80100000F900F900F9028
:100410000F90DF91CF911F910F910895CF93DF93AC
:10042000CDB7DEB780E990E020E4FC01208381E9CC
:1004300090E02BE0FC01208360E070E0CB010E94A3
:100440006E010000DF91CF910895CF93DF93CDB778
:10045000DEB780E990E0FC01108281E990E0FC01C8
:1004600010820000DF91CF910895CF93DF931F9208
:10047000CDB7DEB78091B9019091BA018130910575
:10048000B9F08130910540F08230910509F444C003
:10049000039709F453C069C081E090E09093BA01DA
:1004A0008093B90160E070E0CB010E946E015DC0F5
:1004B000198217C08981882F90E02981222F30E08E
:1004C000220F331F26583E4FF90120813181880FBA
:1004D000991F85549E4FFC013183208389818F5F52
:1004E000898389818A3130F380E290E0FC01808148
:1004F000882F90E081709927892B39F482E090E071
:100500009093BA018093B90130C081E090E090935C
:10051000BA018093B90129C08091B3018A3138F0C2
:1005200083E090E09093BA018093B9011EC082E00D
:1005300090E09093BA018093B90117C080E290E0F7
:10054000FC018081882F90E081709927892B39F0F8
:1005500081E090E09093BA018093B90106C083E0F6
:1005600090E09093BA018093B9018091B901909184
:10057000BA018130910559F08130910508F463C0CA
:100580008230910549F0039709F457C05FC010927B
:10059000B3011092B4015AC08091B40181708823D4
:1005A00009F040C08091B301882F90E09C01220F98
:1005B000331F25543E4FF9012081318121503109EB
:1005C000880F991F85549E4FFC01318320838091B1
:1005D000B301882F90E0880F991F880F991F8E5EB6
:1005E0009E4FFC0180819181A281B381BC01CD012C
:1005F0000E946E018091B301882F90E0880F991FAF
:1006000085549E4FFC0180819181892BF1F480916A
:10061000B4018F5F8093B4018091B3018F5F8093A9
:10062000B30113C060E070E0CB010E946E018091C5
:10063000B4018F5F8093B40108C060E070E0CB012B
:100640000E946E0103C0000001C0000000000F9076
:10065000DF91CF910895CF93DF93CDB7DEB781E2DD
:1006600090E0FC01108282E290E02FEFFC012083F9
:1006700084E290E02FEFFC01208385E290E0FC0112
:1006800010821092BA011092B9010E940E0262E328
:1006900070E080E090E00E9417010E9467000E94D5
:1006A000350200008091AE018823E1F31092AE0183
:1006B000F6CF0E94060408F481E008950E947203B8
:1006C0000C9441040E943A0458F00E94330440F014
:1006D00029F45F3F29F00C942A0451110C947504FD
:1006E0000C9430040E94520468F39923B1F355230B
:1006F00091F3951B550BBB27AA2762177307840735
:1007000038F09F5F5F4F220F331F441FAA1FA9F3CA
:1007100035D00E2E3AF0E0E832D091505040E695B8
:10072000001CCAF72BD0FE2F29D0660F771F881F19
:10073000BB1F261737074807AB07B0E809F0BB0B0C
:10074000802DBF01FF2793585F4F3AF09E3F510520
:1007500078F00C942A040C9475045F3FE4F3983EFF
:10076000D4F3869577956795B795F7959F5FC9F709
:10077000880F911D9695879597F90895E1E0660F8A
:10078000771F881FBB1F621773078407BA0720F003
:10079000621B730B840BBA0BEE1F88F7E09508956C
:1007A0000E94D7036894B1110C94750408950E94B7
:1007B0005A0488F09F5798F0B92F9927B751B0F095
:1007C000E1F0660F771F881F991F1AF0BA95C9F7D5
:1007D00014C0B13091F00E947404B1E008950C94FB
:1007E0007404672F782F8827B85F39F0B93FCCF3AE
:1007F000869577956795B395D9F73EF49095809552
:10080000709561957F4F8F4F9F4F0895990F000806
:10081000550FAA0BE0E8FEEF16161706E807F907D2
:10082000C0F012161306E407F50798F0621B730B6D
:10083000840B950B39F40A2661F0232B242B252BEE
:1008400021F408950A2609F4A140A6958FEF811D91
:10085000811D089597F99F6780E870E060E0089532
:100860009FEF80EC089500240A94161617061806C8
:100870000906089500240A941216130614060506A4
:100880000895092E0394000C11F4882352F0BB0F35
:1008900040F4BF2B11F460FF04C06F5F7F4F8F4F98
:1008A0009F4F089557FD9058440F551F59F05F3FD3
:1008B00071F04795880F97FB991F61F09F3F79F082
:1008C00087950895121613061406551FF2CF469504
:1008D000F1DF08C0161617061806991FF1CF869586
:1008E0007105610508940895E894BB27662777276A
:1008F000CB0197F908950E94060408F48FEF08953C
:100900000E9493040C9441040E94330438F00E9426
:100910003A0420F0952311F00C942A040C9430042E
:1009200011240C9475040E94520470F3959FC1F336
:10093000950F50E0551F629FF001729FBB27F00D8D
:10094000B11D639FAA27F00DB11DAA1F649F6627E2
:10095000B00DA11D661F829F2227B00DA11D621F31
:10096000739FB00DA11D621F839FA00D611D221FEB
:10097000749F3327A00D611D231F849F600D211DCF
:10098000822F762F6A2F11249F5750409AF0F1F052
:1009900088234AF0EE0FFF1FBB1F661F771F881FBB
:1009A00091505040A9F79E3F510580F00C942A04C5
:1009B0000C9475045F3FE4F3983ED4F386957795E5
:1009C0006795B795F795E7959F5FC1F7FE2B880F61
:0E09D000911D9695879597F90895F894FFCF9D
:1009DE0001000000000000020000000045010000C0
:1009EE000000A4D0A4437BD49243A4D082437BD4F2
:1009FE009243A4D0A443A4D0A443A4D0A4437BD4B4
:100A0E0092437BD492437BD49243A4D0A443B87E2A
:100A1E00C443B87EC443A4D0A4437BD49243A4D091
:100A2E0082437BD49243A4D0A443A4D0A443A4D0A5
:100A3E00A443A4D0A4437BD492437BD49243A4D0AA
:100A4E00A4437BD49243A4D0824306000600060042
:100A5E000600060006000C00060006000C0006004C
:100A6E0006000C0006000600060006000600060042
:0E0A7E0006000600060006000600060018002E
:00000001FF
