:100000000C9446000C9465000C9465000C946500FB
:100010000C9465000C9465000C9465000C946500CC
:100020000C9465000C9465000C9465000C946500BC
:100030000C9465000C9465000C9465000C946500AC
:100040000C9465000C9465000C9465000C9465009C
:100050000C9465000C9465000C9465000C9465008C
:100060000C9465000C9465000C9465000C9465007C
:100070000C9465000C9465000C9465000C9465006C
:100080000C9465000C9465000C94650011241FBE4F
:10009000CFEFD0E4DEBFCDBF11E0A0E0B1E0E4EBF4
:1000A000F3E000E00BBF02C007900D92A231B10750
:1000B000D9F721E0A2E1B1E001C01D92A731B2075A
:1000C000E1F70E94BB010C94D8010C940000CF937F
:1000D000DF9300D01F92CDB7DEB789837B836A831D
:1000E00089818A3031F48A819B81BC018DE00E9434
:1000F000670080EC90E0FC018081882F90E08072A6
:100100009927892BB1F386EC90E02981FC012083AB
:1001100080E090E00F900F900F90DF91CF910895C5
:10012000CF93DF93CDB7DEB7809113019091140187
:1001300081309105A9F08130910538F08230910528
:10014000B1F0039709F4DFC0F2C085E290E0FC0152
:10015000108281E090E09093140180931301E7C036
:1001600082E090E09093140180931301E0C080E25C
:1001700090E0FC018081882F90E081709927892B85
:10018000A9F480E290E0FC018081882F90E08270E9
:100190009927892B59F480E290E0FC018081882F17
:1001A00090E084709927892B09F4A5C080911201F1
:1001B0008F5F809312019091120180910E01981728
:1001C00008F043C080E290E0FC018081882F90E03D
:1001D00087709927019751F480911201882F90E040
:1001E00001978B5E9E4F28E5FC01208380E290E022
:1001F000FC018081882F90E087709927029751F445
:1002000080911201882F90E001978B5E9E4F29E527
:10021000FC01208380E290E0FC018081882F90E047
:1002200087709927049751F480911201882F90E0EC
:1002300001978B5E9E4F23E2FC01208382E090E0D9
:1002400090931401809313015DC080E290E0FC0163
:100250008081882F90E087709927019751F48091D1
:100260001201882F90E001978B5E9E4F28E5FC01DC
:10027000208380E290E0FC018081882F90E08770ED
:100280009927029751F480911201882F90E00197ED
:100290008B5E9E4F29E5FC01208380E290E0FC010B
:1002A0008081882F90E087709927049751F480917E
:1002B0001201882F90E001978B5E9E4F23E2FC0194
:1002C000208390910F0180911501981769F4909106
:1002D000100180911601981739F483E090E0909313
:1002E0001401809313010EC081E090E090931401FB
:1002F0008093130107C082E090E0909314018093F3
:10030000130115C014C080E290E0FC0180818823B5
:100310003CF481E090E0909314018093130106C0B7
:1003200083E090E09093140180931301000080918A
:100330001301909114018130910549F081309105AC
:1003400098F08230910591F0039741F010C010921F
:10035000120185E290E0FC01108209C085E290E084
:1003600021E0FC01208303C0000001C00000000068
:10037000DF91CF910895CF93DF93CDB7DEB781E2C0
:1003800090E0FC01108282E290E02FEFFC012083DC
:1003900084E290E02FEFFC01208385E290E0FC01F5
:1003A000108210921401109213010E949000FDCF50
:0403B000F894FFCFEF
:1003B40000000002000000006700000000000223AB
:0203C4005900DE
:00000001FF
