:100000000C9446000C9465000C9465000C946500FB
:100010000C9465000C9465000C9465000C946500CC
:100020000C9465000C9465000C9465000C946500BC
:100030000C9465000C94B0010C9465000C94650060
:100040000C9465000C9465000C9465000C9465009C
:100050000C9465000C9465000C9465000C9465008C
:100060000C9465000C9465000C9465000C9465007C
:100070000C9465000C9465000C9465000C9465006C
:100080000C9465000C9465000C94650011241FBE4F
:10009000CFEFD0E4DEBFCDBF11E0A0E0B1E0E8EBF0
:1000A000F8E000E00BBF02C007900D92AE31B1073F
:1000B000D9F721E0AEE1B1E001C01D92AB32B20749
:1000C000E1F70E941E040C945A040C940000CF9394
:1000D000DF93CDB7DEB781E00E948E000000DF9194
:1000E000CF910895CF93DF93CDB7DEB784E690E04C
:1000F0000E94320188E30E948E0086E00E948E00FA
:100100008FE00E948E0081E00E948E008AE090E0E5
:100110000E9432010000DF91CF910895CF93DF93C9
:100120001F92CDB7DEB789838BE290E02BE230E0FF
:10013000F90120812F7BFC01208388E290E0298156
:10014000FC0120838BE290E02BE230E0F90120817A
:100150002068FC01208300008BE290E02BE230E07D
:10016000F90120812F77FC01208382E090E00E943A
:10017000320100000F90DF91CF910895CF93DF936C
:100180001F92CDB7DEB789838BE290E02BE230E09F
:10019000F90120812064FC01208388E290E029811C
:1001A000FC0120838BE290E02BE230E0F90120811A
:1001B0002068FC01208300008BE290E02BE230E01D
:1001C000F90120812F77FC01208381E090E00E94DB
:1001D000320100000F90DF91CF910895CF93DF930C
:1001E00000D000D0CDB7DEB78A837C836B830E94BA
:1001F00067008A81898311C0898191E0980F998372
:100200000E941B018B819C819C012F5F3F4F3C838F
:100210002B83FC0180810E94BE008B819C81FC01AC
:100220008081882349F700000F900F900F900F9066
:10023000DF91CF910895CF93DF931F92CDB7DEB7B3
:1002400089838981813128F4898181580E948E00B7
:1002500004C0898181550E948E0000000F90DF91BB
:10026000CF910895CF93DF9300D000D000D0CDB7C9
:10027000DEB79E838D831A82198213C01C821B8273
:1002800006C000008B819C8101969C838B838B81AF
:100290009C8187309340ACF389819A8101969A833F
:1002A000898329813A818D819E812817390734F30A
:1002B000000026960FB6F894DEBF0FBECDBFDF91CB
:1002C000CF910895CF93DF93CDB7DEB781E890E06B
:1002D0002BE0FC01208388E890E02DE730E0FC0172
:1002E000318320838FE690E022E0FC01208384E8C4
:1002F00090E0FC0111821082809100019091010137
:10030000A0910201B091030180931F0190932001FD
:10031000A0932101B09322018FE590E02FE530E01A
:10032000F90120812068FC0120830000DF91CF913A
:100330000895CF93DF93CDB7DEB781E890E0FC015D
:1003400010820000DF91CF910895CF93DF93CDB756
:10035000DEB781E080931E010000DF91CF91089508
:100360001F920F9200905F000F92112400905B008B
:100370000F922F933F934F935F936F937F938F933E
:100380009F93AF93BF93EF93FF93CF93DF93CDB73B
:10039000DEB780911F0190912001A0912101B091C1
:1003A00022010197A109B10980931F0190932001B7
:1003B000A0932101B093220180911F01909120010F
:1003C000A0912101B0912201892B8A2B8B2B91F4D2
:1003D0000E94A5018091000190910101A09102016C
:1003E000B091030180931F0190932001A0932101FC
:1003F000B09322010000DF91CF91FF91EF91BF9167
:10040000AF919F918F917F916F915F914F913F91AC
:100410002F910F9000925B000F9000925F000F9061
:100420001F901895CF93DF9300D000D0CDB7DEB7E3
:1004300069837A838B839C8389819A81AB81BC8118
:100440008093000190930101A0930201B0930301F6
:100450008091000190910101A0910201B0910301EE
:1004600080931F0190932001A0932101B09322015A
:1004700000000F900F900F900F90DF91CF91089593
:10048000CF93DF9300D01F92CDB7DEB789837B83F4
:100490006A8389818A3031F48A819B81BC018DE035
:1004A0000E94400280EC90E0FC018081882F90E067
:1004B00080729927892BB1F386EC90E02981FC01A9
:1004C000208380E090E00F900F900F90DF91CF910C
:1004D0000895CF93DF93CDB7DEB780912901909136
:1004E0002A018230910599F18330910528F4009713
:1004F00059F00197A1F08AC08330910509F43FC0FB
:10050000049709F461C082C085E290E0FC0110828A
:1005100081E090E090932A018093290177C080E2E6
:1005200090E0FC018081882F90E081709927892BD1
:1005300039F482E090E090932A018093290166C00B
:1005400081E090E090932A01809329015FC080E2CE
:1005500090E0FC018081882F90E081709927892BA1
:1005600039F482E090E090932A01809329014EC0F3
:1005700083E090E090932A018093290147C0809105
:10058000120190911301099739F484E090E090935F
:100590002A01809329013AC080E290E0FC01808129
:1005A000882F90E081709927892B39F481E090E0C1
:1005B00090932A018093290129C083E090E09093D1
:1005C0002A018093290122C080E290E0FC01808111
:1005D000882F90E081709927892B89F485E090E03D
:1005E0009093130180931201109224011092230121
:1005F00081E090E090932A018093290106C084E075
:1006000090E090932A0180932901000080912901B4
:1006100090912A018230910509F452C083309105EE
:1006200030F4009709F4EFC0019749F0F1C083302E
:10063000910509F4ABC0049709F4D9C0E9C08091D1
:10064000270190912801049720F010922801109220
:10065000270180912701909128010196909328010C
:10066000809327018091270190912801019729F417
:1006700085E290E021E0FC012083809127019091A8
:100680002801029729F485E290E022E0FC01208312
:100690008091270190912801039729F485E290E049
:1006A00024E0FC0120838091270190912801049788
:1006B00009F0ABC085E290E022E0FC012083A5C0F8
:1006C0008091270190912801909326018093250124
:1006D00080912701909128010197A1F485E290E093
:1006E00021E0FC0120838091120190911301892B5C
:1006F00049F0809112019091130101979093130199
:10070000809312018091270190912801029771F442
:1007100085E290E022E0FC0120838091120190911B
:100720001301019690931301809312018091270188
:10073000909128010397A1F485E290E024E0FC0168
:1007400020838091120190911301892B49F08091AF
:10075000120190911301019790931301809312015C
:100760008091270190912801049709F050C085E2FB
:1007700090E022E0FC01208380911201909113010E
:100780000196909313018093120141C0809125013D
:1007900090912601019729F485E290E021E0FC0187
:1007A00020838091250190912601029729F485E20A
:1007B00090E022E0FC0120838091250190912601A8
:1007C000039729F485E290E024E0FC0120838091E6
:1007D000250190912601049729F485E290E022E01A
:1007E000FC012083109228011092270111C081E0A2
:1007F00090E0909324018093230164E171E081E013
:100800000E94EE0005C0000003C0000001C000000F
:100810008091230190912401892B61F40E9467004B
:1008200081E00E941B018091120190911301805D73
:100830000E94BE000000DF91CF910895CF93DF9317
:10084000CDB7DEB784E290E02FEFFC01208385E294
:1008500090E0FC0110828AE290E02FEFFC012083FF
:100860008BE290E0FC01108287E290E02FEFFC0128
:1008700020838BE290E0FC01108281E290E0FC0199
:10088000108282E290E02FEFFC0120830E94720030
:100890006CE271E080E090E00E9412020E9462012E
:1008A0000E946902000080911E018823E1F31092EA
:0808B0001E01F6CFF894FFCF02
:1008B80001000000000000020000000040020000EB
:0E08C8000000050057494E4E45522121000008
:00000001FF
