:100000000C9446000C9465000C9465000C946500FB
:100010000C9465000C9465000C9465000C946500CC
:100020000C9465000C9465000C9465000C946500BC
:100030000C9465000C94A5010C9465000C9465006B
:100040000C9465000C9465000C9465000C9465009C
:100050000C9465000C9465000C9465000C9465008C
:100060000C9465000C9465000C9465000C9465007C
:100070000C9465000C9465000C9465000C9465006C
:100080000C9465000C9465000C94650011241FBE4F
:10009000CFEFD0E4DEBFCDBF11E0A0E0B1E0EEE6EF
:1000A000FBE000E00BBF02C007900D92A036B10745
:1000B000D9F721E0A0E6B1E001C01D92A238B20755
:1000C000E1F70E94DC040C94B5050C940000CF937A
:1000D000DF93CDB7DEB781E00E948E000000DF9194
:1000E000CF910895CF93DF93CDB7DEB784E690E04C
:1000F0000E94320188E30E948E0086E00E948E00FA
:100100008FE00E948E0081E00E948E008AE090E0E5
:100110000E9432010000DF91CF910895CF93DF93C9
:100120001F92CDB7DEB789838BE290E02BE230E0FF
:10013000F90120812F7BFC01208385E290E0298159
:10014000FC0120838BE290E02BE230E0F90120817A
:100150002068FC01208300008BE290E02BE230E07D
:10016000F90120812F77FC01208382E090E00E943A
:10017000320100000F90DF91CF910895CF93DF936C
:100180001F92CDB7DEB789838BE290E02BE230E09F
:10019000F90120812064FC01208385E290E029811F
:1001A000FC0120838BE290E02BE230E0F90120811A
:1001B0002068FC01208300008BE290E02BE230E01D
:1001C000F90120812F77FC01208381E090E00E94DB
:1001D000320100000F90DF91CF910895CF93DF930C
:1001E00000D000D0CDB7DEB78A837C836B830E94BA
:1001F00067008A81898311C0898191E0980F998372
:100200000E941B018B819C819C012F5F3F4F3C838F
:100210002B83FC0180810E94BE008B819C81FC01AC
:100220008081882349F700000F900F900F900F9066
:10023000DF91CF910895CF93DF931F92CDB7DEB7B3
:1002400089838981813128F4898181580E948E00B7
:1002500004C0898181550E948E0000000F90DF91BB
:10026000CF910895CF93DF9300D000D000D0CDB7C9
:10027000DEB79E838D831A82198213C01C821B8273
:1002800006C000008B819C8101969C838B838B81AF
:100290009C8187309340ACF389819A8101969A833F
:1002A000898329813A818D819E812817390734F30A
:1002B000000026960FB6F894DEBF0FBECDBFDF91CB
:1002C000CF910895CF93DF93CDB7DEB781E890E06B
:1002D0002BE0FC01208388E890E02DE730E0FC0172
:1002E000318320838FE690E022E0FC01208384E8C4
:1002F00090E0FC0111821082809100019091010137
:10030000A0910201B0910301809361019093620179
:10031000A0936301B09364018FE590E02FE530E096
:10032000F90120812068FC0120830000DF91CF913A
:100330000895CF93DF93CDB7DEB781E890E0FC015D
:1003400010820000DF91CF9108951F920F920090CC
:100350005F000F92112400905B000F922F933F9348
:100360004F935F936F937F938F939F93AF93BF93BD
:10037000EF93FF93CF93DF93CDB7DEB78091610109
:1003800090916201A0916301B09164010197A1096C
:10039000B1098093610190936201A0936301B093CE
:1003A00064018091610190916201A0916301B0911B
:1003B0006401892B8A2B8B2B91F40E9499038091E5
:1003C000000190910101A0910201B091030180937D
:1003D000610190936201A0936301B09364010000F6
:1003E000DF91CF91FF91EF91BF91AF919F918F914D
:1003F0007F916F915F914F913F912F910F9000925C
:100400005B000F9000925F000F901F901895CF93A4
:10041000DF9300D000D0CDB7DEB769837A838B83BA
:100420009C8389819A81AB81BC81809300019093E8
:100430000101A0930201B09303018091000190910A
:100440000101A0910201B091030180936101909399
:100450006201A0936301B093640100000F900F90BC
:100460000F900F90DF91CF910895CF93DF9300D03D
:100470001F92CDB7DEB789836A834B838B81882334
:1004800071F08A81282F30E081E090E002C0880F6F
:10049000991F2A95E2F7982F8981892B0EC08A81AE
:1004A000282F30E081E090E002C0880F991F2A9544
:1004B000E2F7982F9095898189230F900F900F90E4
:1004C000DF91CF910895CF93DF9300D0CDB7DEB702
:1004D00089836A838A81282F30E081E090E002C01E
:1004E000880F991F2A95E2F7982F898189230F9009
:1004F0000F90DF91CF9108950F931F93CF93DF93C8
:10050000CDB7DEB708E210E040E064E08FEF0E9474
:100510003502F8018083000086E290E0FC018081D2
:10052000809560E00E946302882311F081E3D3C0CC
:1005300086E290E0FC018081809561E00E94630288
:10054000882311F084E3C7C086E290E0FC0180813B
:10055000809562E00E946302882311F087E3BBC0AC
:1005600086E290E0FC018081809563E00E94630256
:10057000882311F08AE2AFC008E210E040E065E0B5
:100580008FEF0E943502F8018083000086E290E040
:10059000FC018081809560E00E946302882311F055
:1005A00082E399C086E290E0FC018081809561E061
:1005B0000E946302882311F085E38DC086E290E0FB
:1005C000FC018081809562E00E946302882311F023
:1005D00088E381C086E290E0FC018081809563E041
:1005E0000E946302882311F080E375C008E210E0E6
:1005F00040E066E08FEF0E943502F8018083000042
:1006000086E290E0FC018081809560E00E946302B8
:10061000882311F083E35FC086E290E0FC018081D3
:10062000809561E00E946302882311F086E353C045
:1006300086E290E0FC018081809562E00E94630286
:10064000882311F089E347C086E290E0FC018081B5
:10065000809563E00E946302882311F083E23BC02F
:1006600008E210E040E067E08FEF0E943502F801F9
:100670008083000086E290E0FC018081809560E04C
:100680000E946302882311F081E425C086E290E095
:10069000FC018081809561E00E946302882311F053
:1006A00082E419C086E290E0FC018081809562E0DE
:1006B0000E946302882311F083E40DC086E290E07B
:1006C000FC018081809563E00E946302882311F021
:1006D00084E401C080E0DF91CF911F910F910895D4
:1006E000CF93DF9300D01F92CDB7DEB789837B8392
:1006F0006A8389818A3031F48A819B81BC018DE0D3
:100700000E94700380EC90E0FC018081882F90E0D3
:1007100080729927892BB1F386EC90E02981FC0146
:10072000208380E090E00F900F900F90DF91CF91A9
:1007300008950F931F93CF93DF931F92CDB7DEB72A
:100740001982A6C08981282F30E0C901880F991F1E
:10075000820F931F880F991F880F991F82599E4FF0
:10076000FC0120813181428153818981682F70E0B1
:10077000CB01880F991F860F971F880F991F880F2D
:10078000991F86599E4FFC0180819181A281B3817E
:10079000281739074A075B0708F449C08981082FE1
:1007A00010E08981282F30E0C901880F991F820F3E
:1007B000931F880F991F880F991F8E589E4FFC0119
:1007C000408151818981282F30E0C901880F991F0C
:1007D000820F931F880F991F880F991F88599E4F6A
:1007E000FC0180819181FA0109959C01C801880F63
:1007F000991F800F911F880F991F880F991F885983
:100800009E4FFC01318320838981282F30E0C9016C
:10081000880F991F820F931F880F991F880F991FA8
:1008200082599E4FFC0110821182128213828981AB
:10083000682F70E08981282F30E0C901880F991F47
:10084000820F931F880F991F880F991F82599E4FFF
:10085000FC0180819181A281B38121E030E040E000
:1008600050E0280F391F4A1F5B1FCB01880F991FCB
:10087000860F971F880F991F880F991F82599E4FC7
:10088000FC01208331834283538389818F5F898375
:100890008981282F30E082E090E02817390708F49A
:1008A00051CF00000F90DF91CF911F910F910895CC
:1008B000CF93DF9300D0CDB7DEB79A838983898148
:1008C0009A81009719F0019731F00AC081E090E019
:1008D0009A83898305C081E090E09A838983000030
:1008E00089819A81009799F1019791F581E180932F
:1008F0006601809166010E941B018091670185332A
:1009000010F010926701809167018093810110922D
:10091000650113C08091670191E0980F9093670182
:10092000882F90E0865E9E4FFC0180810E94BE0071
:10093000809165018F5F80936501809165018031B1
:1009400048F3809181018F5F8093670101C00000AF
:1009500089819A810F900F90DF91CF910895CF9365
:10096000DF9300D0CDB7DEB79A83898389819A81DE
:10097000009719F0019741F00CC081E090E09A8354
:1009800089831092800105C081E090E09A83898379
:10099000000089819A81009739F0019731F40E9413
:1009A0007C028093800101C0000089819A810F90B0
:1009B0000F90DF91CF910895CF93DF931F92CDB722
:1009C000DEB781E290E02FEFFC01208382E290E02D
:1009D000FC01108284E290E02FEFFC01208385E28D
:1009E00090E0FC01108287E290E020EFFC01208380
:1009F00088E290E02FE0FC0120838AE290E02FEF74
:100A0000FC0120838BE290E0FC0110821982898135
:100A1000282F30E0C901880F991F820F931F880F7C
:100A2000991F880F991F88599E4FFC0111821082CF
:100A30008981282F30E0C901880F991F820F931FE9
:100A4000880F991F880F991F9C0126593E4F84EFEC
:100A500091E0A0E0B0E0F90180839183A283B383A9
:100A60008981282F30E0C901880F991F820F931FB9
:100A7000880F991F880F991F82599E4FFC01108281
:100A80001182128213828981282F30E0C901880FD8
:100A9000991F820F931F880F991F880F991F8E58D7
:100AA0009E4F2FEA34E0FC013183208389818F5FE0
:100AB00089838981282F30E0C901880F991F820F0F
:100AC000931F880F991F880F991F88599E4FFC010B
:100AD000118210828981282F30E0C901880F991F67
:100AE000820F931F880F991F880F991F9C01265909
:100AF0003E4F80E991E0A0E0B0E0F901808391836E
:100B0000A283B3838981282F30E0C901880F991F00
:100B1000820F931F880F991F880F991F82599E4F2C
:100B2000FC0110821182128213828981282F30E009
:100B3000C901880F991F820F931F880F991F880F73
:100B4000991F8E589E4F28E534E0FC0131832083A5
:100B50000E94720081E090E0A0E0B0E0BC01CD0115
:0E0B60000E9407020E946201FFCFF894FFCFAF
:100B6E000100000000000002000000007003000001
:100B7E0000001A0101000000020020202020202089
:100B8E0020202020202020202020435331323042AC
:100B9E00206973204C6567656E642E2E2E2077615A
:100BAE00697420666F722069742044415259212065
:100BBE002020202020202020202020202020202522
:00000001FF
