:100000000C9446000C9465000C9465000C946500FB
:100010000C9465000C9465000C9465000C946500CC
:100020000C9465000C9465000C9465000C946500BC
:100030000C9465000C94D0030C9465000C9465003E
:100040000C9465000C9465000C9465000C9465009C
:100050000C9465000C9465000C9465000C9465008C
:100060000C9465000C9465000C9465000C9465007C
:100070000C9465000C9465000C9465000C9465006C
:100080000C9465000C9465000C94650011241FBE4F
:10009000CFEFD0E4DEBFCDBF1EE0A0E0B1E0E6EEE2
:1000A000FCE100E00BBF02C007900D92AC3EB1072F
:1000B000D9F724E2ACEEBEE001C01D92AB3DB20721
:1000C000E1F70E94F20C0C94710E0C940000CF9397
:1000D000DF931F92CDB7DEB789838EE490E029814C
:1000E000FC012083000000008DE490E0FC01808191
:1000F0008823D4F78EE490E0FC0180810F90DF919B
:10010000CF910895CF93DF93CDB7DEB78CE490E025
:10011000FC0110828CE490E02CE430E0F9012081B5
:100120002065FC0120830000DF91CF910895CF93DB
:10013000DF93CDB7DEB78CE490E0FC0110828CE455
:1001400090E02CE430E0F90120812064FC01208360
:100150000000DF91CF910895CF93DF9300D0CDB70A
:10016000DEB71A82198208C080E00E946700898188
:100170009A8101969A83898389819A81883F9140E7
:1001800098F385E290E023E230E0F90120812B7FB3
:10019000FC01208380E40E94670080E80E946700E1
:1001A00085E290E023E230E0F90120812460FC0147
:1001B000208300000F900F90DF91CF910895CF938F
:1001C000DF9300D0CDB7DEB71A82198208C08FEF57
:1001D0000E94670089819A8101969A838983898127
:1001E0009A81883F914098F300000F900F90DF9123
:1001F000CF910895CF93DF9300D000D0CDB7DEB775
:100200009C838B831A8219820FC02B813C81898148
:100210009A81820F931FFC0180810E94670089816F
:100220009A8101969A83898389819A81883F914036
:1002300060F385E290E023E230E0F90120812B7F3A
:10024000FC01208380E40E94670080E80E94670030
:1002500085E290E023E230E0F90120812460FC0196
:10026000208300000F900F900F900F90DF91CF919F
:100270000895CF93DF93CDB7DEB785E290E023E218
:1002800030E0F9012081207FFC01208385E290E0AD
:1002900023E230E0F90120812260FC01208381E229
:1002A0000E94670088EC0E94670080E20E9467005D
:1002B0008CE00E94670085E290E023E230E0F901E3
:1002C00020812460FC0120830E94AC000000DF91AB
:1002D000CF910895CF93DF93CDB7DEB78AE790E053
:1002E0002AE730E0F90120812468FC012083000026
:1002F000DF91CF910895CF93DF93CDB7DEB70E9402
:100300006A018CE790E021E0FC0120838AE790E01D
:100310002AE730E0F90120812064FC0120830000FD
:100320008AE790E0FC018081882F90E08074992713
:10033000892BB1F788E790E0FC018081918190934F
:10034000DA248093D9248CE790E0FC0110828AE7BC
:1003500090E02AE730E0F90120812064FC0120834D
:1003600000008AE790E0FC018081882F90E0807493
:100370009927892BB1F788E790E0FC018081918172
:100380009093E0228093DF220000DF91CF910895C7
:10039000CF93DF931F92CDB7DEB78CE790E021E0DB
:1003A000FC0120838AE790E02AE730E0F901208110
:1003B0002064FC01208300008AE790E0FC0180813A
:1003C000882F90E080749927892BB1F788E790E017
:1003D000FC018081918190930619809305198CE727
:1003E00090E0FC0110828AE790E02AE730E0F90112
:1003F00020812064FC01208300008AE790E0FC015A
:100400008081882F90E080749927892BB1F788E745
:1004100090E0FC01808191819093FA0E8093F90E17
:100420008091D9249091DA249C012E5F3F4F8091D6
:100430000519909106192817390760F18091D92480
:100440009091DA249C0122503109809105199091F4
:10045000061982179307F0F08091DF229091E02235
:100460009C012E5F3F4F8091F90E9091FA0E281754
:10047000390780F08091DF229091E0229C01225088
:1004800031098091F90E9091FA0E8217930710F0BE
:10049000198231C18091D9249091DA249C012E5F78
:1004A0003F4F809105199091061928173907F8F4E4
:1004B0008091DF229091E0229C012E5F3F4F80913E
:1004C000F90E9091FA0E2817390788F08091DF22F3
:1004D0009091E0229C01225031098091F90E909177
:1004E000FA0E8217930718F081E0898304C1809186
:1004F000D9249091DA249C012E5F3F4F80910519F9
:10050000909106192817390788F48091DF2290917D
:10051000E0229C01225031098091F90E9091FA0E4F
:100520008217930718F482E08983E5C08091D9246B
:100530009091DA249C012E5F3F4F80910519909194
:10054000061928173907F8F08091D9249091DA24F8
:100550009C0122503109809105199091061982174A
:10056000930788F08091DF229091E0229C01225035
:1005700031098091F90E9091FA0E8217930718F4C1
:1005800083E08983B8C08091D9249091DA249C01BA
:10059000225031098091051990910619821793070D
:1005A00088F48091DF229091E0229C012250310951
:1005B0008091F90E9091FA0E8217930718F484E057
:1005C000898399C08091D9249091DA249C0122508A
:1005D0003109809105199091061982179307F8F453
:1005E0008091DF229091E0229C012E5F3F4F80910D
:1005F000F90E9091FA0E2817390788F08091DF22C2
:100600009091E0229C01225031098091F90E909145
:10061000FA0E8217930718F085E089836CC08091E9
:10062000D9249091DA249C01225031098091051936
:10063000909106198217930788F48091DF22909198
:10064000E0229C012E5F3F4F8091F90E9091FA0EAF
:100650002817390718F486E089834DC08091D92482
:100660009091DA249C012E5F3F4F80910519909163
:10067000061928173907F8F08091D9249091DA24C7
:100680009C01225031098091051990910619821719
:10069000930788F08091DF229091E0229C012E5FE9
:1006A0003F4F8091F90E9091FA0E2817390718F4F0
:1006B00087E0898320C08091D9249091DA249C011D
:1006C0002E5F3F4F80910519909106192817390721
:1006D00088F48091DF229091E0229C012E5F3F4FB1
:1006E0008091F90E9091FA0E2817390718F488E0D6
:1006F000898301C0198280E290E0FC018081882F0B
:1007000090E084709927892B19F48981806189830D
:1007100089810F90DF91CF910895CF93DF93CDB76B
:10072000DEB781E890E02BE0FC01208388E890E0D0
:100730002DE730E0FC01318320838FE690E022E05A
:10074000FC01208384E890E0FC01118210828091FA
:10075000000190910101A0910201B09103018093E9
:10076000ED0E9093EE0EA093EF0EB093F00E8FE58A
:1007700090E02FE530E0F90120812068FC01208322
:100780000000DF91CF910895CF93DF93CDB7DEB70F
:1007900081E890E0FC0110820000DF91CF91089584
:1007A0001F920F9200905F000F92112400905B0047
:1007B0000F922F933F934F935F936F937F938F93FA
:1007C0009F93AF93BF93EF93FF93CF93DF93CDB7F7
:1007D000DEB78091ED0E9091EE0EA091EF0EB091EC
:1007E000F00E0197A109B1098093ED0E9093EE0EE2
:1007F000A093EF0EB093F00E8091ED0E9091EE0E5F
:10080000A091EF0EB091F00E892B8A2B8B2B91F4D7
:100810000E9489048091000190910101A091020140
:10082000B09103018093ED0E9093EE0EA093EF0E26
:10083000B093F00E0000DF91CF91FF91EF91BF9147
:10084000AF919F918F917F916F915F914F913F9168
:100850002F910F9000925B000F9000925F000F901D
:100860001F901895CF93DF9300D000D0CDB7DEB79F
:1008700069837A838B839C8389819A81AB81BC81D4
:100880008093000190930101A0930201B0930301B2
:100890008091000190910101A0910201B0910301AA
:1008A0008093ED0E9093EE0EA093EF0EB093F00EAA
:1008B00000000F900F900F900F90DF91CF9108954F
:1008C000CF93DF9300D01F92CDB7DEB789837B83B0
:1008D0006A8389818A3031F48A819B81BC018DE0F1
:1008E0000E94600480EC90E0FC018081882F90E001
:1008F00080729927892BB1F386EC90E02981FC0165
:10090000208380E090E00F900F900F90DF91CF91C7
:1009100008950F931F93CF93DF931F92CDB7DEB748
:100920001982A6C08981282F30E0C901880F991F3C
:10093000820F931F880F991F880F991F87509F4E12
:10094000FC0120813181428153818981682F70E0CF
:10095000CB01880F991F860F971F880F991F880F4B
:10096000991F8B509F4EFC0180819181A281B381A0
:10097000281739074A075B0708F449C08981082FFF
:1009800010E08981282F30E0C901880F991F820F5C
:10099000931F880F991F880F991F83509F4EFC014A
:1009A000408151818981282F30E0C901880F991F2A
:1009B000820F931F880F991F880F991F8D509F4E8C
:1009C000FC0180819181FA0109959C01C801880F81
:1009D000991F800F911F880F991F880F991F8D50A5
:1009E0009F4EFC01318320838981282F30E0C9018B
:1009F000880F991F820F931F880F991F880F991FC7
:100A000087509F4EFC0110821182128213828981CD
:100A1000682F70E08981282F30E0C901880F991F65
:100A2000820F931F880F991F880F991F87509F4E21
:100A3000FC0180819181A281B38121E030E040E01E
:100A400050E0280F391F4A1F5B1FCB01880F991FE9
:100A5000860F971F880F991F880F991F87509F4EE9
:100A6000FC01208331834283538389818F5F898393
:100A70008981282F30E084E090E02817390708F4B6
:100A800051CF00000F90DF91CF911F910F910895EA
:100A9000CF93DF9300D000D000D0CDB7DEB79C83DA
:100AA0008B837E836D831A8219821DC02B813C81CA
:100AB00089819A81820F931FFC0140812D813E81A3
:100AC00089819A81820F931FFC018081242F282B1A
:100AD00089819A818F519D4DFC01208389819A8162
:100AE00001969A83898389819A81883F9140F0F2A7
:100AF00081EE92E226960FB6F894DEBF0FBECDBF10
:100B0000DF91CF910895CF93DF9300D000D0CDB780
:100B1000DEB79C838B838B819C818230910509F4A5
:100B200051C1833091052CF4009779F00197A9F019
:100B30005EC18430910509F44FC1843091050CF4F5
:100B400046C1059709F44DC152C181E08093F10E71
:100B500081E090E09C838B834AC18091F10E8130CB
:100B600009F047C00E94C801082E000C990B8F7035
:100B70009927019729F484E090E09C838B8336C108
:100B80000E94C801082E000C990B8F7099270297BC
:100B900029F485E090E09C838B8328C10E94C801E2
:100BA000082E000C990B8F709927039729F483E086
:100BB00090E09C838B831AC10E94C801082E000C10
:100BC000990B8F709927049729F483E090E09C8318
:100BD0008B830CC10E94C801082E000C990B8F70EA
:100BE0009927089709F002C184E090E09C838B83E9
:100BF000FDC08091F10E823009F047C00E94C8010B
:100C0000082E000C990B8F709927019729F485E025
:100C100090E09C838B83EAC00E94C801082E000CE0
:100C2000990B8F709927029729F485E090E09C83B7
:100C30008B83DCC00E94C801082E000C990B8F70BA
:100C40009927069729F482E090E09C838B83CEC09D
:100C50000E94C801082E000C990B8F7099270797E6
:100C600029F482E090E09C838B83C0C00E94C8017D
:100C7000082E000C990B8F709927089709F0B6C0C1
:100C800085E090E09C838B83B1C08091F10E83302E
:100C900009F047C00E94C801082E000C990B8F7004
:100CA0009927049729F483E090E09C838B839EC06E
:100CB0000E94C801082E000C990B8F709927059788
:100CC00029F483E090E09C838B8390C00E94C8014C
:100CD000082E000C990B8F709927069729F482E053
:100CE00090E09C838B8382C00E94C801082E000C78
:100CF000990B8F709927079729F484E090E09C83E3
:100D00008B8374C00E94C801082E000C990B8F7051
:100D10009927089709F06AC084E090E09C838B8350
:100D200065C08091F10E843009F046C00E94C80170
:100D3000082E000C990B8F709927029729F485E0F3
:100D400090E09C838B8352C00E94C801082E000C47
:100D5000990B8F709927039729F485E090E09C8385
:100D60008B8344C00E94C801082E000C990B8F7021
:100D70009927049729F483E090E09C838B8336C005
:100D80000E94C801082E000C990B8F7099270597B7
:100D900029F482E090E09C838B8328C00E94C801E4
:100DA000082E000C990B8F7099270697F9F482E0B2
:100DB00090E09C838B831AC088E290E021E0FC01E4
:100DC000208314C081E090E09C838B8310C081E07D
:100DD00090E09C838B830BC081E090E09C838B83AD
:100DE00006C081E090E09C838B8301C000008B8172
:100DF0009C818230910509F48DC08330910534F4D3
:100E0000009709F497C0019769F097C08430910565
:100E100009F488C0843091050CF480C0059709F46A
:100E200085C08BC08091F10E8130D1F41A82198275
:100E300011C089819A818250974FFC01208189815C
:100E40009A81835F984EFC01208389819A81019663
:100E50009A83898389819A81883F914050F36CC03D
:100E60008091F10E8230D1F41A82198211C08981E9
:100E70009A818A5F984FFC01208189819A81835FE2
:100E8000984EFC01208389819A8101969A838983F7
:100E900089819A81883F914050F34EC08091F10E34
:100EA0008330D1F41A82198211C089819A818A5EB5
:100EB0009C4FFC01208189819A81835F984EFC01BF
:100EC000208389819A8101969A83898389819A8175
:100ED000883F914050F330C08091F10E843061F52D
:100EE0001A82198211C089819A81825F9A4FFC010E
:100EF000208189819A81835F984EFC0120838981BA
:100F00009A8101969A83898389819A81883F914049
:100F100050F312C081E08093F10E0FC082E0809305
:100F2000F10E0BC084E08093F10E07C083E0809344
:100F3000F10E03C0000001C000008B819C810F9066
:100F40000F900F900F90DF91CF910895CF93DF9383
:100F5000CDB7DEB766970FB6F894DEBF0FBECDBF34
:100F60009E8B8D8B8D899E89009719F0019731F0AA
:100F70000AC081E090E09E8B8D8B05C081E090E0FF
:100F80009E8B8D8B00008D899E89009709F411C27C
:100F9000019709F00FC28091F20E8A3010F0109282
:100FA000F20E8091F30E863010F01092F30E9091B5
:100FB000F40E80911C01981708F04CC18091F30E3B
:100FC000853009F047C18091F40E8F5F8093F40E55
:100FD0008091F20E882F90E08E5E9E4FFC01808102
:100FE000813069F51A8219821AC08091F40E882F17
:100FF00090E0019729813A812A50354FF9014081CB
:1010000029813A81220F331F820F931F835E9C4EEA
:10101000FC01408389819A8101969A838983898121
:101020009A81883F914008F38091F40E882F90E0D8
:1010300001978D5D9E4E21E0FC01208306C18091C9
:10104000F20E882F90E08E5E9E4FFC0180818230F0
:1010500069F51C821B821AC08091F40E882F90E0E3
:1010600001972B813C812251334FF90140812B8123
:101070003C81220F331F820F931F835E9C4EFC0125
:1010800040838B819C8101969C838B838B819C8187
:10109000883F914008F38091F40E882F90E00197EB
:1010A0008D5D9E4E22E0FC012083CFC08091F20E28
:1010B000882F90E08E5E9E4FFC018081833009F086
:1010C0006AC08FE390E09E838D838FE891E09887DC
:1010D0008F831FC08091F40E882F90E001972F819D
:1010E00038852251334FF90140812D813E81220FF5
:1010F000331F820F931F835E9C4EFC0140838D81C2
:101100009E8101969E838D838F8198850196988715
:101110008F838F819885883F9140E0F214C0809141
:10112000F40E882F90E001972D813E81220F331F0E
:10113000820F931F835E9C4EFC0110828D819E81E5
:1011400001969E838D838D819E81883F914038F3E7
:10115000198613C08985282F30E08091F40E882FDE
:1011600090E00197220F331F820F931F835E9C4EE6
:10117000FC01108289858F5F89878985803450F3CF
:101180008091F40E882F90E001978D5D9E4E23E0B4
:10119000FC0120835AC08091F20E882F90E08E5E71
:1011A0009E4FFC018081843009F04FC01B861A8657
:1011B00080E591E09D878C871FC08091F40E882F79
:1011C00090E001972C853D852A50354FF9014081EB
:1011D0002A853B85220F331F820F931F835E9C4E0F
:1011E000FC0140838A859B8501969B878A878C8535
:1011F0009D8501969D878C878C859D85893B914037
:10120000E0F214C08091F40E882F90E001972A85B7
:101210003B85220F331F820F931F835E9C4EFC0180
:1012200010828A859B8501969B878A878A859B8504
:10123000883F914038F38091F40E882F90E0019719
:101240008D5D9E4E24E0FC0120838091F20E8F5F25
:101250008093F20E1E867DC08E85882F90E08D5D76
:101260009E4EFC018081813049F08E85882F90E070
:101270008D5D9E4EFC018081843061F587EF91E0A9
:10128000988B8F8722C08E85882F90E02F85388994
:10129000A901415051092E85222F30E0440F551FDE
:1012A000240F351F235E3C4EF90140812F8538897C
:1012B000220F331F820F931F835E9C4EFC014083DD
:1012C0008F8598890197988B8F878F859889892B2F
:1012D000D1F63CC08E85882F90E08D5D9E4EFC013E
:1012E0008081823049F08E85882F90E08D5D9E4E02
:1012F000FC018081833051F51A8A198A22C08E85BB
:10130000882F90E029893A89A9014F5F5F4F2E8588
:10131000222F30E0440F551F240F351F235E3C4E13
:10132000F901408129893A89220F331F820F931FC7
:10133000835E9C4EFC01408389899A8901969A8B31
:10134000898B89899A89883F9140C8F28E858F5F01
:101350008E878091F40E9E85981708F47DCF1C8AA5
:101360001B8A1CC08B899C89880F991F835E9C4EA9
:10137000FC0120818B899C89880F991F825E9C4E7D
:10138000FC018081282B8B899C898B5D9E4EFC0102
:1013900020838B899C8901969C8B8B8B8B899C8964
:1013A000883F9140F8F28091F30E8F5F8093F30EA7
:1013B00001C000008D899E8966960FB6F894DEBF45
:1013C0000FBECDBFDF91CF910895CF93DF93CDB7FF
:1013D000DEB76C970FB6F894DEBF0FBECDBF9C8F03
:1013E0008B8F8B8D9C8D8130910589F0823091059A
:1013F0001CF4892B39F04BC082309105E1F0039742
:10140000F9F045C081E090E09C8F8B8F40C080E276
:1014100090E0FC018081882F90E084709927892BCF
:1014200029F482E090E09C8F8B8F31C081E090E0C6
:101430009C8F8B8F2CC083E090E09C8F8B8F27C07C
:1014400080E290E0FC018081882F90E084709927F1
:10145000892B79F48091F50E9091F60E0B9748F058
:101460001092F60E1092F50E83E090E09C8F8B8F19
:1014700004C081E090E09C8F8B8F8091F50E90915D
:10148000F60E01969093F60E8093F50E00008B8D6C
:101490009C8D8130910509F462C2823091050CF473
:1014A00060C2029709F05FC29091F70E80911D0112
:1014B000981708F0F9C18091F70E8F5F8093F70EAF
:1014C0008091F10E843009F078C083E790E09A8330
:1014D000898383E790E09C838B8326C08091F70EFD
:1014E000882F90E0AC01415051098B819C81825E34
:1014F0009E4FFC01608129813A81C901880F991FA3
:10150000880F991F820F931F840F951F895F964E36
:10151000FC01608389819A8101969A8389838B81FA
:101520009C8101969C838B838B819C818B37910559
:10153000A8F21BC08091F70E882F90E0AC014150BB
:10154000510929813A81C901880F991F880F991F74
:10155000820F931F840F951F895F964EFC011082A6
:1015600089819A8101969A83898389819A81883FAA
:10157000914000F31E821D821BC08091F70E882FC0
:1015800090E0AC01415051092D813E81C901880F85
:10159000991F880F991F820F931F840F951F895FD2
:1015A000964EFC0110828D819E8101969E838D83D3
:1015B0008D819E818337910500F38091F10E8330F8
:1015C00009F078C083E890E098878F8383E890E003
:1015D0009A87898726C08091F70E882F90E0AC010A
:1015E0004150510989859A85825E9E4FFC01608138
:1015F0002F813885C901880F991F880F991F820F85
:10160000931F840F951F895F964EFC0160838F8125
:101610009885019698878F8389859A8501969A8700
:10162000898789859A858B389105A8F21BC080919E
:10163000F70E882F90E0AC01415051092F81388579
:10164000C901880F991F880F991F820F931F840F5C
:10165000951F895F964EFC0110828F8198850196B7
:1016600098878F838F819885883F914000F31C86EF
:101670001B861BC08091F70E882F90E0AC01415073
:1016800051092B853C85C901880F991F880F991F27
:10169000820F931F840F951F895F964EFC01108265
:1016A0008B859C8501969C878B878B859C85833851
:1016B000910500F38091F10E813009F078C08FE63A
:1016C00091E09E878D878FE691E0988B8F8726C06B
:1016D0008091F70E882F90E0AC01415051098F8521
:1016E0009889825E9E4FFC0160812D853E85C901EF
:1016F000880F991F880F991F820F931F840F951FC2
:10170000895F964EFC0160838D859E8501969E873C
:101710008D878F8598890196988B8F878F8598897B
:1017200087379140A8F21BC08091F70E882F90E078
:10173000AC01415051092D853E85C901880F991F83
:10174000880F991F820F931F840F951F895F964EF4
:10175000FC0110828D859E8501969E878D878D85E3
:101760009E85883F914000F31A8A198A1BC0809198
:10177000F70E882F90E0AC014150510929893A8930
:10178000C901880F991F880F991F820F931F840F1B
:10179000951F895F964EFC01108289899A8901966E
:1017A0009A8B898B89899A898F36914000F3809131
:1017B000F10E823009F078C08FE791E09C8B8B8B23
:1017C0008FE791E09E8B8D8B26C08091F70E882F3E
:1017D00090E0AC01415051098D899E89825E9E4FF7
:1017E000FC0160812B893C89C901880F991F880FF2
:1017F000991F820F931F840F951F895F964EFC01DE
:1018000060838B899C8901969C8B8B8B8D899E89AB
:1018100001969E8B8D8B8D899E8987389140A8F289
:101820001BC08091F70E882F90E0AC014150510908
:101830002B893C89C901880F991F880F991F820F36
:10184000931F840F951F895F964EFC0110828B8930
:101850009C8901969C8B8B8B8B899C89883F9140BE
:1018600000F3188E1F8A1BC08091F70E882F90E01E
:10187000AC01415051092F89388DC901880F991F3A
:10188000880F991F820F931F840F951F895F964EB3
:10189000FC0110828F89988D0196988F8F8B8F898C
:1018A000988D8F37914000F31A8E198E51C0298D73
:1018B0003A8DC901880F991F880F991F820F931FB6
:1018C000895F964EFC014081298D3A8DC901880FB0
:1018D000991F880F991F820F931F885F964EFC01F6
:1018E0008081482B298D3A8DC901880F991F880F57
:1018F000991F820F931F875F964EFC018081482BB2
:10190000298D3A8DC901880F991F880F991F820F61
:10191000931F865F964EFC018081482B298D3A8D5E
:10192000C901880F991F880F991F820F931F855F28
:10193000964EFC018081242F282B898D9A8D85500D
:10194000914FFC012083898D9A8D01969A8F898F02
:10195000898D9A8D883F914008F4A9CF05C0000079
:1019600003C0000001C000008B8D9C8D6C960FB6EB
:10197000F894DEBF0FBECDBFDF91CF910895CF9316
:10198000DF9300D0CDB7DEB79A83898389819A81AE
:10199000009719F0019731F00AC081E090E09A8336
:1019A000898305C081E090E09A8389830000898162
:1019B0009A81009779F0019771F465E271E18DE009
:1019C00097E10E9448056BEF7EE00E9448050E9467
:1019D000FA0001C0000089819A810F900F90DF9179
:1019E000CF910895CF93DF931F92CDB7DEB781E2F9
:1019F00090E0FC01108282E290E02FEFFC01208356
:101A000084E290E02FEBFC01208387E290E02FEF4F
:101A1000FC01208388E290E0FC0110828AE290E0E1
:101A20002FEFFC0120838BE290E0FC0110821982F1
:101A30008981282F30E0C901880F991F820F931FD9
:101A4000880F991F880F991F8D509F4EFC0111829E
:101A500010828981282F30E0C901880F991F820FD9
:101A6000931F880F991F880F991F9C012B503F4E81
:101A700084E690E0A0E0B0E0F90180839183A28346
:101A8000B3838981282F30E0C901880F991F820F05
:101A9000931F880F991F880F991F87509F4EFC0135
:101AA00010821182128213828981282F30E0C901AD
:101AB000880F991F820F931F880F991F880F991FF6
:101AC00083509F4E23E835E0FC01318320838981D8
:101AD0008F5F89838981282F30E0C901880F991F82
:101AE000820F931F880F991F880F991F8D509F4E4B
:101AF000FC01118210828981282F30E0C901880FF2
:101B0000991F820F931F880F991F880F991F9C019F
:101B10002B503F4E88EE93E0A0E0B0E0F9018083C7
:101B20009183A283B3838981282F30E0C901880F74
:101B3000991F820F931F880F991F880F991F875035
:101B40009F4EFC0110821182128213828981282FFC
:101B500030E0C901880F991F820F931F880F991FCA
:101B6000880F991F83509F4E26EA37E0FC0131838E
:101B7000208389818F5F89838981282F30E0C90183
:101B8000880F991F820F931F880F991F880F991F25
:101B90008D509F4EFC01118210828981282F30E0E8
:101BA000C901880F991F820F931F880F991F880FF3
:101BB000991F9C012B503F4E82E390E0A0E0B0E0E3
:101BC000F90180839183A283B3838981282F30E038
:101BD000C901880F991F820F931F880F991F880FC3
:101BE000991F87509F4EFC0110821182128213822E
:101BF0008981282F30E0C901880F991F820F931F18
:101C0000880F991F880F991F83509F4E25EE39E04A
:101C1000FC013183208389818F5F89838981282F0B
:101C200030E0C901880F991F820F931F880F991FF9
:101C3000880F991F8D509F4EFC011182108289815F
:101C4000282F30E0C901880F991F820F931F880F3A
:101C5000991F880F991F9C012B503F4E84E690E0FE
:101C6000A0E0B0E0F90180839183A283B3838981EE
:101C7000282F30E0C901880F991F820F931F880F0A
:101C8000991F880F991F87509F4EFC011082118267
:101C9000128213828981282F30E0C901880F991F91
:101CA000820F931F880F991F880F991F83509F4E93
:101CB0002FEB3CE0FC013183208389818F5F898396
:101CC00081E090E0A0E0B0E0BC01CD010E943204D0
:101CD0000E948D030E9482000E9439010E947B01B4
:061CE000FFCFF894FFCFD6
:101CE6000100000000000002000000006004000087
:101CF60000000402030103040102010302050000BF
:101D060000000000000000000000000000000000CD
:101D160000000000000000000000000000000000BD
:101D260000000000000000000000000000000000AD
:101D3600000000000000000000000000000000009D
:101D4600000000000000000000000000000000008D
:101D5600000000000000000000000000000000007D
:101D6600000000000000000000000000000000006D
:101D760000081C3E6B080808000000000000000078
:101D8600000808086B3E1C08000000000000000068
:101D9600000000000000000000000000000000003D
:101DA600000000000000000000000000000000002D
:101DB600000000000000000000000000000000001D
:101DC600000000000000000000000000000000000D
:101DD60000000000000000000000000000000000FD
:101DE60000000000000000000000000000000000ED
:101DF60000000000000000000000000000000000DD
:101E060000000000000000000000000000000000CC
:101E160000000000000000000000000000000000BC
:101E260000000000000000000000000000000000AC
:101E3600000000000000000000000000000000009C
:101E4600000000000000000000000000000000008C
:101E5600000000000000000000000000000000007C
:101E66000000000000000000000000000010387CA8
:101E7600D610101000000000000000000010101026
:101E8600D67C3810000000000000000000000000B2
:101E9600000000000000000000000000000000003C
:101EA600000000000000000000000000000000002C
:101EB600000000000000000000000000000000001C
:101EC600000000000000000000000000000000000C
:101ED60000000000000000000000000000000000FC
:101EE60000000000000000000000000000000000EC
:101EF60000000000000000000000000000000000DC
:101F060000000000000000000000000000000000CB
:101F1600000000000000000000000000007C82823B
:101F26008282827C000000000000000000000000A9
:101F3600000000000000000000000000000000009B
:101F4600000000000000000000000000000000008B
:101F5600000000000000000000000000000000007B
:101F6600000000000000000000000000000000006B
:101F760000000000FF2020200000000000000000FC
:101F8600000000000000000000000000000000004B
:101F9600000000000000000000000000000000003B
:101FA600000000000000000000000000000000002B
:101FB600000000000000000000000000000000001B
:101FC60000000000002010080F081020000000008C
:101FD60000000000000000000000000000000000FB
:101FE60000000000000000000000000000000000EB
:101FF60000000000000000000000000000000000DB
:1020060000000000000000000000000000000000CA
:1020160000000000000000000000000000000000BA
:1020260000000000000000000000000000000000AA
:10203600000000000000000000000000000000009A
:10204600000000000000000000000000000000008A
:10205600000000000000000000000000000000007A
:10206600000000000000000000000000000000006A
:10207600000000000000000000000000000000005A
:10208600000000000000000000000000000000004A
:10209600000000000000000000000000000000003A
:1020A600000000000000000000000000000000002A
:1020B600000000000000000000000000000000001A
:1020C600000000000000000000000000000000000A
:1020D60000000000000000000000000000000000FA
:1020E60000000000000000000000000000000000EA
:1020F60000000000000000000000000000000000DA
:1021060000000000000000000000000000000000C9
:1021160000000000007C82828282827C0000000037
:1021260000000000000000000000000000000000A9
:102136000000000000000000000000000000000099
:102146000000000000000000000000000000000089
:102156000000000000000000000000000000000079
:10216600000000000000000000202020FF0000000A
:102176000000000000000000000000000000000059
:102186000000000000000000000000000000000049
:102196000000000000000000000000000000000039
:1021A6000000000000000000000000000000000029
:1021B60000000000000000000000000000201008E1
:1021C6000F081020000000000000000000000000C2
:1021D60000000000000000000000000000000000F9
:1021E60000000000000000000000000000000000E9
:1021F60000000000000000000000000000000000D9
:1022060000000000000000000000000000000000C8
:10240600000000000000000000F00808080808F0BE
:1024160000000000000000000000000000000000B6
:1024260000000000000000000000000000000000A6
:102436000000000000000000000000000000000096
:102446000000000000000000000000000000000086
:102456000000000000000000000000000001020271
:10246600FE828281000000000000000000000000E3
:102476000000000000000000000000000000000056
:102486000000000000000000000000000000000046
:102496000000000000000000000000000000000036
:1024A6000000000000000000000000000000000026
:1024B600008040203F204080000000000000000017
:1024C6000000000000000000000000000000000006
:1024D60000000000000000000000000000000000F6
:1024E60000000000000000000000000000000000E6
:1024F60000000000000000000000000000000000D6
:1025060000000000000000000000000000000000C5
:1025160000000000000000000000000000000000B5
:1025260000000000000000000000000000000000A5
:102536000000000000000000000000000000000095
:102546000000000000000000000000000000000085
:102556000000000000000000000000000000000075
:102566000000000000000000000000000000000065
:102576000000000000000000000000000000000055
:102586000000000000000000000000000000000045
:102596000000000000000000000000000000000035
:1025A6000000000000000000000000000000000025
:1025B6000000000000000000000000000000000015
:1025C6000000000000000000000000000000000005
:1025D60000000000000000000000000000000000F5
:1025E60000000000000000000000000000000000E5
:1025F60000000000000000000000000000000000D5
:1026060000F00808080808F00000000000000000BC
:1026160000000000000000000000000000000000B4
:1026260000000000000000000000000000000000A4
:102636000000000000000000000000000000000094
:102646000000000000000000000000000000000084
:102656000000000000818282FE02020100000000EC
:102666000000000000000000000000000000000064
:102676000000000000000000000000000000000054
:102686000000000000000000000000000000000044
:102696000000000000000000000000000000000034
:1026A6000000000000000000008040203F20408025
:1026B6000000000000000000000000000000000014
:1026C6000000000000000000000000000000000004
:1026D60000000000000000000000000000000000F4
:1026E60000000000000000000000000000000000E4
:1026F60000000000000000000000000000000000D4
:1027060000000000000000000000000000000000C3
:1027160000000000000000000000000000000000B3
:1027260000000000000000000000000000000000A3
:102736000000000000000000000000000000000093
:102746000000000000000000000000000000000083
:102756000000000000000000000000000000000073
:102766000000000000000000000000000000000063
:102776000000000000000000000000000000000053
:102786000000000000000000000000000000000043
:102796000000000000000000000000000000000033
:1027A6000000000000000000000000000000000023
:1027B6000000000000000000000000000000000013
:1027C6000000000000000000000000000000000003
:1027D60000000000000000000000000000000000F3
:1027E60000000000000000000000000000000000E3
:1027F60000000000000000000000000000000000D3
:1028060000000000000000000000000000000000C2
:1028160000000000000000000000000000000000B2
:10282600000000000000000080402010884444287A
:102836001020404080808000000000000000000062
:102846000000000000000000000000000000000082
:102856000000000000000000000000000000000072
:102866000000000000000000000000000000000062
:1028760000000000000000000000081609001F21EB
:1028860040808086A0A0A0A086808043221C0000F5
:102896000000000000000000000000000000000032
:1028A6000000000000000000000000000000000022
:1028B6000000000000000000000000000000000012
:1028C6000000000000000000000000000000000002
:1028D60000000000000000000000000000000000F2
:1028E60000000000000000000000000000000000E2
:1028F60000000000000000000000000000000000D2
:1029060000000000000000000000000000000000C1
:1029160000000000000000000000000000000000B1
:1029260000000000000000000000000000000000A1
:102936000000000000000000000000000000000091
:102946000000000000000000000000000000000081
:102956000000000000000000000000000000000071
:102966000000000000000000000000000000000061
:102976000000000000000000000000000000000051
:102986000000000000000000000000000000000041
:102996000000000000000000000000000000000031
:1029A6000000000000000000000000000000000021
:1029B6000000000000000000000000000000000011
:1029C6000000000000000000000000000000000001
:1029D60000000000000000000000000000000000F1
:1029E60000000000000000000000000000000000E1
:1029F60000000000000000000000000000000000D1
:102A060000000000000000000000000000000000C0
:102A160000000000000000000000000000000000B0
:102A260000000000000000000000000000000000A0
:102A36000000000000000000000000000000000090
:102A46000000000000000000000000000000000080
:102A56000000000000000000000000000000000070
:102A66000080808040402010284444881020408008
:102A76000000000000000000000000000000000050
:102A86000000000000000000000000000000000040
:102A96000000000000000000000000000000000030
:102AA6000000000000000000000000000000000020
:102AB60000001C2243808086A0A0A0A086808040C3
:0C2AC600211F0009160801000000040098
:00000001FF
