:100000000C945A000C9479000C9479000C947900AB
:100010000C9479000C9479000C9479000C9479007C
:100020000C9479000C9479000C9479000C9479006C
:100030000C9479000C94AA050C9479000C94790026
:100040000C9479000C9479000C9479000C9479004C
:100050000C9479000C9479000C9479000C9479003C
:100060000C9479000C9479000C9479000C9479002C
:100070000C9479000C9479000C9479000C9479001C
:100080000C9479000C9479000C9479007A0782071B
:10009000AE09B309B809BD09C209C709CC09D1091C
:1000A000560BEB09360B3A0B3E0B420B460B4A0B39
:1000B0004E0B520B11241FBECFEFD0E4DEBFCDBFDD
:1000C00012E1A0E0B1E0E4EEF2E300E00BBF02C019
:1000D00007900D92AC3DB107D9F728E2ACEDB2E143
:1000E00001C01D92A93FB207E1F70E9432170C949C
:1000F00070190C940000CF93DF931F92CDB7DEB739
:1001000089838EE490E02981FC01208300000000B7
:100110008DE490E0FC0180818823D4F78EE490E0A8
:10012000FC0180810F90DF91CF910895CF93DF93F1
:10013000CDB7DEB78CE490E0FC0110828CE490E057
:100140002CE430E0F90120812065FC0120830000CF
:10015000DF91CF910895CF93DF93CDB7DEB78CE4D5
:1001600090E0FC0110828CE490E02CE430E0F90196
:1001700020812064FC0120830000DF91CF9108954D
:10018000CF93DF9300D0CDB7DEB71A82198208C0B3
:1001900080E00E947B0089819A8101969A838983FD
:1001A00089819A81883F914098F385E290E023E22B
:1001B00030E0F90120812B7FFC01208380E40E9444
:1001C0007B0080E80E947B0085E290E023E230E043
:1001D000F90120812460FC01208300000F900F9022
:1001E000DF91CF910895CF93DF9300D0CDB7DEB7E5
:1001F0001A82198208C08FEF0E947B0089819A8140
:1002000001969A83898389819A81883F914098F3E6
:1002100000000F900F90DF91CF910895CF93DF935F
:1002200000D000D0CDB7DEB79C838B831A821982B1
:100230000FC02B813C8189819A81820F931FFC0121
:1002400080810E947B0089819A8101969A838983AB
:1002500089819A81883F914060F385E290E023E2B2
:1002600030E0F90120812B7FFC01208380E40E9493
:100270007B0080E80E947B0085E290E023E230E092
:10028000F90120812460FC01208300000F900F9071
:100290000F900F90DF91CF910895CF93DF93CDB75B
:1002A000DEB785E290E023E230E0F9012081207F93
:1002B000FC01208385E290E023E230E0F901208117
:1002C0002260FC01208381E20E947B0088EC0E9476
:1002D0007B0080E20E947B008CE00E947B0085E234
:1002E00090E023E230E0F90120812460FC012083CA
:1002F0000E94C0000000DF91CF910895CF93DF935B
:10030000CDB7DEB78AE790E02AE730E0F901208137
:100310002468FC0120830000DF91CF910895CF93E2
:10032000DF93CDB7DEB70E947E018CE790E021E03D
:10033000FC0120838AE790E02AE730E0F901208180
:100340002064FC01208300008AE790E0FC018081AA
:10035000882F90E080749927892BB1F788E790E087
:10036000FC01808191819093F8288093F7288CE795
:1003700090E0FC0110828AE790E02AE730E0F90182
:1003800020812064FC01208300008AE790E0FC01CA
:100390008081882F90E080749927892BB1F788E7B6
:1003A00090E0FC01808191819093FE268093FD2650
:1003B0000000DF91CF910895CF93DF931F92CDB7C7
:1003C000DEB78CE790E024E0FC0120838AE790E030
:1003D0002AE730E0F90120812064FC01208300003D
:1003E0008AE790E0FC018081882F90E08074992753
:1003F000892BB1F788E790E0FC018081918190938F
:10040000111D8093101D8CE790E023E0FC012083F8
:100410008AE790E02AE730E0F90120812064FC01BE
:10042000208300008AE790E0FC018081882F90E023
:1004300080749927892BB1F788E790E0FC018081CF
:1004400091819093131D8093121D8091F7289091B4
:10045000F8289C012E5F3F4F8091101D9091111D37
:100460002817390760F18091F7289091F8289C01AE
:10047000225031098091101D9091111D8217930710
:10048000F0F08091FD269091FE269C012E5F3F4F5B
:100490008091121D9091131D2817390780F08091CB
:1004A000FD269091FE269C01225031098091121D5B
:1004B0009091131D8217930710F0198231C180911A
:1004C000F7289091F8289C012E5F3F4F8091101DD6
:1004D0009091111D28173907F8F48091FD2690910D
:1004E000FE269C012E5F3F4F8091121D9091131D9F
:1004F0002817390788F08091FD269091FE269C01EF
:10050000225031098091121D9091131D821793077B
:1005100018F081E0898304C18091F7289091F82830
:100520009C012E5F3F4F8091101D9091111D281747
:10053000390788F48091FD269091FE269C01225077
:1005400031098091121D9091131D8217930718F4A1
:1005500082E08983E5C08091F7289091F8289C017A
:100560002E5F3F4F8091101D9091111D2817390764
:10057000F8F08091F7289091F8289C0122503109D9
:100580008091101D9091111D8217930788F0809122
:10059000FD269091FE269C01225031098091121D6A
:1005A0009091131D8217930718F483E08983B8C0D4
:1005B0008091F7289091F8289C0122503109809170
:1005C000101D9091111D8217930788F48091FD26CC
:1005D0009091FE269C01225031098091121D90912C
:1005E000131D8217930718F484E0898399C08091C2
:1005F000F7289091F8289C01225031098091101D14
:100600009091111D82179307F8F48091FD26909127
:10061000FE269C012E5F3F4F8091121D9091131D6D
:100620002817390788F08091FD269091FE269C01BD
:10063000225031098091121D9091131D821793074A
:1006400018F085E089836CC08091F7289091F82894
:100650009C01225031098091101D9091111D82172B
:10066000930788F48091FD269091FE269C012E5FD1
:100670003F4F8091121D9091131D2817390718F4D0
:1006800086E089834DC08091F7289091F8289C01DD
:100690002E5F3F4F8091101D9091111D2817390733
:1006A000F8F08091F7289091F8289C0122503109A8
:1006B0008091101D9091111D8217930788F08091F1
:1006C000FD269091FE269C012E5F3F4F8091121DCA
:1006D0009091131D2817390718F487E0898320C0EB
:1006E0008091F7289091F8289C012E5F3F4F8091D0
:1006F000101D9091111D2817390788F48091FD264F
:100700009091FE269C012E5F3F4F8091121D90918B
:10071000131D2817390718F488E0898301C019824E
:1007200080E290E0FC018081882F90E08071992721
:10073000892B19F489818061898389810F90DF91E8
:10074000CF910895CF93DF931F92CDB7DEB78CE79B
:1007500090E021E0FC0120838AE790E02AE730E086
:10076000F90120812064FC01208300008AE790E0E9
:10077000FC018081882F90E080749927892BB1F744
:1007800088E790E0FC01808191819093151D809312
:10079000141D8CE790E0FC0110828AE790E02AE7C4
:1007A00030E0F90120812064FC01208300008AE709
:1007B00090E0FC018081882F90E080749927892B3C
:1007C000B1F788E790E0FC01808191819093EC1271
:1007D0008093EB128091F7289091F8289C012E5F6E
:1007E0003F4F8091141D9091151D2817390760F116
:1007F0008091F7289091F8289C012250310980912E
:10080000141D9091151D82179307F0F08091FD261D
:100810009091FE269C012E5F3F4F8091EB129091AC
:10082000EC122817390780F08091FD269091FE2662
:100830009C01225031098091EB129091EC128217A9
:10084000930710F0198231C18091F7289091F82810
:100850009C012E5F3F4F8091141D9091151D28170C
:100860003907F8F48091FD269091FE269C012E5FB9
:100870003F4F8091EB129091EC122817390788F0C6
:100880008091FD269091FE269C0122503109809195
:10089000EB129091EC128217930718F081E0898394
:1008A00004C18091F7289091F8289C012E5F3F4F5A
:1008B0008091141D9091151D2817390788F4809197
:1008C000FD269091FE269C01225031098091EB1269
:1008D0009091EC128217930718F482E08983E5C0A7
:1008E0008091F7289091F8289C012E5F3F4F8091CE
:1008F000141D9091151D28173907F8F08091F728DD
:100900009091F8289C01225031098091141D9091FA
:10091000151D8217930788F08091FD269091FE2681
:100920009C01225031098091EB129091EC128217B8
:10093000930718F483E08983B8C08091F7289091D9
:10094000F8289C01225031098091141D9091151DA9
:100950008217930788F48091FD269091FE269C01D2
:10096000225031098091EB129091EC12821793077B
:1009700018F484E0898399C08091F7289091F82831
:100980009C01225031098091141D9091151D8217F0
:100990009307F8F48091FD269091FE269C012E5F2E
:1009A0003F4F8091EB129091EC122817390788F095
:1009B0008091FD269091FE269C0122503109809164
:1009C000EB129091EC128217930718F085E089835F
:1009D0006CC08091F7289091F8289C012250310931
:1009E0008091141D9091151D8217930788F48091B2
:1009F000FD269091FE269C012E5F3F4F8091EB12C9
:100A00009091EC122817390718F486E089834DC0BD
:100A10008091F7289091F8289C012E5F3F4F80919C
:100A2000141D9091151D28173907F8F08091F728AB
:100A30009091F8289C01225031098091141D9091C9
:100A4000151D8217930788F08091FD269091FE2650
:100A50009C012E5F3F4F8091EB129091EC12281772
:100A6000390718F487E0898320C08091F728909196
:100A7000F8289C012E5F3F4F8091141D9091151D09
:100A80002817390788F48091FD269091FE269C0155
:100A90002E5F3F4F8091EB129091EC12281739078F
:100AA00018F488E0898301C0198280E290E0FC019B
:100AB0008081882F90E084709927892B19F489818F
:100AC0008061898389810F90DF91CF910895CF93C1
:100AD000DF93CDB7DEB781E890E02BE0FC01208307
:100AE00088E890E02DE730E0FC01318320838FE639
:100AF00090E022E0FC01208384E890E0FC01118278
:100B000010828091000190910101A0910201B091A9
:100B100003018093DD129093DE12A093DF12B09355
:100B2000E0128FE590E02FE530E0F90120812068A8
:100B3000FC0120830000DF91CF910895CF93DF93D4
:100B4000CDB7DEB781E890E0FC0110820000DF91B4
:100B5000CF9108951F920F9200905F000F92112481
:100B600000905B000F922F933F934F935F936F938F
:100B70007F938F939F93AF93BF93EF93FF93CF9305
:100B8000DF93CDB7DEB78091DD129091DE12A09198
:100B9000DF12B091E0120197A109B1098093DD1233
:100BA0009093DE12A093DF12B093E0128091DD12D9
:100BB0009091DE12A091DF12B091E012892B8A2B66
:100BC0008B2B91F40E9463068091000190910101AA
:100BD000A0910201B09103018093DD129093DE1287
:100BE000A093DF12B093E0120000DF91CF91FF914C
:100BF000EF91BF91AF919F918F917F916F915F9195
:100C00004F913F912F910F9000925B000F900092B7
:100C10005F000F901F901895CF93DF9300D000D006
:100C2000CDB7DEB769837A838B839C8389819A8170
:100C3000AB81BC818093000190930101A0930201DC
:100C4000B09303018091000190910101A0910201F4
:100C5000B09103018093DD129093DE12A093DF1216
:100C6000B093E01200000F900F900F900F90DF9163
:100C7000CF910895CF93DF9300D01F92CDB7DEB709
:100C800089837B836A8389818A3031F48A819B815D
:100C9000BC018DE00E943A0680EC90E0FC0180816E
:100CA000882F90E080729927892BB1F386EC90E031
:100CB0002981FC01208380E090E00F900F900F903D
:100CC000DF91CF9108950F931F93CF93DF931F92DE
:100CD000CDB7DEB71982A6C08981282F30E0C901BF
:100CE000880F991F820F931F880F991F880F991FD4
:100CF00085519B4EFC012081318142815381898144
:100D0000682F70E0CB01880F991F860F971F880FFF
:100D1000991F880F991F89519B4EFC0180819181F9
:100D2000A281B381281739074A075B0708F449C035
:100D30008981082F10E08981282F30E0C901880FB0
:100D4000991F820F931F880F991F880F991F815138
:100D50009B4EFC01408151818981282F30E0C901DF
:100D6000880F991F820F931F880F991F880F991F53
:100D70008B519B4EFC0180819181FA0109959C0168
:100D8000C801880F991F800F911F880F991F880F26
:100D9000991F8B519B4EFC01318320838981282F21
:100DA00030E0C901880F991F820F931F880F991F88
:100DB000880F991F85519B4EFC011082118212826F
:100DC00013828981682F70E08981282F30E0C90162
:100DD000880F991F820F931F880F991F880F991FE3
:100DE00085519B4EFC0180819181A281B38121E0DC
:100DF00030E040E050E0280F391F4A1F5B1FCB0155
:100E0000880F991F860F971F880F991F880F991FAA
:100E100085519B4EFC01208331834283538389811A
:100E20008F5F89838981282F30E086E090E0281742
:100E3000390708F451CF00000F90DF91CF911F9137
:100E40000F910895CF93DF9300D000D000D0CDB79D
:100E5000DEB79C838B837E836D831A8219821DC0CB
:100E60002B813C8189819A81820F931FFC014081F3
:100E70002D813E8189819A81820F931FFC0180819F
:100E8000242F282B89819A818150994DFC01208340
:100E900089819A8101969A83898389819A81883F81
:100EA0009140F0F28FEF96E226960FB6F894DEBFEF
:100EB0000FBECDBFDF91CF910895CF93DF9300D0C8
:100EC00000D0CDB7DEB79C838B838B819C81092EAC
:100ED000000CAA0BBB0B40E050E029E030E0841B83
:100EE000950B2817390708F461C28A5B9F4FFC01F4
:100EF0000C94671981E08093E41281E090E09C8378
:100F00008B8354C20E94A2038F70809327170E9484
:100F1000DC018F708093FC268091E412813091F582
:100F200080911B1D882371F580912717813029F44A
:100F300084E090E09C838B8301C2809127178230EC
:100F400029F485E090E09C838B83F8C1809127177A
:100F5000833029F483E090E09C838B83EFC1809100
:100F60002717843029F483E090E09C838B83E6C1CB
:100F700080912717883009F0E1C184E090E09C83DC
:100F80008B83DCC18091E412823091F580911B1D2E
:100F9000882371F580912717813029F485E090E04E
:100FA0009C838B83CDC180912717823029F485E003
:100FB00090E09C838B83C4C180912717863029F4ED
:100FC00082E090E09C838B83BBC1809127178730A0
:100FD00029F482E090E09C838B83B2C18091271733
:100FE000883009F0ADC185E090E09C838B83A8C177
:100FF0008091E412833091F580911B1D882371F557
:1010000080912717843029F483E090E09C838B83C0
:1010100099C180912717853029F483E090E09C8363
:101020008B8390C180912717863029F482E090E06D
:101030009C838B8387C180912717873029F484E0B4
:1010400090E09C838B837EC180912717883009F0C4
:1010500079C184E090E09C838B8374C18091E41219
:10106000843091F580911B1D882371F5809127179D
:10107000823029F485E090E09C838B8365C1809168
:101080002717833029F485E090E09C838B835CC133
:1010900080912717843029F483E090E09C838B8330
:1010A00053C180912717853029F482E090E09C831A
:1010B0008B834AC180912717863009F045C182E0B1
:1010C00090E09C838B8340C18091E412813009F0D1
:1010D00049C080911B1D813009F044C08091FC26DD
:1010E000823088F08091FC26853068F48091271743
:1010F000823020F080912717853028F089E090E039
:101100009C838B832EC080912717823088F080913A
:101110002717853068F48091FC26823020F080917A
:10112000FC26853028F088E090E09C838B8319C0F2
:1011300080912717823008F409C1809127178530E4
:1011400008F004C18091FC26823008F4FFC0809131
:10115000FC26853008F0FAC087E090E09C838B8302
:10116000F5C0F4C08091E412823009F049C080914A
:101170001B1D813009F044C08091FC26863088F028
:101180008091FC26893068F480912717863020F002
:1011900080912717893028F088E090E09C838B832A
:1011A0002EC080912717863088F0809127178930CC
:1011B00068F48091FC26863020F08091FC268930EE
:1011C00028F089E090E09C838B8319C080912717D9
:1011D000863008F4BDC080912717893008F0B8C068
:1011E0008091FC26863008F4B3C08091FC268930BB
:1011F00008F0AEC086E090E09C838B83A9C0A8C0B5
:101200008091E412833009F049C080911B1D813028
:1012100009F044C08091FC26823088F08091FC2641
:10122000853068F480912717823020F0809127174D
:10123000853028F087E090E09C838B832EC08091DE
:101240002717863088F080912717893068F48091BD
:10125000FC26863020F08091FC26893028F086E03C
:1012600090E09C838B8319C080912717863008F407
:1012700071C080912717893008F06CC08091FC26DE
:10128000823008F467C08091FC26853008F062C087
:1012900089E090E09C838B835DC05CC08091E41208
:1012A000843009F045C080911B1D813009F040C099
:1012B0008091FC26863088F08091FC26893068F485
:1012C00080912717863020F080912717893028F0E9
:1012D00086E090E09C838B832AC080912717823020
:1012E00088F080912717853068F48091FC26823041
:1012F00020F08091FC26853028F087E090E09C83E8
:101300008B8315C080912717823030F18091271789
:10131000853010F58091FC268630F0F08091FC2617
:101320008930D0F488E090E09C838B8315C014C092
:1013300088E290E021E0FC01208338C0000036C044
:10134000000034C0000032C0000030C000002EC0D9
:1013500000002CC000002AC0000028C081E090E0FE
:101360009C838B8323C081E090E09C838B831EC091
:1013700081E090E09C838B8319C081E090E09C83A6
:101380008B8314C081E090E09C838B830FC081E04D
:1013900090E09C838B830AC081E090E09C838B83E8
:1013A00005C081E090E09C838B8300008B819C8151
:1013B000092E000CAA0BBB0B40E050E029E030E006
:1013C000841B950B2817390708F473C1805B9F4F66
:1013D000FC010C9467198091E4128130F1F4809142
:1013E0001B1D8823D1F41A82198211C089819A8128
:1013F0008250974FFC01208189819A81885E944EAA
:10140000FC01208389819A8101969A83898389814D
:101410009A81883F914050F328C18091E412823034
:10142000F1F480911B1D8823D1F41A82198211C016
:1014300089819A818A5F984FFC01208189819A81F4
:10144000885E944EFC01208389819A8101969A835B
:10145000898389819A81883F914050F306C18091A8
:10146000E4128330F1F480911B1D8823D1F41A8299
:10147000198211C089819A818A5E9C4FFC0120816A
:1014800089819A81885E944EFC01208389819A81AA
:1014900001969A83898389819A81883F914050F38C
:1014A000E4C08091E4128430F1F480911B1D882304
:1014B000D1F41A82198211C089819A81825F9A4F70
:1014C000FC01208189819A81885E944EFC012083F1
:1014D00089819A8101969A83898389819A81883F3B
:1014E000914050F3C2C08091E412813061F5809147
:1014F0001B1D813041F51A8219821FC089819A8192
:101500008250974FFC01208189819A81825F9A4F96
:10151000FC018081282B89819A8182529F4EFC0197
:101520008081282B89819A81885E944EFC012083DA
:1015300089819A8101969A83898389819A81883FDA
:101540009140E0F292C08091E412823061F5809186
:101550001B1D813041F51A8219821FC089819A8131
:101560008A5F984FFC01208189819A818A5E9C4F15
:10157000FC018081282B89819A8182529F4EFC0137
:101580008081282B89819A81885E944EFC0120837A
:1015900089819A8101969A83898389819A81883F7A
:1015A0009140E0F262C08091E412833061F5809155
:1015B0001B1D813041F51A8219821FC089819A81D1
:1015C0008A5E9C4FFC01208189819A818250974FCD
:1015D000FC018081282B89819A8182529F4EFC01D7
:1015E0008081282B89819A81885E944EFC0120831A
:1015F00089819A8101969A83898389819A81883F1A
:101600009140E0F232C08091E412843009F050C081
:1016100080911B1D813009F04BC01A8219821FC0B6
:1016200089819A81825F9A4FFC01208189819A8108
:101630008A5F984FFC018081282B89819A81825290
:101640009F4EFC018081282B89819A81885E944E6F
:10165000FC01208389819A8101969A8389838981FB
:101660009A81883F9140E0F223C022C081E08093BC
:10167000E4121FC082E08093E4121BC084E08093D8
:10168000E41217C083E08093E41213C081E08093DA
:10169000E4120FC082E08093E4120BC083E08093D9
:1016A000E41207C084E08093E41203C0000001C08C
:1016B00000008B819C810F900F900F900F90DF9115
:1016C000CF910895CF93DF93CDB7DEB768970FB66C
:1016D000F894DEBF0FBECDBF988F8F8B8F89988D0A
:1016E000009719F0019731F00AC081E090E0988FDF
:1016F0008F8B05C081E090E0988F8F8B00008F89E1
:10170000988D009709F47FC2019709F07DC28091FE
:10171000E5128A3010F01092E5128091E6128630C0
:1017200010F01092E6129091E71280911C01981728
:1017300008F056C18091E612853009F051C18091C0
:10174000E7128F5F8093E7128091E712882F90E075
:1017500001978750994D2AE1FC0120838091E51281
:10176000882F90E08E5E9E4FFC018081813069F56C
:101770001A8219821AC08091E712882F90E001978F
:1017800029813A812A50354FF901408129813A81D6
:10179000220F331F820F931F885D984EFC014083F8
:1017A00089819A8101969A83898389819A81883F68
:1017B000914008F38091E712882F90E00197835DB4
:1017C0009A4E21E0FC01208306C18091E512882F0A
:1017D00090E08E5E9E4FFC018081823069F51C8214
:1017E0001B821AC08091E712882F90E001972B810D
:1017F0003C812251334FF90140812B813C81220FE2
:10180000331F820F931F885D984EFC0140838B81AC
:101810009C8101969C838B838B819C81883F914026
:1018200008F38091E712882F90E00197835D9A4E2C
:1018300022E0FC012083CFC08091E512882F90E048
:101840008E5E9E4FFC018081833009F06AC08FE379
:1018500090E09E838D838FE891E098878F831FC0EF
:101860008091E712882F90E001972F8138852251CF
:10187000334FF90140812D813E81220F331F820FAA
:10188000931F885D984EFC0140838D819E81019657
:101890009E838D838F819885019698878F838F8112
:1018A0009885883F9140E0F214C08091E712882F1C
:1018B00090E001972D813E81220F331F820F931FED
:1018C000885D984EFC0110828D819E8101969E83D9
:1018D0008D838D819E81883F914038F3198613C096
:1018E0008985282F30E08091E712882F90E00197BA
:1018F000220F331F820F931F885D984EFC011082C8
:1019000089858F5F89878985803450F38091E712BC
:10191000882F90E00197835D9A4E23E0FC0120839D
:101920005AC08091E512882F90E08E5E9E4FFC0198
:101930008081843009F04FC01B861A8680E591E0D3
:101940009D878C871FC08091E712882F90E00197B8
:101950002C853D852A50354FF90140812A853B85EC
:10196000220F331F820F931F885D984EFC01408326
:101970008A859B8501969B878A878C859D850196A4
:101980009D878C878C859D85893B9140E0F214C0B2
:101990008091E712882F90E001972A853B85220FDE
:1019A000331F820F931F885D984EFC0110828A8539
:1019B0009B8501969B878A878A859B85883F914076
:1019C00038F38091E712882F90E00197835D9A4E5B
:1019D00024E0FC0120838091E5128F5F8093E51263
:1019E0001E8698C08E85882F90E0835D9A4EFC01FC
:1019F0008081813049F08E85882F90E0835D9A4EFA
:101A0000FC018081843099F587EF91E0988B8F8776
:101A100029C08E85882F90E02F853889A9014150F3
:101A200051092E85222F30E0440F551F240F351FFA
:101A3000285D384EF90140812F853889220F331FE8
:101A4000820F931F885D984EFC0140838E85882FFE
:101A500090E0885D984EFC0110828F8598890197EF
:101A6000988B8F878F859889892B99F643C08E85AF
:101A7000882F90E0835D9A4EFC018081823049F08E
:101A80008E85882F90E0835D9A4EFC0180818330A3
:101A900089F51A8A198A29C08E85882F90E02989AC
:101AA0003A89A9014F5F5F4F2E85222F30E0440F06
:101AB000551F240F351F285D384EF90140812989B3
:101AC0003A89220F331F820F931F885D984EFC01C5
:101AD00040838E85882F90E08A5E944EFC011082B0
:101AE00089899A8901969A8B898B89899A89883FF5
:101AF000914090F28E85882F90E09C012750394DBF
:101B0000F901208121508750994DFC0120838E8559
:101B10008F5F8E878091E7129E85981708F462CFB9
:101B20008091F926882309F044C08091E712882328
:101B300009F43FC08091E112882349F48091E312B7
:101B4000882329F08091E31281508093E3128091E1
:101B5000FA268093F9268091E71281508093E7124C
:101B600080912E1580932D151C8A1B8A1DC08B8990
:101B70009C89880F991F875D984EFC0120818B8975
:101B80009C89880F991F885D984EFC0120838B8962
:101B90009C89880F991F875D984EFC0110828B8964
:101BA0009C8901969C8B8B8B8B899C89883F91406B
:101BB000F0F21E8A1D8A1CC08D899E89880F991F8C
:101BC000885D984EFC0120818D899E89880F991F20
:101BD000875D984EFC018081282B8D899E89815DCF
:101BE0009A4EFC0120838D899E8901969E8B8D8B58
:101BF0008D899E89883F9140F8F28091E6128F5F2F
:101C00008093E61201C000008F89988D68960FB608
:101C1000F894DEBF0FBECDBFDF91CF910895CF9373
:101C2000DF93CDB7DEB7EF970FB6F894DEBF0FBEE8
:101C3000CDBF9FAF8EAF8EAD9FAD8230910509F4C1
:101C400066C0833091052CF4009759F0019771F02C
:101C500099C08330910509F45FC0049709F461C00D
:101C600091C081E090E09FAF8EAF8CC080E290E0A9
:101C7000FC018081882F90E084709927892B69F47A
:101C80008091EA12853048F480911B1D882329F445
:101C900082E090E09FAF8EAF39C080E290E0FC011F
:101CA0008081882F90E080729927892B81F4809120
:101CB000EA12853060F480911B1D813041F482E08E
:101CC0008093FB2683E090E09FAF8EAF1FC080E241
:101CD00090E0FC018081882F90E084709927892B07
:101CE00081F48091EA12853060F480911B1D81306F
:101CF00041F481E08093FB2683E090E09FAF8EAFBC
:101D000005C081E090E09FAF8EAF3CC03BC084E057
:101D100090E09FAF8EAF36C084E090E09FAF8EAF73
:101D200031C080E290E0FC018081882F90E08470D7
:101D30009927892B51F080E290E0FC018081882F67
:101D400090E080729927892B79F48091E812909124
:101D5000E9120B9748F01092E9121092E81284E011
:101D600090E09FAF8EAF04C081E090E09FAF8EAF58
:101D70008091E8129091E91201969093E912809374
:101D8000E81200008EAD9FAD8230910509F4B2C11A
:101D90008330910534F4009709F443C6019729F084
:101DA00045C6039709F4D9C341C61982ACC08981DD
:101DB000882F90E08A5E924EFC018081823049F04B
:101DC0008981882F90E08A5E924EFC018081833069
:101DD000E9F587EF91E09B838A8333C08981482F9F
:101DE00050E08A819B819C01215031098981682FB3
:101DF00070E0C901880F991F880F991F820F931FE8
:101E0000860F971F8F5D924EFC0160812A813B8176
:101E1000C901880F991F880F991F820F931F840F84
:101E2000951F8F5D924EFC0160838981882F90E021
:101E30008F5D924EFC0110828A819B8101979B836A
:101E40008A838A819B81892B49F64DC08981882F9D
:101E500090E08A5E924EFC018081813049F0898158
:101E6000882F90E08A5E924EFC0180818430D9F503
:101E70001D821C8233C08981482F50E08C819D8156
:101E80009C012F5F3F4F8981682F70E0C901880F47
:101E9000991F880F991F820F931F860F971F8F5DC1
:101EA000924EFC0160812C813D81C901880F991FF0
:101EB000880F991F820F931F840F951F8F5D924E7D
:101EC000FC0160838981882F90E08C50994DFC0142
:101ED00010828C819D8101969D838C838C819D8154
:101EE000883F914040F28981882F90E09C01245ED8
:101EF000324EF90120812150845E924EFC012083F4
:101F000089818F5F89838091EA129981981708F4FB
:101F10004ECF80911C1D882309F091C08091EA1258
:101F2000882309F48CC081E08E8355C08E81882F70
:101F300090E001972E81222F30E0245E324EF9018D
:101F40002081845E924EFC0120838E81882F90E058
:101F500001972E81222F30E02A5E324EF901208136
:101F60008A5E924EFC01208318861F822CC08E81CF
:101F7000882F90E0AC01415051098E81682F70E0AC
:101F80002F813885C901880F991F880F991F820FEB
:101F9000931F860F971F8F5D924EFC0160812F81EA
:101FA0003885C901880F991F880F991F820F931FC9
:101FB000840F951F8F5D924EFC0160838F81988501
:101FC000019698878F838F819885883F914078F21A
:101FD0008E818F5F8E838E81853008F4A7CF8091AC
:101FE000EA12898722C01B861A8617C08985482F66
:101FF00050E02A853B85C901880F991F880F991FDA
:10200000820F931F840F951F8F5D924EFC011082EB
:102010008A859B8501969B878A878A859B85883FD1
:10202000914020F389858F5F898780911D01998573
:102030009817C8F28091EA1281508093EA121D86A7
:102040001C8651C02C853D85C901880F991F880FBA
:10205000991F820F931F8F5D924EFC0140812C854A
:102060003D85C901880F991F880F991F820F931F03
:102070008E5D924EFC018081482B2C853D85C901E7
:10208000880F991F880F991F820F931F8D5D924EA5
:10209000FC018081482B2C853D85C901880F991F43
:1020A000880F991F820F931F8C5D924EFC018081D7
:1020B000482B2C853D85C901880F991F880F991FD2
:1020C000820F931F8B5D924EFC018081242F282B61
:1020D0008C859D8583519D4EFC0120838C859D853B
:1020E00001969D878C878C859D85883F914008F45B
:1020F000A9CF9CC49091EA1280911D01981708F015
:1021000092C48091EA128F5F8093EA128091EA1262
:10211000882F90E00197845E924E2FE1FC0120838E
:102120008091E412843009F082C083E790E09F87B9
:102130008E8783E790E0998B888B26C08091EA1286
:10214000882F90E0AC014150510988899989825EBD
:102150009E4FFC0160812E853F85C901880F991F24
:10216000880F991F820F931F840F951F8F5D924ECA
:10217000FC0160838E859F8501969F878E87888965
:1021800099890196998B888B888999898B379105D4
:10219000A8F21BC08091EA12882F90E0AC01415058
:1021A00051092E853F85C901880F991F880F991FF6
:1021B000820F931F840F951F8F5D924EFC0110823A
:1021C0008E859F8501969F878E878E859F85883F08
:1021D000914000F31B8A1A8A1BC08091EA12882F53
:1021E00090E0AC01415051092A893B89C901880F0F
:1021F000991F880F991F820F931F840F951F8F5D62
:10220000924EFC0110828A899B8901969B8B8A8B56
:102210008A899B898337910500F38091EA12882F80
:1022200090E001978A5E924E24E0FC012083809129
:10223000E412833009F082C083E890E09D8B8C8BA0
:1022400083E890E09F8B8E8B26C08091EA12882FC6
:1022500090E0AC01415051098E899F89825E9E4F6A
:10226000FC0160812C893D89C901880F991F880F65
:10227000991F820F931F840F951F8F5D924EFC0153
:1022800060838C899D8901969D8B8C8B8E899F891B
:1022900001969F8B8E8B8E899F898B389105A8F232
:1022A0001BC08091EA12882F90E0AC014150510987
:1022B0002C893D89C901880F991F880F991F820FAA
:1022C000931F840F951F8F5D924EFC0110828C89A5
:1022D0009D8901969D8B8C8B8C899D89883F91402F
:1022E00000F3198E188E1BC08091EA12882F90E09F
:1022F000AC0141505109288D398DC901880F991FB2
:10230000880F991F820F931F840F951F8F5D924E28
:10231000FC011082888D998D0196998F888F888D08
:10232000998D8338910500F38091EA12882F90E00F
:1023300001978A5E924E23E0FC0120838091E41293
:10234000813009F082C08FE691E09B8F8A8F8FE603
:1023500091E09D8F8C8F26C08091EA12882F90E0AB
:10236000AC01415051098C8D9D8D825E9E4FFC01C8
:1023700060812A8D3B8DC901880F991F880F991F95
:10238000820F931F840F951F8F5D924EFC01608317
:102390008A8D9B8D01969B8F8A8F8C8D9D8D01964A
:1023A0009D8F8C8F8C8D9D8D87379140A8F21BC09F
:1023B0008091EA12882F90E0AC01415051092A8D9A
:1023C0003B8DC901880F991F880F991F820F931F9A
:1023D000840F951F8F5D924EFC0110828A8D9B8D1C
:1023E00001969B8F8A8F8A8D9B8D883F914000F349
:1023F0001F8E1E8E1BC08091EA12882F90E0AC01C8
:10240000415051092E8D3F8DC901880F991F880FAA
:10241000991F820F931F840F951F8F5D924EFC01B1
:1024200010828E8D9F8D01969F8F8E8F8E8D9F8DAA
:102430008F36914000F38091EA12882F90E0019747
:102440008A5E924E21E0FC0120838091E41282306A
:1024500009F0E9C28FE791E099A388A38FE791E0A3
:102460009BA38AA326C08091EA12882F90E0AC013A
:10247000415051098AA19BA1825E9E4FFC0160815F
:1024800028A139A1C901880F991F880F991F820FB0
:10249000931F840F951F8F5D924EFC01608388A16E
:1024A00099A1019699A388A38AA19BA101969BA3B8
:1024B0008AA38AA19BA187389140A8F21BC0809172
:1024C000EA12882F90E0AC014150510928A139A1AE
:1024D000C901880F991F880F991F820F931F840FBE
:1024E000951F8F5D924EFC01108288A199A10196E3
:1024F00099A388A388A199A1883F914000F31DA2C8
:102500001CA21BC08091EA12882F90E0AC014150C0
:1025100051092CA13DA1C901880F991F880F991F4E
:10252000820F931F840F951F8F5D924EFC011082C6
:102530008CA19DA101969DA38CA38CA19DA18F37F9
:10254000914000F38091EA12882F90E001978A5E13
:10255000924E22E0FC01208366C29091EA128091A3
:102560001D01981708F061C28091EA128F5F809375
:10257000EA128091EA12882F90E00197845E924ED1
:102580002FE1FC0120838091E412843029F08091B6
:10259000E412813009F089C08091FB26813009F076
:1025A00084C01092FB2683E790E09FA38EA383E76D
:1025B00090E099A788A726C08091EA12882F90E022
:1025C000AC014150510988A599A5825E9E4FFC013E
:1025D00060812EA13FA1C901880F991F880F991F03
:1025E000820F931F840F951F8F5D924EFC016083B5
:1025F0008EA19FA101969FA38EA388A599A5019660
:1026000099A788A788A599A58B379105A8F21BC023
:102610008091EA12882F90E0AC01415051092EA11F
:102620003FA1C901880F991F880F991F820F931F1F
:10263000840F951F8F5D924EFC0110828EA19FA189
:1026400001969FA38EA38EA19FA1883F914000F386
:102650001BA61AA61BC08091EA12882F90E0AC013D
:10266000415051092AA53BA5C901880F991F880F20
:10267000991F820F931F840F951F8F5D924EFC014F
:1026800010828AA59BA501969BA78AA78AA59BA5D0
:102690008337910500F38091EA12882F90E001972B
:1026A0008A5E924E24E0FC0120838091E412833004
:1026B00029F08091E412823009F089C08091FB26D4
:1026C000813009F084C01092FB2683E890E09DA73A
:1026D0008CA783E890E09FA78EA726C08091EA127E
:1026E000882F90E0AC01415051098EA59FA5825ED4
:1026F0009E4FFC0160812CA53DA5C901880F991F43
:10270000880F991F820F931F840F951F8F5D924E24
:10271000FC0160838CA59DA501969DA78CA78EA525
:102720009FA501969FA78EA78EA59FA58B38910583
:10273000A8F21BC08091EA12882F90E0AC014150B2
:1027400051092CA53DA5C901880F991F880F991F14
:10275000820F931F840F951F8F5D924EFC01108294
:102760008CA59DA501969DA78CA78CA59DA5883FAE
:10277000914000F319AA18AA1BC08091EA12882F71
:1027800090E0AC014150510928A939A9C901880F2D
:10279000991F880F991F820F931F840F951F8F5DBC
:1027A000924EFC01108288A999A9019699AB88AB39
:1027B00088A999A98338910500F38091EA12882F9E
:1027C00090E001978A5E924E23E0FC012083809185
:1027D000E412813029F08091E412833009F089C03D
:1027E0008091FB26823009F084C01092FB268FE690
:1027F00091E09BAB8AAB8FE691E09DAB8CAB26C0A2
:102800008091EA12882F90E0AC01415051098CA9C7
:102810009DA9825E9E4FFC0160812AA93BA9C90146
:10282000880F991F880F991F820F931F840F951F80
:102830008F5D924EFC0160838AA99BA901969BAB98
:102840008AAB8CA99DA901969DAB8CAB8CA99DA947
:1028500087379140A8F21BC08091EA12882F90E040
:10286000AC01415051092AA93BA9C901880F991F00
:10287000880F991F820F931F840F951F8F5D924EB3
:10288000FC0110828AA99BA901969BAB8AAB8AA9FD
:102890009BA9883F914000F31FAA1EAA1BC08091EC
:1028A000EA12882F90E0AC01415051092EA93FA9AE
:1028B000C901880F991F880F991F820F931F840FDA
:1028C000951F8F5D924EFC0110828EA99FA90196E3
:1028D0009FAB8EAB8EA99FA98F36914000F380915C
:1028E000EA12882F90E001978A5E924E21E0FC0167
:1028F00020838091E412823029F08091E4128430A8
:1029000009F093C08091FB26823009F08EC088E2E6
:1029100090E02FEFFC0120831092FB268FE791E0DF
:1029200099AF88AF8FE791E09BAF8AAF26C08091C7
:10293000EA12882F90E0AC01415051098AAD9BAD5D
:10294000825E9E4FFC01608128AD39ADC901880FC0
:10295000991F880F991F820F931F840F951F8F5DFA
:10296000924EFC01608388AD99AD019699AF88AF16
:102970008AAD9BAD01969BAF8AAF8AAD9BAD873880
:102980009140A8F21BC08091EA12882F90E0AC0120
:102990004150510928AD39ADC901880F991F880FE1
:1029A000991F820F931F840F951F8F5D924EFC011C
:1029B000108288AD99AD019699AF88AF88AD99AD79
:1029C000883F914000F31DAE1CAE1BC08091EA12FF
:1029D000882F90E0AC01415051092CAD3DADC901AB
:1029E000880F991F880F991F820F931F840F951FBF
:1029F0008F5D924EFC0110828CAD9DAD01969DAF16
:102A00008CAF8CAD9DAD8F37914000F38091EA1271
:102A1000882F90E001978A5E924E22E0FC0120838D
:102A200004C0000003C0000001C000008EAD9FADD7
:102A3000EF960FB6F894DEBF0FBECDBFDF91CF91FA
:102A40000895CF93DF93CDB7DEB72A970FB6F894EA
:102A5000DEBF0FBECDBF9A87898789859A8500978B
:102A600019F0019731F00AC081E090E09A878987D8
:102A700005C081E090E09A878987000089859A8562
:102A8000009709F48CC0019709F08AC01092E212F5
:102A90001A8219827EC01C821B8270C08B819C812D
:102AA0009C01220F331F89819A81820F931F885DB9
:102AB000984EFC0120818B819C8183519D4EFC01AD
:102AC00080818223882309F454C081E08093E2123C
:102AD00089819A81892B99F58091FA268093F9262C
:102AE0008091E71281508093E71280912E15809398
:102AF0002D151E821D821DC08D819E81880F991FFC
:102B0000875D984EFC0120818D819E81880F991FE1
:102B1000885D984EFC0120838D819E81880F991FCE
:102B2000875D984EFC0110828D819E8101969E8367
:102B30008D838D819E81883F9140F0F21AC08091F3
:102B4000E71281508093E71218861F820DC08F8193
:102B50009885880F991F875D984EFC0110828F81A0
:102B60009885019698878F838F819885883F9140BB
:102B700070F38B819C8101969C838B838B819C81DC
:102B8000883F914008F48ACF89819A8101969A837F
:102B9000898389819A81029708F47DCF01C0000062
:102BA00089859A852A960FB6F894DEBF0FBECDBFF1
:102BB000DF91CF910895CF93DF9300D0CDB7DEB7EB
:102BC0009A83898389819A818130910599F0823035
:102BD00091051CF4892B39F039C082309105E1F060
:102BE0000397F9F033C081E090E09A8389831092D3
:102BF000E3122CC08091E212882329F481E090E056
:102C00009A83898320C08091E2128130E1F482E0CE
:102C100090E09A83898317C083E090E09A83898348
:102C200015C08091E212813029F483E090E09A830C
:102C300089830BC08091E212882339F481E090E00F
:102C40009A83898302C0000001C0000089819A81B3
:102C50008130910531F082309105A4F0029741F066
:102C600014C08BE290E02091E312FC0120830DC0A0
:102C70008091E112882341F48091E3128F5F809369
:102C8000E31202C0000001C0000089819A810F9008
:102C90000F90DF91CF910895CF93DF9300D000D0B4
:102CA000CDB7DEB79C838B838B819C81813091056E
:102CB00089F0823091051CF4892B39F0ACC0823048
:102CC0009105D9F00397F1F0A6C081E090E09C83D4
:102CD0008B83A1C08091E112882329F481E090E0E8
:102CE0009C838B8397C08091E112813009F092C060
:102CF00082E090E09C838B838DC083E090E09C8396
:102D00008B8389C080E290E0FC018081882F90E075
:102D100084709927892B09F078C01092E1121A82E9
:102D2000198262C089819A81815D9A4EFC0110826C
:102D300089819A81880F991F885D984EFC011082C5
:102D400089819A81880F991F875D984EFC011082B6
:102D500089819A8183519D4EFC01108229813A819B
:102D6000C901880F991F880F991F820F931F8F5DCC
:102D7000924EFC01108229813A81C901880F991F66
:102D8000880F991F820F931F8E5D924EFC01108257
:102D900029813A81C901880F991F880F991F820FD5
:102DA000931F8D5D924EFC01108229813A81C901E9
:102DB000880F991F880F991F820F931F8C5D924E69
:102DC000FC01108229813A81C901880F991F880F5F
:102DD000991F820F931F8B5D924EFC011082898197
:102DE0009A8101969A83898389819A81883F91404B
:102DF00008F498CF1092E7121092EA121092E312A0
:102E000081E090E09C838B8306C083E090E09C830C
:102E10008B8301C000008B819C818130910531F052
:102E200082309105ACF0029771F013C06FE275E14A
:102E300088E19BE10E9422076DEE72E10E94220769
:102E40000E940E0106C086EE9EE00E940E0101C0A7
:102E500000008B819C810F900F900F900F90DF915D
:102E6000CF910895CF93DF931F92CDB7DEB781E264
:102E700090E0FC01108282E290E02FEFFC012083C1
:102E800084E290E02FEBFC01208387E290E02FEFBB
:102E9000FC01208388E290E0FC0110828AE290E04D
:102EA0002FEFFC0120838BE290E0FC01108219825D
:102EB0008981282F30E0C901880F991F820F931F45
:102EC000880F991F880F991F8B519B4EFC0111820F
:102ED00010828981282F30E0C901880F991F820F45
:102EE000931F880F991F880F991F9C0129513B4EF2
:102EF00084E690E0A0E0B0E0F90180839183A283B2
:102F0000B3838981282F30E0C901880F991F820F70
:102F1000931F880F991F880F991F85519B4EFC01A5
:102F200010821182128213828981282F30E0C90118
:102F3000880F991F820F931F880F991F880F991F61
:102F400081519B4E2DE537E0FC013183208389813F
:102F50008F5F89838981282F30E0C901880F991FED
:102F6000820F931F880F991F880F991F8B519B4EBB
:102F7000FC01118210828981282F30E0C901880F5D
:102F8000991F820F931F880F991F880F991F9C010B
:102F900029513B4E84EF91E0A0E0B0E0F90180833D
:102FA0009183A283B3838981282F30E0C901880FE0
:102FB000991F820F931F880F991F880F991F8551A2
:102FC0009B4EFC0110821182128213828981282F6C
:102FD00030E0C901880F991F820F931F880F991F36
:102FE000880F991F81519B4E22E63BE0FC01318303
:102FF000208389818F5F89838981282F30E0C901EF
:10300000880F991F820F931F880F991F880F991F90
:103010008B519B4EFC01118210828981282F30E058
:10302000C901880F991F820F931F880F991F880F5E
:10303000991F9C0129513B4E84E690E0A0E0B0E04E
:10304000F90180839183A283B3838981282F30E0A3
:10305000C901880F991F820F931F880F991F880F2E
:10306000991F85519B4EFC0110821182128213829E
:103070008981282F30E0C901880F991F820F931F83
:10308000880F991F880F991F81519B4E2FE03EE0BA
:10309000FC013183208389818F5F89838981282F77
:1030A00030E0C901880F991F820F931F880F991F65
:1030B000880F991F8B519B4EFC01118210828981D0
:1030C000282F30E0C901880F991F820F931F880FA6
:1030D000991F880F991F9C0129513B4E82E390E074
:1030E000A0E0B0E0F90180839183A283B38389815A
:1030F000282F30E0C901880F991F820F931F880F76
:10310000991F880F991F85519B4EFC0110821182D7
:10311000128213828981282F30E0C901880F991FFC
:10312000820F931F880F991F880F991F81519B4E03
:1031300021E235E1FC013183208389818F5F89831E
:103140008981282F30E0C901880F991F820F931FB2
:10315000880F991F880F991F8B519B4EFC0111827C
:1031600010828981282F30E0C901880F991F820FB2
:10317000931F880F991F880F991F9C0129513B4E5F
:1031800085E090E0A0E0B0E0F90180839183A28324
:10319000B3838981282F30E0C901880F991F820FDE
:1031A000931F880F991F880F991F85519B4EFC0113
:1031B00010821182128213828981282F30E0C90186
:1031C000880F991F820F931F880F991F880F991FCF
:1031D00081519B4E2BED35E1FC01318320838981A8
:1031E0008F5F89838981282F30E0C901880F991F5B
:1031F000820F931F880F991F880F991F8B519B4E29
:10320000FC01118210828981282F30E0C901880FCA
:10321000991F820F931F880F991F880F991F9C0178
:1032200029513B4E84E690E0A0E0B0E0F9018083B4
:103230009183A283B3838981282F30E0C901880F4D
:10324000991F820F931F880F991F880F991F85510F
:103250009B4EFC0110821182128213828981282FD9
:1032600030E0C901880F991F820F931F880F991FA3
:10327000880F991F81519B4E2CE436E1FC0131836C
:10328000208389818F5F898381E090E0A0E0B0E0B6
:10329000BC01CD010E940C060E9467050E949600A9
:1032A0000E944D010E948F0180E290E0FC0180812C
:1032B000882F90E080749927082E892F000C881F92
:1032C000990B000C881F991F80931B1DFFCFEE0FD9
:1032D000FF1F0024001C0BBE0790F691E02D0994FF
:0432E000F894FFCF90
:1032E4000100000000000002000000003A06000097
:1032F40000000402030103040102010302050000AB
:1033040000000000000000000000000000000000B9
:1033140000000000000000000000000000000000A9
:103324000000000000000000000000000000000099
:103334000000000000000000000000000000000089
:103344000000000000000000000000000000000079
:103354000000000000000000000000000000000069
:103364000000000000000000000000000000000059
:1033740000081C3E6B080808000000000000000064
:10338400000808086B3E1C08000000000000000054
:103394000000000000000000000000000000000029
:1033A4000000000000000000000000000000000019
:1033B4000000000000000000000000000000000009
:1033C40000000000000000000000000000000000F9
:1033D40000000000000000000000000000000000E9
:1033E40000000000000000000000000000000000D9
:1033F40000000000000000000000000000000000C9
:1034040000000000000000000000000000000000B8
:1034140000000000000000000000000000000000A8
:103424000000000000000000000000000000000098
:103434000000000000000000000000000000000088
:103444000000000000000000000000000000000078
:103454000000000000000000000000000000000068
:103464000000000000000000000000000010387C94
:10347400D610101000000000000000000010101012
:10348400D67C38100000000000000000000000009E
:103494000000000000000000000000000000000028
:1034A4000000000000000000000000000000000018
:1034B4000000000000000000000000000000000008
:1034C40000000000000000000000000000000000F8
:1034D40000000000000000000000000000000000E8
:1034E40000000000000000000000000000000000D8
:1034F40000000000000000000000000000000000C8
:1035040000000000000000000000000000000000B7
:10351400000000000000000000000000007C828227
:103524008282827C00000000000000000000000095
:103534000000000000000000000000000000000087
:103544000000000000000000000000000000000077
:103554000000000000000000000000000000000067
:103564000000000000000000000000000000000057
:1035740000000000FF2020200000000000000000E8
:103584000000000000000000000000000000000037
:103594000000000000000000000000000000000027
:1035A4000000000000000000000000000000000017
:1035B4000000000000000000000000000000000007
:1035C40000000000002010080F0810200000000078
:1035D40000000000000000000000000000000000E7
:1035E40000000000000000000000000000000000D7
:1035F40000000000000000000000000000000000C7
:1036040000000000000000000000000000000000B6
:1036140000000000000000000000000000000000A6
:103624000000000000000000000000000000000096
:103634000000000000000000000000000000000086
:103644000000000000000000000000000000000076
:103654000000000000000000000000000000000066
:103664000000000000000000000000000000000056
:103674000000000000000000000000000000000046
:103684000000000000000000000000000000000036
:103694000000000000000000000000000000000026
:1036A4000000000000000000000000000000000016
:1036B4000000000000000000000000000000000006
:1036C40000000000000000000000000000000000F6
:1036D40000000000000000000000000000000000E6
:1036E40000000000000000000000000000000000D6
:1036F40000000000000000000000000000000000C6
:1037040000000000000000000000000000000000B5
:1037140000000000007C82828282827C0000000023
:103724000000000000000000000000000000000095
:103734000000000000000000000000000000000085
:103744000000000000000000000000000000000075
:103754000000000000000000000000000000000065
:10376400000000000000000000202020FF000000F6
:103774000000000000000000000000000000000045
:103784000000000000000000000000000000000035
:103794000000000000000000000000000000000025
:1037A4000000000000000000000000000000000015
:1037B40000000000000000000000000000201008CD
:1037C4000F081020000000000000000000000000AE
:1037D40000000000000000000000000000000000E5
:1037E40000000000000000000000000000000000D5
:1037F40000000000000000000000000000000000C5
:1038040000000000000000000000000000000000B4
:103A0400000000000000000000F00808080808F0AA
:103A140000000000000000000000000000000000A2
:103A24000000000000000000000000000000000092
:103A34000000000000000000000000000000000082
:103A44000000000000000000000000000000000072
:103A5400000000000000000000000000000102025D
:103A6400FE828281000000000000000000000000CF
:103A74000000000000000000000000000000000042
:103A84000000000000000000000000000000000032
:103A94000000000000000000000000000000000022
:103AA4000000000000000000000000000000000012
:103AB400008040203F204080000000000000000003
:103AC40000000000000000000000000000000000F2
:103AD40000000000000000000000000000000000E2
:103AE40000000000000000000000000000000000D2
:103AF40000000000000000000000000000000000C2
:103B040000000000000000000000000000000000B1
:103B140000000000000000000000000000000000A1
:103B24000000000000000000000000000000000091
:103B34000000000000000000000000000000000081
:103B44000000000000000000000000000000000071
:103B54000000000000000000000000000000000061
:103B64000000000000000000000000000000000051
:103B74000000000000000000000000000000000041
:103B84000000000000000000000000000000000031
:103B94000000000000000000000000000000000021
:103BA4000000000000000000000000000000000011
:103BB4000000000000000000000000000000000001
:103BC40000000000000000000000000000000000F1
:103BD40000000000000000000000000000000000E1
:103BE40000000000000000000000000000000000D1
:103BF40000000000000000000000000000000000C1
:103C040000F00808080808F00000000000000000A8
:103C140000000000000000000000000000000000A0
:103C24000000000000000000000000000000000090
:103C34000000000000000000000000000000000080
:103C44000000000000000000000000000000000070
:103C54000000000000818282FE02020100000000D8
:103C64000000000000000000000000000000000050
:103C74000000000000000000000000000000000040
:103C84000000000000000000000000000000000030
:103C94000000000000000000000000000000000020
:103CA4000000000000000000008040203F20408011
:103CB4000000000000000000000000000000000000
:103CC40000000000000000000000000000000000F0
:103CD40000000000000000000000000000000000E0
:103CE40000000000000000000000000000000000D0
:103CF40000000000000000000000000000000000C0
:103D040000000000000000000000000000000000AF
:103D1400000000000000000000000000000000009F
:103D2400000000000000000000000000000000008F
:103D3400000000000000000000000000000000007F
:103D4400000000000000000000000000000000006F
:103D5400000000000000000000000000000000005F
:103D6400000000000000000000000000000000004F
:103D7400000000000000000000000000000000003F
:103D8400000000000000000000000000000000002F
:103D9400000000000000000000000000000000001F
:103DA400000000000000000000000000000000000F
:103DB40000000000000000000000000000000000FF
:103DC40000000000000000000000000000000000EF
:103DD40000000000000000000000000000000000DF
:103DE40000000000000000000000000000000000CF
:103DF40000000000000000000000000000000000BF
:103E040000000000000000000000000000000000AE
:103E1400000000000000000000000000000000009E
:103E24000000000000000000804020108844442866
:103E3400102040408080800000000000000000004E
:103E4400000000000000000000000000000000006E
:103E5400000000000000000000000000000000005E
:103E6400000000000000000000000000000000004E
:103E740000000000000000000000081609001F21D7
:103E840040808086A0A0A0A086808043221C0000E1
:103E9400000000000000000000000000000000001E
:103EA400000000000000000000000000000000000E
:103EB40000000000000000000000000000000000FE
:103EC40000000000000000000000000000000000EE
:103ED40000000000000000000000000000000000DE
:103EE40000000000000000000000000000000000CE
:103EF40000000000000000000000000000000000BE
:103F040000000000000000000000000000000000AD
:103F1400000000000000000000000000000000009D
:103F2400000000000000000000000000000000008D
:103F3400000000000000000000000000000000007D
:103F4400000000000000000000000000000000006D
:103F5400000000000000000000000000000000005D
:103F6400000000000000000000000000000000004D
:103F7400000000000000000000000000000000003D
:103F8400000000000000000000000000000000002D
:103F9400000000000000000000000000000000001D
:103FA400000000000000000000000000000000000D
:103FB40000000000000000000000000000000000FD
:103FC40000000000000000000000000000000000ED
:103FD40000000000000000000000000000000000DD
:103FE40000000000000000000000000000000000CD
:103FF40000000000000000000000000000000000BD
:1040040000000000000000000000000000000000AC
:10401400000000000000000000000000000000009C
:10402400000000000000000000000000000000008C
:10403400000000000000000000000000000000007C
:10404400000000000000000000000000000000006C
:10405400000000000000000000000000000000005C
:1040640000808080404020102844448810204080F4
:10407400000000000000000000000000000000003C
:10408400000000000000000000000000000000002C
:10409400000000000000000000000000000000001C
:1040A400000000000000000000000000000000000C
:1040B40000001C2243808086A0A0A0A086808040AF
:1040C400211F000916080000000000000000000085
:1040D40000000000000000000000000000000000DC
:1040E40000000000000000000000000000000000CC
:1040F40000000000000000000000000000000000BC
:1041040000000000000000000000000000000000AB
:10411400000000000000000000000000000000009B
:10412400000000000000000000000000000000008B
:1041340000F80C0602622222E6000010909090F033
:104144000000E030101010E0101010F00000C0F07B
:10415400909090F06000000000000000000000005B
:10416400000000000000000000000000000000004B
:10417400000000000000000000000000000000003B
:104184000000000000010306040404060300000705
:1041940004040407000007000000000700000007F3
:1041A40000000103040404040400000000000000F3
:1041B40000000000000000000000000000000000FB
:1041C40000000000000000000000000000000000EB
:1041D40000000000000000000000000080C060201B
:1041E400202060C0800000000000000000000000EB
:1041F400000000000000000000000000F0F00000DB
:1042040000000000000000000000000000000000AA
:10421400000000000000000000000000000000009A
:10422400000000000000000000000000000000008A
:104234001F306040404060301F00030F78603C072F
:10424400001C3F4949494F4600007E03010100001C
:104254006F6F00000000000000000000000000007C
:10426400000000000000000000000000000000004A
:10427400000000000000000000000000000000003A
:10428400000000000000000000000000000000002A
:10429400000000000000000000000000000000001A
:1042A400000000000000000000000000000000000A
:1042B40000000000000000000000000000000000FA
:1042C40000000000000000000000000000000000EA
:1042D40000000000000000000000000000000000DA
:1042E4000000000000000000380000000000000092
:1042F40000000000000000000000000000000000BA
:1043040000000000000000000000000000000000A9
:104314000000000000000000000000000000000099
:104324000000000000000000000000000000000089
:104334000000000000000000000000000000000079
:104344000000000000000000000000000000000069
:104354000000000000000000000000000000000059
:104364000000000000000000000000000000000049
:104374000000000000000000000000000000000039
:104384000000000000000000000000000000000029
:104394000000000000000000000000000000000019
:1043A4000000000000000000000000000000000009
:1043B40000000000000000000000000000000000F9
:1043C40000000000000000000000000000000000E9
:1043D40000000000000000000000000000000000D9
:1043E400000000E000E00000000000000000000009
:1043F40000000000000000000000000000000000B9
:1044040000000000000000000000000000000000A8
:104414000000000000000000000000000000000098
:104424000000000000000000000000000000000088
:104434000000000000000000000000000000000078
:104444000000000000000000000000000000000068
:104454000000000000000000000000000000000058
:104464000000000000000000000000000000000048
:104474000000000000000000000000000000000038
:104484000000000000000000000000000000000028
:104494000000000000000000000000000000000018
:1044A4000000000000000000000000000000000008
:0C44B400000000000000010000000600F5
:00000001FF
