:100000000C9446000C9465000C9465000C946500FB
:100010000C9465000C9465000C9465000C946500CC
:100020000C9465000C9465000C9465000C946500BC
:100030000C9465000C94D0030C9465000C9465003E
:100040000C9465000C9465000C9465000C9465009C
:100050000C9465000C9465000C9465000C9465008C
:100060000C9465000C9465000C9465000C9465007C
:100070000C9465000C9465000C9465000C9465006C
:100080000C9465000C9465000C94650011241FBE4F
:10009000CFEFD0E4DEBFCDBF10E1A0E0B1E0E6EDF0
:1000A000F5E200E00BBF02C007900D92A43EB1073D
:1000B000D9F726E2A4EEB0E101C01D92A93FB20734
:1000C000E1F70E94C6100C94E9120C940000CF9343
:1000D000DF931F92CDB7DEB789838EE490E029814C
:1000E000FC012083000000008DE490E0FC01808191
:1000F0008823D4F78EE490E0FC0180810F90DF919B
:10010000CF910895CF93DF93CDB7DEB78CE490E025
:10011000FC0110828CE490E02CE430E0F9012081B5
:100120002065FC0120830000DF91CF910895CF93DB
:10013000DF93CDB7DEB78CE490E0FC0110828CE455
:1001400090E02CE430E0F90120812064FC01208360
:100150000000DF91CF910895CF93DF9300D0CDB70A
:10016000DEB71A82198208C080E00E946700898188
:100170009A8101969A83898389819A81883F9140E7
:1001800098F385E290E023E230E0F90120812B7FB3
:10019000FC01208380E40E94670080E80E946700E1
:1001A00085E290E023E230E0F90120812460FC0147
:1001B000208300000F900F90DF91CF910895CF938F
:1001C000DF9300D0CDB7DEB71A82198208C08FEF57
:1001D0000E94670089819A8101969A838983898127
:1001E0009A81883F914098F300000F900F90DF9123
:1001F000CF910895CF93DF9300D000D0CDB7DEB775
:100200009C838B831A8219820FC02B813C81898148
:100210009A81820F931FFC0180810E94670089816F
:100220009A8101969A83898389819A81883F914036
:1002300060F385E290E023E230E0F90120812B7F3A
:10024000FC01208380E40E94670080E80E94670030
:1002500085E290E023E230E0F90120812460FC0196
:10026000208300000F900F900F900F90DF91CF919F
:100270000895CF93DF93CDB7DEB785E290E023E218
:1002800030E0F9012081207FFC01208385E290E0AD
:1002900023E230E0F90120812260FC01208381E229
:1002A0000E94670088EC0E94670080E20E9467005D
:1002B0008CE00E94670085E290E023E230E0F901E3
:1002C00020812460FC0120830E94AC000000DF91AB
:1002D000CF910895CF93DF93CDB7DEB78AE790E053
:1002E0002AE730E0F90120812468FC012083000026
:1002F000DF91CF910895CF93DF93CDB7DEB70E9402
:100300006A018CE790E021E0FC0120838AE790E01D
:100310002AE730E0F90120812064FC0120830000FD
:100320008AE790E0FC018081882F90E08074992713
:10033000892BB1F788E790E0FC018081918190934F
:10034000F8268093F7268CE790E0FC0110828AE77C
:1003500090E02AE730E0F90120812064FC0120834D
:1003600000008AE790E0FC018081882F90E0807493
:100370009927892BB1F788E790E0FC018081918172
:100380009093FE248093FD240000DF91CF91089587
:10039000CF93DF931F92CDB7DEB78CE790E021E0DB
:1003A000FC0120838AE790E02AE730E0F901208110
:1003B0002064FC01208300008AE790E0FC0180813A
:1003C000882F90E080749927892BB1F788E790E017
:1003D000FC01808191819093181B8093171B8CE7FF
:1003E00090E0FC0110828AE790E02AE730E0F90112
:1003F00020812064FC01208300008AE790E0FC015A
:100400008081882F90E080749927892BB1F788E745
:1004100090E0FC01808191819093F4108093F3101F
:100420008091F7269091F8269C012E5F3F4F809196
:10043000171B9091181B2817390760F18091F72638
:100440009091F8269C01225031098091171B9091C0
:10045000181B82179307F0F08091FD249091FE24E1
:100460009C012E5F3F4F8091F3109091F41028175C
:10047000390780F08091FD249091FE249C01225048
:1004800031098091F3109091F4108217930710F0C6
:10049000198231C18091F7269091F8269C012E5F38
:1004A0003F4F8091171B9091181B28173907F8F4BC
:1004B0008091FD249091FE249C012E5F3F4F8091FE
:1004C000F3109091F4102817390788F08091FD24DB
:1004D0009091FE249C01225031098091F31090915B
:1004E000F4108217930718F081E0898304C180918A
:1004F000F7269091F8269C012E5F3F4F8091171BA5
:100500009091181B2817390788F48091FD24909149
:10051000FE249C01225031098091F3109091F41037
:100520008217930718F482E08983E5C08091F7264B
:100530009091F8269C012E5F3F4F8091171B909160
:10054000181B28173907F8F08091F7269091F826A4
:100550009C01225031098091171B9091181B821722
:10056000930788F08091FD249091FE249C012250F5
:1005700031098091F3109091F4108217930718F4C9
:1005800083E08983B8C08091F7269091F8269C017A
:10059000225031098091171B9091181B82179307E5
:1005A00088F48091FD249091FE249C012250310911
:1005B0008091F3109091F4108217930718F484E05F
:1005C000898399C08091F7269091F8269C0122504A
:1005D00031098091171B9091181B82179307F8F42B
:1005E0008091FD249091FE249C012E5F3F4F8091CD
:1005F000F3109091F4102817390788F08091FD24AA
:100600009091FE249C01225031098091F310909129
:10061000F4108217930718F085E089836CC08091ED
:10062000F7269091F8269C01225031098091171BE2
:100630009091181B8217930788F48091FD24909164
:10064000FE249C012E5F3F4F8091F3109091F41097
:100650002817390718F486E089834DC08091F72662
:100660009091F8269C012E5F3F4F8091171B90912F
:10067000181B28173907F8F08091F7269091F82673
:100680009C01225031098091171B9091181B8217F1
:10069000930788F08091FD249091FE249C012E5FA9
:1006A0003F4F8091F3109091F4102817390718F4F8
:1006B00087E0898320C08091F7269091F8269C01DD
:1006C0002E5F3F4F8091171B9091181B28173907F9
:1006D00088F48091FD249091FE249C012E5F3F4F71
:1006E0008091F3109091F4102817390718F488E0DE
:1006F000898301C0198280E290E0FC018081882F0B
:1007000090E084709927892B19F48981806189830D
:1007100089810F90DF91CF910895CF93DF93CDB76B
:10072000DEB781E890E02BE0FC01208388E890E0D0
:100730002DE730E0FC01318320838FE690E022E05A
:10074000FC01208384E890E0FC01118210828091FA
:10075000000190910101A0910201B09103018093E9
:10076000E5109093E610A093E710B093E8108FE5A2
:1007700090E02FE530E0F90120812068FC01208322
:100780000000DF91CF910895CF93DF93CDB7DEB70F
:1007900081E890E0FC0110820000DF91CF91089584
:1007A0001F920F9200905F000F92112400905B0047
:1007B0000F922F933F934F935F936F937F938F93FA
:1007C0009F93AF93BF93EF93FF93CF93DF93CDB7F7
:1007D000DEB78091E5109091E610A091E710B091FE
:1007E000E8100197A109B1098093E5109093E610F4
:1007F000A093E710B093E8108091E5109091E61077
:10080000A091E710B091E810892B8A2B8B2B91F4E3
:100810000E9489048091000190910101A091020140
:10082000B09103018093E5109093E610A093E71038
:10083000B093E8100000DF91CF91FF91EF91BF914D
:10084000AF919F918F917F916F915F914F913F9168
:100850002F910F9000925B000F9000925F000F901D
:100860001F901895CF93DF9300D000D0CDB7DEB79F
:1008700069837A838B839C8389819A81AB81BC81D4
:100880008093000190930101A0930201B0930301B2
:100890008091000190910101A0910201B0910301AA
:1008A0008093E5109093E610A093E710B093E810C2
:1008B00000000F900F900F900F90DF91CF9108954F
:1008C000CF93DF9300D01F92CDB7DEB789837B83B0
:1008D0006A8389818A3031F48A819B81BC018DE0F1
:1008E0000E94600480EC90E0FC018081882F90E001
:1008F00080729927892BB1F386EC90E02981FC0165
:10090000208380E090E00F900F900F90DF91CF91C7
:1009100008950F931F93CF93DF931F92CDB7DEB748
:100920001982A6C08981282F30E0C901880F991F3C
:10093000820F931F880F991F880F991F8D509D4E0E
:10094000FC0120813181428153818981682F70E0CF
:10095000CB01880F991F860F971F880F991F880F4B
:10096000991F81519D4EFC0180819181A281B381AB
:10097000281739074A075B0708F449C08981082FFF
:1009800010E08981282F30E0C901880F991F820F5C
:10099000931F880F991F880F991F89509D4EFC0146
:1009A000408151818981282F30E0C901880F991F2A
:1009B000820F931F880F991F880F991F83519D4E97
:1009C000FC0180819181FA0109959C01C801880F81
:1009D000991F800F911F880F991F880F991F8351AE
:1009E0009D4EFC01318320838981282F30E0C9018D
:1009F000880F991F820F931F880F991F880F991FC7
:100A00008D509D4EFC0110821182128213828981C9
:100A1000682F70E08981282F30E0C901880F991F65
:100A2000820F931F880F991F880F991F8D509D4E1D
:100A3000FC0180819181A281B38121E030E040E01E
:100A400050E0280F391F4A1F5B1FCB01880F991FE9
:100A5000860F971F880F991F880F991F8D509D4EE5
:100A6000FC01208331834283538389818F5F898393
:100A70008981282F30E086E090E02817390708F4B4
:100A800051CF00000F90DF91CF911F910F910895EA
:100A9000CF93DF9300D000D000D0CDB7DEB79C83DA
:100AA0008B837E836D831A8219821DC02B813C81CA
:100AB00089819A81820F931FFC0140812D813E81A3
:100AC00089819A81820F931FFC018081242F282B1A
:100AD00089819A8181509B4DFC01208389819A8173
:100AE00001969A83898389819A81883F9140F0F2A7
:100AF0008FEF94E226960FB6F894DEBF0FBECDBFFF
:100B0000DF91CF910895CF93DF9300D000D0CDB780
:100B1000DEB79C838B838B819C818230910509F4A5
:100B200051C1833091052CF4009779F00197A9F019
:100B30005EC18430910509F44FC1843091050CF4F5
:100B400046C1059709F44DC152C181E08093EC1074
:100B500081E090E09C838B834AC18091EC108130CE
:100B600009F047C00E94C801082E000C990B8F7035
:100B70009927019729F484E090E09C838B8336C108
:100B80000E94C801082E000C990B8F7099270297BC
:100B900029F485E090E09C838B8328C10E94C801E2
:100BA000082E000C990B8F709927039729F483E086
:100BB00090E09C838B831AC10E94C801082E000C10
:100BC000990B8F709927049729F483E090E09C8318
:100BD0008B830CC10E94C801082E000C990B8F70EA
:100BE0009927089709F002C184E090E09C838B83E9
:100BF000FDC08091EC10823009F047C00E94C8010E
:100C0000082E000C990B8F709927019729F485E025
:100C100090E09C838B83EAC00E94C801082E000CE0
:100C2000990B8F709927029729F485E090E09C83B7
:100C30008B83DCC00E94C801082E000C990B8F70BA
:100C40009927069729F482E090E09C838B83CEC09D
:100C50000E94C801082E000C990B8F7099270797E6
:100C600029F482E090E09C838B83C0C00E94C8017D
:100C7000082E000C990B8F709927089709F0B6C0C1
:100C800085E090E09C838B83B1C08091EC10833031
:100C900009F047C00E94C801082E000C990B8F7004
:100CA0009927049729F483E090E09C838B839EC06E
:100CB0000E94C801082E000C990B8F709927059788
:100CC00029F483E090E09C838B8390C00E94C8014C
:100CD000082E000C990B8F709927069729F482E053
:100CE00090E09C838B8382C00E94C801082E000C78
:100CF000990B8F709927079729F484E090E09C83E3
:100D00008B8374C00E94C801082E000C990B8F7051
:100D10009927089709F06AC084E090E09C838B8350
:100D200065C08091EC10843009F046C00E94C80173
:100D3000082E000C990B8F709927029729F485E0F3
:100D400090E09C838B8352C00E94C801082E000C47
:100D5000990B8F709927039729F485E090E09C8385
:100D60008B8344C00E94C801082E000C990B8F7021
:100D70009927049729F483E090E09C838B8336C005
:100D80000E94C801082E000C990B8F7099270597B7
:100D900029F482E090E09C838B8328C00E94C801E4
:100DA000082E000C990B8F7099270697F9F482E0B2
:100DB00090E09C838B831AC088E290E021E0FC01E4
:100DC000208314C081E090E09C838B8310C081E07D
:100DD00090E09C838B830BC081E090E09C838B83AD
:100DE00006C081E090E09C838B8301C000008B8172
:100DF0009C818230910509F48DC08330910534F4D3
:100E0000009709F497C0019769F097C08430910565
:100E100009F488C0843091050CF480C0059709F46A
:100E200085C08BC08091EC108130D1F41A82198278
:100E300011C089819A818250974FFC01208189815C
:100E40009A81815E964EFC01208389819A81019668
:100E50009A83898389819A81883F914050F36CC03D
:100E60008091EC108230D1F41A82198211C08981EC
:100E70009A818A5F984FFC01208189819A81815EE5
:100E8000964EFC01208389819A8101969A838983F9
:100E900089819A81883F914050F34EC08091EC1037
:100EA0008330D1F41A82198211C089819A818A5EB5
:100EB0009C4FFC01208189819A81815E964EFC01C4
:100EC000208389819A8101969A83898389819A8175
:100ED000883F914050F330C08091EC10843061F530
:100EE0001A82198211C089819A81825F9A4FFC010E
:100EF000208189819A81815E964EFC0120838981BF
:100F00009A8101969A83898389819A81883F914049
:100F100050F312C081E08093EC100FC082E0809308
:100F2000EC100BC084E08093EC1007C083E080934A
:100F3000EC1003C0000001C000008B819C810F9069
:100F40000F900F900F90DF91CF910895CF93DF9383
:100F5000CDB7DEB768970FB6F894DEBF0FBECDBF32
:100F6000988F8F8B8F89988D009719F0019731F0AA
:100F70000AC081E090E0988F8F8B05C081E090E0FF
:100F8000988F8F8B00008F89988D009709F475C218
:100F9000019709F073C28091ED108A3010F0109221
:100FA000ED108091EE10863010F01092EE109091BE
:100FB000EF1080911C01981708F056C18091EE1037
:100FC000853009F051C18091EF108F5F8093EF1051
:100FD0008091EF10882F90E0019785509B4D2AE17A
:100FE000FC0120838091ED10882F90E08E5E9E4F53
:100FF000FC018081813069F51A8219821AC08091C2
:10100000EF10882F90E0019729813A812A50354FBF
:10101000F901408129813A81220F331F820F931FEA
:10102000815D9A4EFC01408389819A8101969A8361
:10103000898389819A81883F914008F38091EF10DC
:10104000882F90E001978B5C9C4E21E0FC0120836F
:1010500006C18091ED10882F90E08E5E9E4FFC01BE
:101060008081823069F51C821B821AC08091EF104A
:10107000882F90E001972B813C812251334FF90159
:1010800040812B813C81220F331F820F931F815D92
:101090009A4EFC0140838B819C8101969C838B83BB
:1010A0008B819C81883F914008F38091EF10882FBD
:1010B00090E001978B5C9C4E22E0FC012083CFC026
:1010C0008091ED10882F90E08E5E9E4FFC01808114
:1010D000833009F06AC08FE390E09E838D838FE8B0
:1010E00091E098878F831FC08091EF10882F90E048
:1010F00001972F8138852251334FF90140812D818D
:101100003E81220F331F820F931F815D9A4EFC0197
:1011100040838D819E8101969E838D838F819885EA
:10112000019698878F838F819885883F9140E0F260
:1011300014C08091EF10882F90E001972D813E819F
:10114000220F331F820F931F815D9A4EFC01108284
:101150008D819E8101969E838D838D819E81883FA6
:10116000914038F3198613C08985282F30E080918B
:10117000EF10882F90E00197220F331F820F931FEB
:10118000815D9A4EFC01108289858F5F89878985F0
:10119000803450F38091EF10882F90E001978B5CA2
:1011A0009C4E23E0FC0120835AC08091ED10882FD3
:1011B00090E08E5E9E4FFC018081843009F04FC02C
:1011C0001B861A8680E591E09D878C871FC08091E1
:1011D000EF10882F90E001972C853D852A50354FE0
:1011E000F90140812A853B85220F331F820F931F0F
:1011F000815D9A4EFC0140838A859B8501969B8781
:101200008A878C859D8501969D878C878C859D8599
:10121000893B9140E0F214C08091EF10882F90E05C
:1012200001972A853B85220F331F820F931F815D13
:101230009A4EFC0110828A859B8501969B878A873E
:101240008A859B85883F914038F38091EF10882FE5
:1012500090E001978B5C9C4E24E0FC012083809100
:10126000ED108F5F8093ED101E8698C08E85882FBD
:1012700090E08B5C9C4EFC018081813049F08E8532
:10128000882F90E08B5C9C4EFC018081843099F526
:1012900087EF91E0988B8F8729C08E85882F90E00B
:1012A0002F853889A901415051092E85222F30E020
:1012B000440F551F240F351F215D3A4EF90140811F
:1012C0002F853889220F331F820F931F815D9A4E1D
:1012D000FC0140838E85882F90E0815D9A4EFC0151
:1012E00010828F8598890197988B8F878F85988931
:1012F000892B99F643C08E85882F90E08B5C9C4E9D
:10130000FC018081823049F08E85882F90E08B5CD3
:101310009C4EFC018081833089F51A8A198A29C084
:101320008E85882F90E029893A89A9014F5F5F4F08
:101330002E85222F30E0440F551F240F351F215DCD
:101340003A4EF901408129893A89220F331F820FD1
:10135000931F815D9A4EFC0140838E85882F90E01B
:10136000835E964EFC01108289899A8901969A8B38
:10137000898B89899A89883F914090F28E85882F40
:1013800090E09C0125503B4DF90120812150855072
:101390009B4DFC0120838E858F5F8E878091EF109F
:1013A0009E85981708F462CF8091FB248823D9F595
:1013B0008091EF108823B9F18091EB1081508093D8
:1013C000EB108091FC248093FB248091EF108150DE
:1013D0008093EF1080913613809335131C8A1B8AFB
:1013E0001DC08B899C89880F991F805D9A4EFC01D6
:1013F00020818B899C89880F991F815D9A4EFC0101
:1014000020838B899C89880F991F805D9A4EFC01EF
:1014100010828B899C8901969C8B8B8B8B899C89F4
:10142000883F9140F0F21E8A1D8A1CC08D899E89DA
:10143000880F991F815D9A4EFC0120818D899E89BC
:10144000880F991F805D9A4EFC018081282B8D8921
:101450009E89895C9C4EFC0120838D899E89019622
:101460009E8B8D8B8D899E89883F9140F8F280916B
:10147000EE108F5F8093EE1001C000008F89988D71
:1014800068960FB6F894DEBF0FBECDBFDF91CF9147
:101490000895CF93DF93CDB7DEB7A7970FB6F89433
:1014A000DEBF0FBECDBF9FA38EA38EA19FA18130B3
:1014B000910589F0823091051CF4892B39F04FC0D9
:1014C0008230910501F1039719F149C081E090E064
:1014D0009FA38EA344C080E290E0FC018081882F0E
:1014E00090E084709927892B49F48091F21085301F
:1014F00028F482E090E09FA38EA331C081E090E0C9
:101500009FA38EA32CC083E090E09FA38EA327C04F
:1015100080E290E0FC018081882F90E08470992720
:10152000892B79F48091F0109091F1100B9748F08D
:101530001092F1101092F01083E090E09FA38EA320
:1015400004C081E090E09FA38EA38091F010909161
:10155000F11001969093F1108093F01000008EA18D
:101560009FA18130910541F0823091050CF4DCC3DC
:10157000029709F4A6C1DBC31982ACC08981882F08
:1015800090E0875E944EFC018081823049F0898131
:10159000882F90E0875E944EFC0180818330E9F5CE
:1015A00087EF91E09B838A8333C08981482F50E085
:1015B0008A819B819C01215031098981682F70E0CB
:1015C000C901880F991F880F991F820F931F860FDB
:1015D000971F8D5D944EFC0160812A813B81C9017A
:1015E000880F991F880F991F820F931F840F951FD3
:1015F0008D5D944EFC0160838981882F90E08D5D24
:10160000944EFC0110828A819B8101979B838A837F
:101610008A819B81892B49F64DC08981882F90E072
:10162000875E944EFC018081813049F08981882F4A
:1016300090E0875E944EFC0180818430D9F51D8254
:101640001C8233C08981482F50E08C819D819C0190
:101650002F5F3F4F8981682F70E0C901880F991F64
:10166000880F991F820F931F860F971F8D5D944ED1
:10167000FC0160812C813D81C901880F991F880F71
:10168000991F820F931F840F951F8D5D944EFC014F
:1016900060838981882F90E08A509B4DFC011082E5
:1016A0008C819D8101969D838C838C819D81883F57
:1016B000914040F28981882F90E09C01225E344E57
:1016C000F90120812150825E944EFC0120838981A2
:1016D0008F5F89838091F2109981981708F44ECF1B
:1016E00080911E1B882309F091C08091F2108823FD
:1016F00009F48CC081E08E8355C08E81882F90E0E4
:1017000001972E81222F30E0225E344EF901208194
:10171000825E944EFC0120838E81882F90E0019799
:101720002E81222F30E0275E344EF9012081875E22
:10173000944EFC01208318861F822CC08E81882F36
:1017400090E0AC01415051098E81682F70E02F81EB
:101750003885C901880F991F880F991F820F931F21
:10176000860F971F8D5D944EFC0160812F81388517
:10177000C901880F991F880F991F820F931F840F2B
:10178000951F8D5D944EFC0160838F819885019635
:1017900098878F838F819885883F914078F28E81DA
:1017A0008F5F8E838E81853008F4A7CF8091F210F1
:1017B000898722C01B861A8617C08985482F50E06A
:1017C0002A853B85C901880F991F880F991F820FB1
:1017D000931F840F951F8D5D944EFC0110828A85A6
:1017E0009B8501969B878A878A859B85883F914048
:1017F00020F389858F5F898780911D0199859817CE
:10180000C8F28091F21081508093F2101D861C86E0
:1018100051C02C853D85C901880F991F880F991FDC
:10182000820F931F8D5D944EFC0140812C853D8578
:10183000C901880F991F880F991F820F931F8C5D14
:10184000944EFC018081482B2C853D85C901880F71
:10185000991F880F991F820F931F8B5D944EFC0177
:101860008081482B2C853D85C901880F991F880FE1
:10187000991F820F931F8A5D944EFC018081482B33
:101880002C853D85C901880F991F880F991F820FEC
:10189000931F895D944EFC018081242F282B8C8519
:1018A0009D858B509F4EFC0120838C859D850196E4
:1018B0009D878C878C859D85883F914008F4A9CFB2
:1018C00036C29091F21080911D01981708F02EC237
:1018D0008091F2108F5F8093F2108091F210882F28
:1018E00090E00197825E944E2FE1FC01208380916D
:1018F000EC10843009F082C083E790E09F878E87E8
:1019000083E790E0998B888B26C08091F210882F16
:1019100090E0AC014150510988899989825E9E4FBF
:10192000FC0160812E853F85C901880F991F880FB2
:10193000991F820F931F840F951F8D5D944EFC019C
:1019400060838E859F8501969F878E878889998978
:101950000196998B888B888999898B379105A8F294
:101960001BC08091F210882F90E0AC0141505109CA
:101970002E853F85C901880F991F880F991F820FF7
:10198000931F840F951F8D5D944EFC0110828E85F0
:101990009F8501969F878E878E859F85883F914082
:1019A00000F31B8A1A8A1BC08091F210882F90E0E6
:1019B000AC01415051092A893B89C901880F991FFF
:1019C000880F991F820F931F840F951F8D5D944E72
:1019D000FC0110828A899B8901969B8B8A8B8A895C
:1019E0009B898337910500F38091F210882F90E056
:1019F0000197875E944E24E0FC0120838091EC10D7
:101A0000833009F082C083E890E09D8B8C8B83E863
:101A100090E09F8B8E8B26C08091F210882F90E0F3
:101A2000AC01415051098E899F89825E9E4FFC0115
:101A300060812C893D89C901880F991F880F991FE2
:101A4000820F931F840F951F8D5D944EFC01608360
:101A50008C899D8901969D8B8C8B8E899F8901969F
:101A60009F8B8E8B8E899F898B389105A8F21BC026
:101A70008091F210882F90E0AC01415051092C89DF
:101A80003D89C901880F991F880F991F820F931FE5
:101A9000840F951F8D5D944EFC0110828C899D8969
:101AA00001969D8B8C8B8C899D89883F914000F39A
:101AB000198E188E1BC08091F210882F90E0AC0117
:101AC00041505109288D398DC901880F991F880F00
:101AD000991F820F931F840F951F8D5D944EFC01FB
:101AE0001082888D998D0196998F888F888D998D18
:101AF0008338910500F38091F210882F90E00197D0
:101B0000875E944E23E0FC0120838091EC108130AD
:101B100009F082C08FE691E09B8F8A8F8FE691E07B
:101B20009D8F8C8F26C08091F210882F90E0AC01A1
:101B3000415051098C8D9D8D825E9E4FFC016081CC
:101B40002A8D3B8DC901880F991F880F991F820F1D
:101B5000931F840F951F8D5D944EFC0160838A8DC9
:101B60009B8D01969B8F8A8F8C8D9D8D01969D8F6D
:101B70008C8F8C8D9D8D87379140A8F21BC08091F2
:101B8000F210882F90E0AC01415051092A8D3B8D15
:101B9000C901880F991F880F991F820F931F840F07
:101BA000951F8D5D944EFC0110828A8D9B8D019650
:101BB0009B8F8A8F8A8D9B8D883F914000F31F8E6B
:101BC0001E8E1BC08091F210882F90E0AC01415016
:101BD00051092E8D3F8DC901880F991F880F991FBC
:101BE000820F931F840F951F8D5D944EFC01108210
:101BF0008E8D9F8D01969F8F8E8F8E8D9F8D8F36B0
:101C0000914000F38091F210882F90E00197875E59
:101C1000944E21E0FC0120838091EC10823009F089
:101C200085C08FE791E099A388A38FE791E09BA3FC
:101C30008AA326C08091F210882F90E0AC01415019
:101C400051098AA19BA1825E9E4FFC01608128A15F
:101C500039A1C901880F991F880F991F820F931FFF
:101C6000840F951F8D5D944EFC01608388A199A11E
:101C7000019699A388A38AA19BA101969BA38AA3FD
:101C80008AA19BA187389140A8F21BC08091F210D5
:101C9000882F90E0AC014150510928A139A1C90118
:101CA000880F991F880F991F820F931F840F951F0C
:101CB0008D5D944EFC01108288A199A1019699A393
:101CC00088A388A199A1883F914000F31DA21CA27E
:101CD0001BC08091F210882F90E0AC014150510957
:101CE0002CA13DA1C901880F991F880F991F820F50
:101CF000931F840F951F8D5D944EFC0110828CA163
:101D00009DA101969DA38CA38CA19DA18F3791408D
:101D100000F38091F210882F90E00197875E944E37
:101D200022E0FC01208302C0000001C000008EA15F
:101D30009FA1A7960FB6F894DEBF0FBECDBFDF916F
:101D4000CF910895CF93DF93CDB7DEB72A970FB623
:101D5000F894DEBF0FBECDBF9A87898789859A85A3
:101D6000009719F0019731F00AC081E090E09A875E
:101D7000898705C081E090E09A878987000089857E
:101D80009A85009709F4A5C0019709F0A3C01092A5
:101D9000EA101A82198297C01C821B8289C08B812B
:101DA0009C819C01220F331F89819A81820F931F8E
:101DB000815D9A4EFC0120818B819C81815E964ED3
:101DC000FC0180818223882319F081E08093E9104F
:101DD0008B819C819C01220F331F89819A81820F04
:101DE000931F815D9A4EFC0120818B819C818B50D9
:101DF0009F4EFC0180818223882309F454C081E036
:101E00008093EA1089819A81892B99F58091FC242D
:101E10008093FB248091EF1081508093EF1080918C
:101E20003613809335131E821D821DC08D819E81C5
:101E3000880F991F805D9A4EFC0120818D819E81C3
:101E4000880F991F815D9A4EFC0120838D819E81B0
:101E5000880F991F805D9A4EFC0110828D819E81B2
:101E600001969E838D838D819E81883F9140F0F203
:101E70001AC08091EF1081508093EF1018861F8256
:101E80000DC08F819885880F991F805D9A4EFC0147
:101E900010828F819885019698878F838F8198858E
:101EA000883F914070F38B819C8101969C838B834A
:101EB0008B819C81883F914008F471CF89819A8100
:101EC00001969A83898389819A81029708F464CF65
:101ED00001C0000089859A852A960FB6F894DEBF66
:101EE0000FBECDBFDF91CF910895CF93DF9300D088
:101EF000CDB7DEB79A83898389819A818130910534
:101F000099F0823091051CF4892B39F039C0823068
:101F10009105E1F00397F9F033C081E090E09A83F6
:101F200089831092EB102CC08091EA10882329F449
:101F300081E090E09A83898320C08091EA1081300B
:101F4000E1F482E090E09A83898317C083E090E017
:101F50009A83898315C08091EA10813029F483E047
:101F600090E09A8389830BC08091EA10882339F42A
:101F700081E090E09A83898302C0000001C00000E4
:101F800089819A818130910531F08230910584F008
:101F9000029741F00EC08BE290E02091EB10FC0123
:101FA000208307C08091EB108F5F8093EB1001C0FE
:101FB000000089819A810F900F90DF91CF91089551
:101FC000CF93DF9300D000D0CDB7DEB79C838B8357
:101FD0008B819C818130910589F0823091051CF4C0
:101FE000892B39F0ACC082309105D9F00397F1F01C
:101FF000A6C081E090E09C838B83A1C08091E91012
:10200000882329F481E090E09C838B8397C08091A2
:10201000E910813009F092C082E090E09C838B83CC
:102020008DC083E090E09C838B8389C080E290E048
:10203000FC018081882F90E084709927892B09F01A
:1020400078C01092E9101A82198262C089819A813F
:10205000895C9C4EFC01108289819A81880F991FAE
:10206000815D9A4EFC01108289819A81880F991FA7
:10207000805D9A4EFC01108289819A818B509F4E1F
:10208000FC01108229813A81C901880F991F880FAC
:10209000991F820F931F8D5D944EFC011082298140
:1020A0003A81C901880F991F880F991F820F931FCA
:1020B0008C5D944EFC01108229813A81C901880F00
:1020C000991F880F991F820F931F8B5D944EFC01FF
:1020D000108229813A81C901880F991F880F991FA1
:1020E000820F931F8A5D944EFC01108229813A81F0
:1020F000C901880F991F880F991F820F931F895D4F
:10210000944EFC01108289819A8101969A83898379
:1021100089819A81883F914008F498CF1092EF10FE
:102120001092F2101092EB1081E090E09C838B8370
:1021300006C083E090E09C838B8301C000008B810C
:102140009C818130910531F082309105ACF002978D
:1021500071F013C067E373E18FE199E10E944805D4
:1021600065EF70E10E9448050E94FA0006C086EE05
:102170009EE00E94FA0001C000008B819C810F90BC
:102180000F900F900F90DF91CF910895CF93DF9331
:102190001F92CDB7DEB781E290E0FC01108282E2AF
:1021A00090E02FEFFC01208384E290E02FEBFC0114
:1021B000208387E290E02FEFFC01208388E290E00B
:1021C000FC0110828AE290E02FEFFC0120838BE279
:1021D00090E0FC01108219828981282F30E0C9012A
:1021E000880F991F820F931F880F991F880F991FBF
:1021F00083519D4EFC01118210828981282F30E08D
:10220000C901880F991F820F931F880F991F880F8C
:10221000991F9C0121513D4E84E690E0A0E0B0E082
:10222000F90180839183A283B3838981282F30E0D1
:10223000C901880F991F820F931F880F991F880F5C
:10224000991F8D509D4EFC011082118212821382C3
:102250008981282F30E0C901880F991F820F931FB1
:10226000880F991F880F991F89509D4E23E835E0EC
:10227000FC013183208389818F5F89838981282FA5
:1022800030E0C901880F991F820F931F880F991F93
:10229000880F991F83519D4EFC0111821082898104
:1022A000282F30E0C901880F991F820F931F880FD4
:1022B000991F880F991F9C0121513D4E84EF91E099
:1022C000A0E0B0E0F90180839183A283B383898188
:1022D000282F30E0C901880F991F820F931F880FA4
:1022E000991F880F991F8D509D4EFC0110821182FD
:1022F000128213828981282F30E0C901880F991F2B
:10230000820F931F880F991F880F991F89509D4E28
:1023100026EA37E0FC013183208389818F5F89833E
:102320008981282F30E0C901880F991F820F931FE0
:10233000880F991F880F991F83519D4EFC011182B0
:1023400010828981282F30E0C901880F991F820FE0
:10235000931F880F991F880F991F9C0121513D4E93
:1023600084E690E0A0E0B0E0F90180839183A2834D
:10237000B3838981282F30E0C901880F991F820F0C
:10238000931F880F991F880F991F8D509D4EFC0138
:1023900010821182128213828981282F30E0C901B4
:1023A000880F991F820F931F880F991F880F991FFD
:1023B00089509D4E29E43AE0FC01318320838981D4
:1023C0008F5F89838981282F30E0C901880F991F89
:1023D000820F931F880F991F880F991F83519D4E5D
:1023E000FC01118210828981282F30E0C901880FF9
:1023F000991F820F931F880F991F880F991F9C01A7
:1024000021513D4E82E390E0A0E0B0E0F9018083ED
:102410009183A283B3838981282F30E0C901880F7B
:10242000991F820F931F880F991F880F991F8D5036
:102430009D4EFC0110821182128213828981282F05
:1024400030E0C901880F991F820F931F880F991FD1
:10245000880F991F89509D4E22EA3EE0FC0131838E
:10246000208389818F5F89838981282F30E0C9018A
:10247000880F991F820F931F880F991F880F991F2C
:1024800083519D4EFC01118210828981282F30E0FA
:10249000C901880F991F820F931F880F991F880FFA
:1024A000991F9C0121513D4E85E090E0A0E0B0E0F5
:1024B000F90180839183A283B3838981282F30E03F
:1024C000C901880F991F820F931F880F991F880FCA
:1024D000991F8D509D4EFC01108211821282138231
:1024E0008981282F30E0C901880F991F820F931F1F
:1024F000880F991F880F991F89509D4E25E73FE04F
:10250000FC013183208389818F5F89838981282F12
:1025100030E0C901880F991F820F931F880F991F00
:10252000880F991F83519D4EFC0111821082898171
:10253000282F30E0C901880F991F820F931F880F41
:10254000991F880F991F9C0121513D4E84E690E010
:10255000A0E0B0E0F90180839183A283B3838981F5
:10256000282F30E0C901880F991F820F931F880F11
:10257000991F880F991F8D509D4EFC01108211826A
:10258000128213828981282F30E0C901880F991F98
:10259000820F931F880F991F880F991F89509D4E96
:1025A00020EE3FE0FC013183208389818F5F8983A6
:1025B00081E090E0A0E0B0E0BC01CD010E943204D7
:1025C0000E948D030E9482000E9439010E947B01BB
:0625D000FFCFF894FFCFDD
:1025D600010000000000000200000000600400008E
:1025E60000000402030103040102010302050000C6
:1025F60000000000000000000000000000000000D5
:1026060000000000000000000000000000000000C4
:1026160000000000000000000000000000000000B4
:1026260000000000000000000000000000000000A4
:102636000000000000000000000000000000000094
:102646000000000000000000000000000000000084
:102656000000000000000000000000000000000074
:1026660000081C3E6B08080800000000000000007F
:10267600000808086B3E1C0800000000000000006F
:102686000000000000000000000000000000000044
:102696000000000000000000000000000000000034
:1026A6000000000000000000000000000000000024
:1026B6000000000000000000000000000000000014
:1026C6000000000000000000000000000000000004
:1026D60000000000000000000000000000000000F4
:1026E60000000000000000000000000000000000E4
:1026F60000000000000000000000000000000000D4
:1027060000000000000000000000000000000000C3
:1027160000000000000000000000000000000000B3
:1027260000000000000000000000000000000000A3
:102736000000000000000000000000000000000093
:102746000000000000000000000000000000000083
:102756000000000000000000000000000010387CAF
:10276600D61010100000000000000000001010102D
:10277600D67C3810000000000000000000000000B9
:102786000000000000000000000000000000000043
:102796000000000000000000000000000000000033
:1027A6000000000000000000000000000000000023
:1027B6000000000000000000000000000000000013
:1027C6000000000000000000000000000000000003
:1027D60000000000000000000000000000000000F3
:1027E60000000000000000000000000000000000E3
:1027F60000000000000000000000000000000000D3
:10280600000000000000000000000000007C828242
:102816008282827C000000000000000000000000B0
:1028260000000000000000000000000000000000A2
:102836000000000000000000000000000000000092
:102846000000000000000000000000000000000082
:102856000000000000000000000000000000000072
:1028660000000000FF202020000000000000000003
:102876000000000000000000000000000000000052
:102886000000000000000000000000000000000042
:102896000000000000000000000000000000000032
:1028A6000000000000000000000000000000000022
:1028B60000000000002010080F0810200000000093
:1028C6000000000000000000000000000000000002
:1028D60000000000000000000000000000000000F2
:1028E60000000000000000000000000000000000E2
:1028F60000000000000000000000000000000000D2
:1029060000000000000000000000000000000000C1
:1029160000000000000000000000000000000000B1
:1029260000000000000000000000000000000000A1
:102936000000000000000000000000000000000091
:102946000000000000000000000000000000000081
:102956000000000000000000000000000000000071
:102966000000000000000000000000000000000061
:102976000000000000000000000000000000000051
:102986000000000000000000000000000000000041
:102996000000000000000000000000000000000031
:1029A6000000000000000000000000000000000021
:1029B6000000000000000000000000000000000011
:1029C6000000000000000000000000000000000001
:1029D60000000000000000000000000000000000F1
:1029E60000000000000000000000000000000000E1
:1029F60000000000000000000000000000000000D1
:102A060000000000007C82828282827C000000003E
:102A160000000000000000000000000000000000B0
:102A260000000000000000000000000000000000A0
:102A36000000000000000000000000000000000090
:102A46000000000000000000000000000000000080
:102A5600000000000000000000202020FF00000011
:102A66000000000000000000000000000000000060
:102A76000000000000000000000000000000000050
:102A86000000000000000000000000000000000040
:102A96000000000000000000000000000000000030
:102AA60000000000000000000000000000201008E8
:102AB6000F081020000000000000000000000000C9
:102AC6000000000000000000000000000000000000
:102AD60000000000000000000000000000000000F0
:102AE60000000000000000000000000000000000E0
:102AF60000000000000000000000000000000000D0
:102CF600000000000000000000F00808080808F0C6
:102D060000000000000000000000000000000000BD
:102D160000000000000000000000000000000000AD
:102D2600000000000000000000000000000000009D
:102D3600000000000000000000000000000000008D
:102D46000000000000000000000000000001020278
:102D5600FE828281000000000000000000000000EA
:102D6600000000000000000000000000000000005D
:102D7600000000000000000000000000000000004D
:102D8600000000000000000000000000000000003D
:102D9600000000000000000000000000000000002D
:102DA600008040203F20408000000000000000001E
:102DB600000000000000000000000000000000000D
:102DC60000000000000000000000000000000000FD
:102DD60000000000000000000000000000000000ED
:102DE60000000000000000000000000000000000DD
:102DF60000000000000000000000000000000000CD
:102E060000000000000000000000000000000000BC
:102E160000000000000000000000000000000000AC
:102E2600000000000000000000000000000000009C
:102E3600000000000000000000000000000000008C
:102E4600000000000000000000000000000000007C
:102E5600000000000000000000000000000000006C
:102E6600000000000000000000000000000000005C
:102E7600000000000000000000000000000000004C
:102E8600000000000000000000000000000000003C
:102E9600000000000000000000000000000000002C
:102EA600000000000000000000000000000000001C
:102EB600000000000000000000000000000000000C
:102EC60000000000000000000000000000000000FC
:102ED60000000000000000000000000000000000EC
:102EE60000000000000000000000000000000000DC
:102EF60000F00808080808F00000000000000000C4
:102F060000000000000000000000000000000000BB
:102F160000000000000000000000000000000000AB
:102F2600000000000000000000000000000000009B
:102F3600000000000000000000000000000000008B
:102F46000000000000818282FE02020100000000F3
:102F5600000000000000000000000000000000006B
:102F6600000000000000000000000000000000005B
:102F7600000000000000000000000000000000004B
:102F8600000000000000000000000000000000003B
:102F96000000000000000000008040203F2040802C
:102FA600000000000000000000000000000000001B
:102FB600000000000000000000000000000000000B
:102FC60000000000000000000000000000000000FB
:102FD60000000000000000000000000000000000EB
:102FE60000000000000000000000000000000000DB
:102FF60000000000000000000000000000000000CB
:1030060000000000000000000000000000000000BA
:1030160000000000000000000000000000000000AA
:10302600000000000000000000000000000000009A
:10303600000000000000000000000000000000008A
:10304600000000000000000000000000000000007A
:10305600000000000000000000000000000000006A
:10306600000000000000000000000000000000005A
:10307600000000000000000000000000000000004A
:10308600000000000000000000000000000000003A
:10309600000000000000000000000000000000002A
:1030A600000000000000000000000000000000001A
:1030B600000000000000000000000000000000000A
:1030C60000000000000000000000000000000000FA
:1030D60000000000000000000000000000000000EA
:1030E60000000000000000000000000000000000DA
:1030F60000000000000000000000000000000000CA
:1031060000000000000000000000000000000000B9
:103116000000000000000000804020108844442881
:103126001020404080808000000000000000000069
:103136000000000000000000000000000000000089
:103146000000000000000000000000000000000079
:103156000000000000000000000000000000000069
:1031660000000000000000000000081609001F21F2
:1031760040808086A0A0A0A086808043221C0000FC
:103186000000000000000000000000000000000039
:103196000000000000000000000000000000000029
:1031A6000000000000000000000000000000000019
:1031B6000000000000000000000000000000000009
:1031C60000000000000000000000000000000000F9
:1031D60000000000000000000000000000000000E9
:1031E60000000000000000000000000000000000D9
:1031F60000000000000000000000000000000000C9
:1032060000000000000000000000000000000000B8
:1032160000000000000000000000000000000000A8
:103226000000000000000000000000000000000098
:103236000000000000000000000000000000000088
:103246000000000000000000000000000000000078
:103256000000000000000000000000000000000068
:103266000000000000000000000000000000000058
:103276000000000000000000000000000000000048
:103286000000000000000000000000000000000038
:103296000000000000000000000000000000000028
:1032A6000000000000000000000000000000000018
:1032B6000000000000000000000000000000000008
:1032C60000000000000000000000000000000000F8
:1032D60000000000000000000000000000000000E8
:1032E60000000000000000000000000000000000D8
:1032F60000000000000000000000000000000000C8
:1033060000000000000000000000000000000000B7
:1033160000000000000000000000000000000000A7
:103326000000000000000000000000000000000097
:103336000000000000000000000000000000000087
:103346000000000000000000000000000000000077
:10335600008080804040201028444488102040800F
:103366000000000000000000000000000000000057
:103376000000000000000000000000000000000047
:103386000000000000000000000000000000000037
:103396000000000000000000000000000000000027
:1033A60000001C2243808086A0A0A0A086808040CA
:1033B600211F0009160800000000000000000000A0
:1033C60000000000000000000000000000000000F7
:1033D60000000000000000000000000000000000E7
:1033E60000000000000000000000000000000000D7
:1033F60000000000000000000000000000000000C7
:1034060000000000000000000000000000000000B6
:1034160000000000000000000000000000000000A6
:1034260000F80C0602622222E6000010909090F04E
:103436000000E030101010E0101010F00000C0F096
:10344600909090F060000000000000000000000076
:103456000000000000000000000000000000000066
:103466000000000000000000000000000000000056
:103476000000000000010306040404060300000720
:10348600040404070000070000000007000000070E
:10349600000001030404040404000000000000000E
:1034A6000000000000000000000000000000000016
:1034B6000000000000000000000000000000000006
:1034C60000000000000000000000000080C0602036
:1034D600202060C080000000000000000000000006
:1034E600000000000000000000000000F0F00000F6
:1034F60000000000000000000000000000000000C6
:1035060000000000000000000000000000000000B5
:1035160000000000000000000000000000000000A5
:103526001F306040404060301F00030F78603C074A
:10353600001C3F4949494F4600007E030101000037
:103546006F6F000000000000000000000000000097
:103556000000000000000000000000000000000065
:103566000000000000000000000000000000000055
:103576000000000000000000000000000000000045
:103586000000000000000000000000000000000035
:103596000000000000000000000000000000000025
:1035A6000000000000000000000000000000010014
:0435B600000006000B
:00000001FF
