:100000000C9446000C9465000C9465000C946500FB
:100010000C9465000C9465000C9465000C946500CC
:100020000C9465000C9465000C9465000C946500BC
:100030000C9465000C94D0030C9465000C9465003E
:100040000C9465000C9465000C9465000C9465009C
:100050000C9465000C9465000C9465000C9465008C
:100060000C9465000C9465000C9465000C9465007C
:100070000C9465000C9465000C9465000C9465006C
:100080000C9465000C9465000C94650011241FBE4F
:10009000CFEFD0E4DEBFCDBF1EE0A0E0B1E0ECE2E8
:1000A000F5E100E00BBF02C007900D92AC3EB10736
:1000B000D9F728E1ACEEBEE001C01D92AA3FB2071D
:1000C000E1F70E9467090C94940A0C940000CF9306
:1000D000DF931F92CDB7DEB789838EE490E029814C
:1000E000FC012083000000008DE490E0FC01808191
:1000F0008823D4F78EE490E0FC0180810F90DF919B
:10010000CF910895CF93DF93CDB7DEB78CE490E025
:10011000FC0110828CE490E02CE430E0F9012081B5
:100120002065FC0120830000DF91CF910895CF93DB
:10013000DF93CDB7DEB78CE490E0FC0110828CE455
:1001400090E02CE430E0F90120812064FC01208360
:100150000000DF91CF910895CF93DF9300D0CDB70A
:10016000DEB71A82198208C080E00E946700898188
:100170009A8101969A83898389819A81883F9140E7
:1001800098F385E290E023E230E0F90120812B7FB3
:10019000FC01208380E40E94670080E80E946700E1
:1001A00085E290E023E230E0F90120812460FC0147
:1001B000208300000F900F90DF91CF910895CF938F
:1001C000DF9300D0CDB7DEB71A82198208C08FEF57
:1001D0000E94670089819A8101969A838983898127
:1001E0009A81883F914098F300000F900F90DF9123
:1001F000CF910895CF93DF9300D000D0CDB7DEB775
:100200009C838B831A8219820FC02B813C81898148
:100210009A81820F931FFC0180810E94670089816F
:100220009A8101969A83898389819A81883F914036
:1002300060F385E290E023E230E0F90120812B7F3A
:10024000FC01208380E40E94670080E80E94670030
:1002500085E290E023E230E0F90120812460FC0196
:10026000208300000F900F900F900F90DF91CF919F
:100270000895CF93DF93CDB7DEB785E290E023E218
:1002800030E0F9012081207FFC01208385E290E0AD
:1002900023E230E0F90120812260FC01208381E229
:1002A0000E94670088EC0E94670080E20E9467005D
:1002B0008CE00E94670085E290E023E230E0F901E3
:1002C00020812460FC0120830E94AC000000DF91AB
:1002D000CF910895CF93DF93CDB7DEB78AE790E053
:1002E0002AE730E0F90120812468FC012083000026
:1002F000DF91CF910895CF93DF93CDB7DEB70E9402
:100300006A018CE790E021E0FC0120838AE790E01D
:100310002AE730E0F90120812064FC0120830000FD
:100320008AE790E0FC018081882F90E08074992713
:10033000892BB1F788E790E0FC018081918190934F
:10034000F9188093F8188CE790E0FC0110828AE796
:1003500090E02AE730E0F90120812064FC0120834D
:1003600000008AE790E0FC018081882F90E0807493
:100370009927892BB1F788E790E0FC018081918172
:100380009093FF168093FE160000DF91CF910895A1
:10039000CF93DF931F92CDB7DEB78CE790E021E0DB
:1003A000FC0120838AE790E02AE730E0F901208110
:1003B0002064FC01208300008AE790E0FC0180813A
:1003C000882F90E080749927892BB1F788E790E017
:1003D000FC01808191819093FD168093FC168CE73F
:1003E00090E0FC0110828AE790E02AE730E0F90112
:1003F00020812064FC01208300008AE790E0FC015A
:100400008081882F90E080749927892BB1F788E745
:1004100090E0FC01808191819093F70E8093F60E1D
:100420008091F8189091F9189C012E5F3F4F8091B0
:10043000FC169091FD162817390760F18091F81885
:100440009091F9189C01225031098091FC169091ED
:10045000FD1682179307F0F08091FE169091FF161B
:100460009C012E5F3F4F8091F60E9091F70E28175A
:10047000390780F08091FE169091FF169C01225062
:1004800031098091F60E9091F70E8217930710F0C4
:10049000198231C18091F8189091F9189C012E5F52
:1004A0003F4F8091FC169091FD1628173907F8F4FC
:1004B0008091FE169091FF169C012E5F3F4F809118
:1004C000F60E9091F70E2817390788F08091FE16E6
:1004D0009091FF169C01225031098091F60E909167
:1004E000F70E8217930718F081E0898304C1809189
:1004F000F8189091F9189C012E5F3F4F8091FC16DF
:100500009091FD162817390788F48091FE16909176
:10051000FF169C01225031098091F60E9091F70E42
:100520008217930718F482E08983E5C08091F81858
:100530009091F9189C012E5F3F4F8091FC1690918D
:10054000FD1628173907F8F08091F8189091F918DE
:100550009C01225031098091FC169091FD16821762
:10056000930788F08091FE169091FF169C0122500F
:1005700031098091F60E9091F70E8217930718F4C7
:1005800083E08983B8C08091F8189091F9189C0194
:10059000225031098091FC169091FD168217930725
:1005A00088F48091FE169091FF169C01225031092B
:1005B0008091F60E9091F70E8217930718F484E05D
:1005C000898399C08091F8189091F9189C01225064
:1005D00031098091FC169091FD1682179307F8F46B
:1005E0008091FE169091FF169C012E5F3F4F8091E7
:1005F000F60E9091F70E2817390788F08091FE16B5
:100600009091FF169C01225031098091F60E909135
:10061000F70E8217930718F085E089836CC08091EC
:10062000F8189091F9189C01225031098091FC161C
:100630009091FD168217930788F48091FE16909191
:10064000FF169C012E5F3F4F8091F60E9091F70EA2
:100650002817390718F486E089834DC08091F8186F
:100660009091F9189C012E5F3F4F8091FC1690915C
:10067000FD1628173907F8F08091F8189091F918AD
:100680009C01225031098091FC169091FD16821731
:10069000930788F08091FE169091FF169C012E5FC3
:1006A0003F4F8091F60E9091F70E2817390718F4F6
:1006B00087E0898320C08091F8189091F9189C01F7
:1006C0002E5F3F4F8091FC169091FD162817390739
:1006D00088F48091FE169091FF169C012E5F3F4F8B
:1006E0008091F60E9091F70E2817390718F488E0DC
:1006F000898301C0198280E290E0FC018081882F0B
:1007000090E084709927892B19F48981806189830D
:1007100089810F90DF91CF910895CF93DF93CDB76B
:10072000DEB781E890E02BE0FC01208388E890E0D0
:100730002DE730E0FC01318320838FE690E022E05A
:10074000FC01208384E890E0FC01118210828091FA
:10075000F8029091F902A091FA02B091FB02809305
:10076000ED0E9093EE0EA093EF0EB093F00E8FE58A
:1007700090E02FE530E0F90120812068FC01208322
:100780000000DF91CF910895CF93DF93CDB7DEB70F
:1007900081E890E0FC0110820000DF91CF91089584
:1007A0001F920F9200905F000F92112400905B0047
:1007B0000F922F933F934F935F936F937F938F93FA
:1007C0009F93AF93BF93EF93FF93CF93DF93CDB7F7
:1007D000DEB78091ED0E9091EE0EA091EF0EB091EC
:1007E000F00E0197A109B1098093ED0E9093EE0EE2
:1007F000A093EF0EB093F00E8091ED0E9091EE0E5F
:10080000A091EF0EB091F00E892B8A2B8B2B91F4D7
:100810000E9489048091F8029091F902A091FA0255
:10082000B091FB028093ED0E9093EE0EA093EF0E2D
:10083000B093F00E0000DF91CF91FF91EF91BF9147
:10084000AF919F918F917F916F915F914F913F9168
:100850002F910F9000925B000F9000925F000F901D
:100860001F901895CF93DF9300D000D0CDB7DEB79F
:1008700069837A838B839C8389819A81AB81BC81D4
:100880008093F8029093F902A093FA02B093FB02CE
:100890008091F8029091F902A091FA02B091FB02C6
:1008A0008093ED0E9093EE0EA093EF0EB093F00EAA
:1008B00000000F900F900F900F90DF91CF9108954F
:1008C000CF93DF9300D01F92CDB7DEB789837B83B0
:1008D0006A8389818A3031F48A819B81BC018DE0F1
:1008E0000E94600480EC90E0FC018081882F90E001
:1008F00080729927892BB1F386EC90E02981FC0165
:10090000208380E090E00F900F900F90DF91CF91C7
:1009100008950F931F93CF93DF931F92CDB7DEB748
:100920001982A6C08981282F30E0C901880F991F3C
:10093000820F931F880F991F880F991F8250914F24
:10094000FC0120813181428153818981682F70E0CF
:10095000CB01880F991F860F971F880F991F880F4B
:10096000991F8650914FFC0180819181A281B381B2
:10097000281739074A075B0708F449C08981082FFF
:1009800010E08981282F30E0C901880F991F820F5C
:10099000931F880F991F880F991F8E5F904FFC013E
:1009A000408151818981282F30E0C901880F991F2A
:1009B000820F931F880F991F880F991F8850914F9E
:1009C000FC0180819181FA0109959C01C801880F81
:1009D000991F800F911F880F991F880F991F8850AA
:1009E000914FFC01318320838981282F30E0C90198
:1009F000880F991F820F931F880F991F880F991FC7
:100A00008250914FFC0110821182128213828981DF
:100A1000682F70E08981282F30E0C901880F991F65
:100A2000820F931F880F991F880F991F8250914F33
:100A3000FC0180819181A281B38121E030E040E01E
:100A400050E0280F391F4A1F5B1FCB01880F991FE9
:100A5000860F971F880F991F880F991F8250914FFB
:100A6000FC01208331834283538389818F5F898393
:100A70008981282F30E083E090E02817390708F4B7
:100A800051CF00000F90DF91CF911F910F910895EA
:100A9000CF93DF9300D000D000D0CDB7DEB79C83DA
:100AA0008B837E836D831A8219821DC02B813C81CA
:100AB00089819A81820F931FFC0140812D813E81A3
:100AC00089819A81820F931FFC018081242F282B1A
:100AD00089819A818050994EFC01208389819A8175
:100AE00001969A83898389819A81883F9140F0F2A7
:100AF00080E097E126960FB6F894DEBF0FBECDBF1B
:100B0000DF91CF910895CF93DF9300D000D0CDB780
:100B1000DEB79C838B838B819C818230910509F4A5
:100B200051C1833091052CF4009779F00197A9F019
:100B30005EC18430910509F44FC1843091050CF4F5
:100B400046C1059709F44DC152C181E08093F10E71
:100B500081E090E09C838B834AC18091F10E8130CB
:100B600009F047C00E94C801082E000C990B8F7035
:100B70009927019729F484E090E09C838B8336C108
:100B80000E94C801082E000C990B8F7099270297BC
:100B900029F485E090E09C838B8328C10E94C801E2
:100BA000082E000C990B8F709927039729F483E086
:100BB00090E09C838B831AC10E94C801082E000C10
:100BC000990B8F709927049729F483E090E09C8318
:100BD0008B830CC10E94C801082E000C990B8F70EA
:100BE0009927089709F002C184E090E09C838B83E9
:100BF000FDC08091F10E823009F047C00E94C8010B
:100C0000082E000C990B8F709927019729F485E025
:100C100090E09C838B83EAC00E94C801082E000CE0
:100C2000990B8F709927029729F485E090E09C83B7
:100C30008B83DCC00E94C801082E000C990B8F70BA
:100C40009927069729F482E090E09C838B83CEC09D
:100C50000E94C801082E000C990B8F7099270797E6
:100C600029F482E090E09C838B83C0C00E94C8017D
:100C7000082E000C990B8F709927089709F0B6C0C1
:100C800085E090E09C838B83B1C08091F10E83302E
:100C900009F047C00E94C801082E000C990B8F7004
:100CA0009927049729F483E090E09C838B839EC06E
:100CB0000E94C801082E000C990B8F709927059788
:100CC00029F483E090E09C838B8390C00E94C8014C
:100CD000082E000C990B8F709927069729F482E053
:100CE00090E09C838B8382C00E94C801082E000C78
:100CF000990B8F709927079729F484E090E09C83E3
:100D00008B8374C00E94C801082E000C990B8F7051
:100D10009927089709F06AC084E090E09C838B8350
:100D200065C08091F10E843009F046C00E94C80170
:100D3000082E000C990B8F709927029729F485E0F3
:100D400090E09C838B8352C00E94C801082E000C47
:100D5000990B8F709927039729F485E090E09C8385
:100D60008B8344C00E94C801082E000C990B8F7021
:100D70009927049729F483E090E09C838B8336C005
:100D80000E94C801082E000C990B8F7099270597B7
:100D900029F482E090E09C838B8328C00E94C801E4
:100DA000082E000C990B8F7099270697F9F482E0B2
:100DB00090E09C838B831AC088E290E021E0FC01E4
:100DC000208314C081E090E09C838B8310C081E07D
:100DD00090E09C838B830BC081E090E09C838B83AD
:100DE00006C081E090E09C838B8301C000008B8172
:100DF0009C818230910509F48DC08330910534F4D3
:100E0000009709F497C0019769F097C08430910565
:100E100009F488C0843091050CF480C0059709F46A
:100E200085C08BC08091F10E8130D1F41A82198275
:100E300011C089819A818350974FFC01208189815B
:100E40009A818C5F9A4EFC01208389819A81019658
:100E50009A83898389819A81883F914050F36CC03D
:100E60008091F10E8230D1F41A82198211C08981E9
:100E70009A818B5F984FFC01208189819A818C5FD8
:100E80009A4EFC01208389819A8101969A838983F5
:100E900089819A81883F914050F34EC08091F10E34
:100EA0008330D1F41A82198211C089819A818B5EB4
:100EB0009C4FFC01208189819A818C5F9A4EFC01B4
:100EC000208389819A8101969A83898389819A8175
:100ED000883F914050F330C08091F10E843061F52D
:100EE0001A82198211C089819A81835F9A4FFC010D
:100EF000208189819A818C5F9A4EFC0120838981AF
:100F00009A8101969A83898389819A81883F914049
:100F100050F312C081E08093F10E0FC082E0809305
:100F2000F10E0BC084E08093F10E07C083E0809344
:100F3000F10E03C0000001C000008B819C810F9066
:100F40000F900F900F90DF91CF910895CF93DF9383
:100F5000CDB7DEB761970FB6F894DEBF0FBECDBF39
:100F6000998B888B88899989009719F0019731F0BE
:100F70000AC081E090E0998B888B05C081E090E009
:100F8000998B888B000088899989009709F464C13E
:100F9000019709F062C18091F20E8A3010F0109230
:100FA000F20E8091F30E863010F01092F30E9091B5
:100FB000F40E80911403981708F024C18091F30E69
:100FC000853009F01FC18091F40E8F5F8093F40E7D
:100FD0008091F20E882F90E0865F9C4FFC0180810B
:100FE000813019F51A8219821AC08091F40E882F67
:100FF00090E0019729813A812B50354FF9014081CA
:1010000029813A81220F331F820F931F8C5E9E4EDF
:10101000FC01408389819A8101969A838983898121
:101020009A81883F914008F3E8C08091F20E882FA2
:1010300090E0865F9C4FFC018081823019F51C8214
:101040001B821AC08091F40E882F90E001972B81AB
:101050003C812351334FF90140812B813C81220F88
:10106000331F820F931F8C5E9E4EFC0140838B8149
:101070009C8101969C838B838B819C81883F9140CE
:1010800008F3BBC08091F20E882F90E0865F9C4FE2
:10109000FC018081833009F060C08FE390E09E8383
:1010A0008D838FE891E098878F831FC08091F40E25
:1010B000882F90E001972F8138852351334FF90114
:1010C00040812D813E81220F331F820F931F8C5E42
:1010D0009E4EFC0140838D819E8101969E838D836F
:1010E0008F819885019698878F838F819885883F17
:1010F0009140E0F214C08091F40E882F90E00197A7
:101100002D813E81220F331F820F931F8C5E9E4ED6
:10111000FC0110828D819E8101969E838D838D813D
:101120009E81883F914038F3198613C08985282F06
:1011300030E08091F40E882F90E00197220F331F4A
:10114000820F931F8C5E9E4EFC01108289858F5FFB
:1011500089878985803450F350C08091F20E882FA2
:1011600090E0865F9C4FFC018081843009F045C08F
:101170001B861A8680E591E09D878C871FC0809131
:10118000F40E882F90E001972C853D852B50354F2C
:10119000F90140812A853B85220F331F820F931F5F
:1011A0008C5E9E4EFC0140838A859B8501969B87C1
:1011B0008A878C859D8501969D878C878C859D85EA
:1011C000893B9140E0F214C08091F40E882F90E0AA
:1011D00001972A853B85220F331F820F931F8C5E58
:1011E0009E4EFC0110828A859B8501969B878A878B
:1011F0008A859B85883F914038F38091F20E8F5FFE
:101200008093F20E1F861E861CC08E859F85880FD8
:10121000991F8C5E9E4EFC0120818E859F85880FD4
:10122000991F8B5E9E4EFC018081282B8E859F85A9
:10123000845E904FFC0120838E859F8501969F8759
:101240008E878E859F85883F9140F8F28091F30EBE
:101250008F5F8093F30E01C00000888999896196A1
:101260000FB6F894DEBF0FBECDBFDF91CF910895CA
:10127000CF93DF9300D0CDB7DEB79A83898389817E
:101280009A81009719F0019731F00AC081E090E04F
:101290009A83898305C081E090E09A838983000066
:1012A00089819A81009759F0019751F46CE17FE0B0
:1012B00084E095E10E9448050E94FA0001C0000008
:1012C00089819A810F900F90DF91CF910895CF93EC
:1012D000DF931F92CDB7DEB781E290E0FC01108270
:1012E00082E290E02FEFFC01208384E290E02FEB7C
:1012F000FC01208387E290E02FEFFC01208388E24D
:1013000090E0FC0110828AE290E02FEFFC01208344
:101310008BE290E0FC01108219828981282F30E055
:10132000C901880F991F820F931F880F991F880F7B
:10133000991F8850914FFC01118210828981282FBA
:1013400030E0C901880F991F820F931F880F991FE2
:10135000880F991F9C012650314F84E690E0A0E051
:10136000B0E0F90180839183A283B3838981282F20
:1013700030E0C901880F991F820F931F880F991FB2
:10138000880F991F8250914FFC01108211821282A6
:1013900013828981282F30E0C901880F991F820F9D
:1013A000931F880F991F880F991F8E5F904F23E816
:1013B00035E0FC013183208389818F5F89838981B6
:1013C000282F30E0C901880F991F820F931F880FC3
:1013D000991F880F991F8850914FFC01118210822C
:1013E0008981282F30E0C901880F991F820F931F30
:1013F000880F991F880F991F9C012650314F88EE46
:1014000093E0A0E0B0E0F90180839183A283B383ED
:101410008981282F30E0C901880F991F820F931FFF
:10142000880F991F880F991F8250914FFC011082DD
:101430001182128213828981282F30E0C901880F1E
:10144000991F820F931F880F991F880F991F8E5F16
:10145000904F26EA37E0FC013183208389818F5F3A
:1014600089838981282F30E0C901880F991F820F55
:10147000931F880F991F880F991F8850914FFC0167
:10148000118210828981282F30E0C901880F991FAD
:10149000820F931F880F991F880F991F9C01265058
:1014A000314F84EF91E0A0E0B0E0F90180839183B7
:1014B000A283B3838981282F30E0C901880F991F47
:1014C000820F931F880F991F880F991F8250914F89
:1014D000FC0110821182128213828981282F30E050
:1014E000C901880F991F820F931F880F991F880FBA
:1014F000991F8E5F904F28E339E0FC0131832083F0
:1015000089818F5F898381E090E0A0E0B0E0BC0139
:10151000CD010E9432040E948D030E9482000E942D
:0C15200039010E947B01FFCFF894FFCF3F
:10152C0000000000000000000000000000000000AF
:10153C00000000000000000000000000000000009F
:10154C00000000000000000000000000000000008F
:10155C00000000000000000000000000000000007F
:10156C00000000000000000000000000000000006F
:10157C00000000000000000000000000000000005F
:10158C00000000000000000000000000000000004F
:10159C00000000000000000000000000000000003F
:1015AC00000000000000000000000000000000002F
:1015BC00000000000000000000000000000000001F
:1015CC00000000000000000000000000000000000F
:1015DC0000000000000000000000000000000000FF
:1015EC0000000000000000000000000000000000EF
:1015FC0000000000000000000000000000000000DF
:10160C0000000000000000000000000000000000CE
:10161C0000000000000000000000000000000000BE
:10162C0000000000000000000000000000000000AE
:10163C00000000000000000000000000000000009E
:10164C00000000000000000000000000000000008E
:10165C00000000000000000000000000000000007E
:10166C00000000000000000000000000000000006E
:10167C00000000000000000000000000000000005E
:10168C00000000000000000000000000000000202E
:10169C0070F8AC20202000000000000000000000CA
:1016AC00000000000000000000000000000000002E
:1016BC00000000000000000000000000000000001E
:1016CC00000000000000000000000000000000000E
:1016DC0000000000000000000000000000000000FE
:1016EC0000000000000001000000000000000000ED
:1016FC0000000000000000000000000000000000DE
:10170C0000000000000000000000000000000000CD
:10171C0000000000000000000100000000000002BA
:10172C000000000060040000000004020301030438
:10173C000102010302000000000000000000000094
:10174C00000000000000000000000000000000008D
:10175C000000000000000000000000007C8282827B
:10176C0082827C00000000000000000000000000ED
:10177C00000000000000000000000000000000005D
:10178C00000000000000000000000000000000004D
:10179C00000000000000000000000000000000003D
:1017AC00000000000000000000000000000000002D
:1017BC00000000FF202020000000000000000000BE
:1017CC00000000000000000000000000000000000D
:1017DC0000000000000000000000000000000000FD
:1017EC0000000000000000000000000000000000ED
:1017FC0000000000000000000000000000000000DD
:10180C00000000002010080F08102000000000004D
:10181C0000000000000000000000000000000000BC
:10182C0000000000000000000000000000000000AC
:10183C00000000000000000000000000000000009C
:10184C00000000000000000000000000000000008C
:10185C00000000000000000000000000000000007C
:10186C00000000000000000000000000000000006C
:10187C00000000000000000000000000000000005C
:10188C00000000000000000000000000000000004C
:10189C00000000000000000000000000000000003C
:1018AC00000000000000000000000000000000002C
:1018BC00000000000000000000000000000000001C
:1018CC00000000000000000000000000000000000C
:1018DC0000000000000000000000000000000000FC
:1018EC0000000000000000000000000000000000EC
:1018FC0000000000000000000000000000000000DC
:10190C0000000000000000000000000000000000CB
:10191C0000000000000000000000000000000000BB
:10192C0000000000000000000000000000000000AB
:10193C00000000000000000000000000000000009B
:10194C00000000000000000000000000000000008B
:10195C00000000007C82828282827C0000000000F9
:10196C00000000000000000000000000000000006B
:10197C00000000000000000000000000000000005B
:10198C00000000000000000000000000000000004B
:10199C00000000000000000000000000000000003B
:1019AC000000000000000000202020FF00000000CC
:1019BC00000000000000000000000000000000001B
:1019CC00000000000000000000000000000000000B
:1019DC0000000000000000000000000000000000FB
:1019EC0000000000000000000000000000000000EB
:1019FC000000000000000000000000002010080F94
:101A0C000810200000000000000000000000000092
:101A1C0000000000000000000000000000000000BA
:101A2C0000000000000000000000000000000000AA
:101A3C00000000000000000000000000000000009A
:101A4C00000000000000000000000000000000008A
:101C4C000000000000000000F00808080808F00080
:101C5C000000000000000000000000000000000078
:101C6C000000000000000000000000000000000068
:101C7C000000000000000000000000000000000058
:101C8C000000000000000000000000000000000048
:101C9C00000000000000000000000000010202FE35
:101CAC0082828100000000000000000000000000A3
:101CBC000000000000000000000000000000000018
:101CCC000000000000000000000000000000000008
:101CDC0000000000000000000000000000000000F8
:101CEC0000000000000000000000000000000000E8
:101CFC008040203F204080000000000000000000D9
:101D0C0000000000000000000000000000000000C7
:101D1C0000000000000000000000000000000000B7
:101D2C0000000000000000000000000000000000A7
:101D3C000000000000000000000000000000000097
:101D4C000000000000000000000000000000000087
:101D5C000000000000000000000000000000000077
:101D6C000000000000000000000000000000000067
:101D7C000000000000000000000000000000000057
:101D8C000000000000000000000000000000000047
:101D9C000000000000000000000000000000000037
:101DAC000000000000000000000000000000000027
:101DBC000000000000000000000000000000000017
:101DCC000000000000000000000000000000000007
:101DDC0000000000000000000000000000000000F7
:101DEC0000000000000000000000000000000000E7
:101DFC0000000000000000000000000000000000D7
:101E0C0000000000000000000000000000000000C6
:101E1C0000000000000000000000000000000000B6
:101E2C0000000000000000000000000000000000A6
:101E3C000000000000000000000000000000000096
:101E4C00F00808080808F00000000000000000007E
:101E5C000000000000000000000000000000000076
:101E6C000000000000000000000000000000000066
:101E7C000000000000000000000000000000000056
:101E8C000000000000000000000000000000000046
:101E9C0000000000818282FE0202010000000000AE
:101EAC000000000000000000000000000000000026
:101EBC000000000000000000000000000000000016
:101ECC000000000000000000000000000000000006
:101EDC0000000000000000000000000000000000F6
:101EEC0000000000000000008040203F20408000E7
:101EFC0000000000000000000000000000000000D6
:101F0C0000000000000000000000000000000000C5
:101F1C0000000000000000000000000000000000B5
:101F2C0000000000000000000000000000000000A5
:101F3C000000000000000000000000000000000095
:101F4C000000000000000000000000000000000085
:101F5C000000000000000000000000000000000075
:101F6C000000000000000000000000000000000065
:101F7C000000000000000000000000000000000055
:101F8C000000000000000000000000000000000045
:101F9C000000000000000000000000000000000035
:101FAC000000000000000000000000000000000025
:101FBC000000000000000000000000000000000015
:101FCC000000000000000000000000000000000005
:101FDC0000000000000000000000000000000000F5
:101FEC0000000000000000000000000000000000E5
:101FFC0000000000000000000000000000000000D5
:10200C0000000000000000000000000000000000C4
:10201C0000000000000000000000000000000000B4
:10202C0000000000000000000000000000000000A4
:10203C000000000000000000000000000000000094
:10204C000000000000000000000000000000000084
:10205C000000000000000000000000000000000074
:10206C00000000000000008040201088444428102C
:10207C002040408080800000000000000000000034
:10208C000000000000000000000000000000000044
:10209C000000000000000000000000000000000034
:1020AC000000000000000000000000000000000024
:1020BC00000000000000000000081609001F21406D
:1020CC00808086A0A0A0A086808043221C000000F7
:1020DC0000000000000000000000000000000000F4
:1020EC0000000000000000000000000000000000E4
:1020FC0000000000000000000000000000000000D4
:10210C0000000000000000000000000000000000C3
:10211C0000000000000000000000000000000000B3
:10212C0000000000000000000000000000000000A3
:10213C000000000000000000000000000000000093
:10214C000000000000000000000000000000000083
:10215C000000000000000000000000000000000073
:10216C000000000000000000000000000000000063
:10217C000000000000000000000000000000000053
:10218C000000000000000000000000000000000043
:10219C000000000000000000000000000000000033
:1021AC000000000000000000000000000000000023
:1021BC000000000000000000000000000000000013
:1021CC000000000000000000000000000000000003
:1021DC0000000000000000000000000000000000F3
:1021EC0000000000000000000000000000000000E3
:1021FC0000000000000000000000000000000000D3
:10220C0000000000000000000000000000000000C2
:10221C0000000000000000000000000000000000B2
:10222C0000000000000000000000000000000000A2
:10223C000000000000000000000000000000000092
:10224C000000000000000000000000000000000082
:10225C000000000000000000000000000000000072
:10226C000000000000000000000000000000000062
:10227C000000000000000000000000000000000052
:10228C000000000000000000000000000000000042
:10229C000000000000000000000000000000000032
:1022AC0080808040402010284444881020408000CA
:1022BC000000000000000000000000000000000012
:1022CC000000000000000000000000000000000002
:1022DC0000000000000000000000000000000000F2
:1022EC0000000000000000000000000000000000E2
:1022FC00001C2243808086A0A0A0A0868080402164
:0C230C001F00091608010000000300007B
:00000001FF
