:100000000C9446000C9465000C9465000C946500FB
:100010000C9465000C9465000C9465000C946500CC
:100020000C9465000C9465000C9465000C946500BC
:100030000C9465000C94B5000C9465000C9465005C
:100040000C9465000C9465000C9465000C9465009C
:100050000C9465000C9465000C9465000C9465008C
:100060000C9465000C9465000C9465000C9465007C
:100070000C9465000C9465000C9465000C9465006C
:100080000C9465000C9465000C94650011241FBE4F
:10009000CFEFD0E4DEBFCDBF1AE0A0E0B1E0E8E5ED
:1000A000FAE000E00BBF02C007900D92AA3EB10734
:1000B000D9F72CE0AAEEBAE001C01D92A83FB20722
:1000C000E1F70E94EE040C942A050C940000CF93F3
:1000D000DF93CDB7DEB781E890E02BE0FC01208311
:1000E00088E890E02DE730E0FC01318320838FE643
:1000F00090E022E0FC01208384E890E0FC01118282
:1001000010828091000190910101A0910201B091B3
:1001100003018093EB0A9093EC0AA093ED0AB0934D
:10012000EE0A8FE590E02FE530E0F90120812068AC
:10013000FC0120830000DF91CF910895CF93DF93DE
:10014000CDB7DEB781E890E0FC0110820000DF91BE
:10015000CF910895CF93DF93CDB7DEB781E0809341
:10016000EA0A0000DF91CF9108951F920F9200904C
:100170005F000F92112400905B000F922F933F932A
:100180004F935F936F937F938F939F93AF93BF939F
:10019000EF93FF93CF93DF93CDB7DEB78091EB0A58
:1001A0009091EC0AA091ED0AB091EE0A0197A10995
:1001B000B1098093EB0A9093EC0AA093ED0AB093F7
:1001C000EE0A8091EB0A9091EC0AA091ED0AB091B1
:1001D000EE0A892B8A2B8B2B91F40E94AA00809126
:1001E000000190910101A0910201B091030180935F
:1001F000EB0A9093EC0AA093ED0AB093EE0A00008C
:10020000DF91CF91FF91EF91BF91AF919F918F912E
:100210007F916F915F914F913F912F910F9000923D
:100220005B000F9000925F000F901F901895CF9386
:10023000DF9300D000D0CDB7DEB769837A838B839C
:100240009C8389819A81AB81BC81809300019093CA
:100250000101A0930201B0930301809100019091EC
:100260000101A0910201B09103018093EB0A9093E8
:10027000EC0AA093ED0AB093EE0A00000F900F90E5
:100280000F900F90DF91CF910895CF93DF931F923E
:10029000CDB7DEB789838EE490E02981FC0120830D
:1002A000000000008DE490E0FC0180818823D4F7F9
:1002B0008EE490E0FC0180810F90DF91CF91089552
:1002C000CF93DF93CDB7DEB78CE490E0FC011082D2
:1002D0008CE490E02CE430E0F90120812065FC0101
:1002E00020830000DF91CF910895CF93DF93CDB7A6
:1002F000DEB78CE490E0FC0110828CE490E02CE40A
:1003000030E0F90120812064FC0120830000DF91AE
:10031000CF910895CF93DF9300D0CDB7DEB71A8287
:10032000198208C080E00E94450189819A81019666
:100330009A83898389819A81883F914098F385E2E5
:1003400090E023E230E0F90120812B7FFC01208343
:1003500080E40E94450180E80E94450185E290E02A
:1003600023E230E0F90120812460FC0120830000B9
:100370000F900F90DF91CF910895CF93DF9300D02E
:10038000CDB7DEB71A82198208C08FEF0E944501EF
:1003900089819A8101969A83898389819A81883F8C
:1003A000914098F300000F900F90DF91CF91089546
:1003B000CF93DF9300D000D0CDB7DEB79C838B8383
:1003C0001A8219820FC02B813C8189819A81820F08
:1003D000931FFC0180810E94450189819A810196C9
:1003E0009A83898389819A81883F914060F385E26D
:1003F00090E023E230E0F90120812B7FFC01208393
:1004000080E40E94450180E80E94450185E290E079
:1004100023E230E0F90120812460FC012083000008
:100420000F900F900F900F90DF91CF910895CF9381
:10043000DF93CDB7DEB785E290E023E230E0F9014B
:100440002081207FFC01208385E290E023E230E0E0
:10045000F90120812260FC01208381E20E94450194
:100460008FEF0E94450180E20E9445018CE00E94CE
:10047000450185E290E023E230E0F901208124602B
:10048000FC0120830E948A010000DF91CF91089532
:10049000CF93DF93CDB7DEB78AE790E02AE730E06D
:1004A000F90120812468FC0120830000DF91CF91B5
:1004B0000895CF93DF93CDB7DEB70E9448028CE753
:1004C00090E021E0FC0120838AE790E02AE730E019
:1004D000F90120812064FC01208300008AE790E07C
:1004E000FC018081882F90E080749927892BB1F7D7
:1004F00088E790E0FC01808191819093F70C8093D4
:10050000F60C8CE790E0FC0110828AE790E02AE785
:1005100030E0F90120812064FC01208300008AE79B
:1005200090E0FC018081882F90E080749927892BCE
:10053000B1F788E790E0FC01808191819093F50C00
:100540008093F40C0000DF91CF910895CF93DF9357
:100550001F92CDB7DEB78CE790E021E0FC0120834D
:100560008AE790E02AE730E0F90120812064FC016D
:10057000208300008AE790E0FC018081882F90E0D2
:1005800080749927892BB1F788E790E0FC0180817E
:1005900091819093F30C8093F20C8CE790E0FC0136
:1005A00010828AE790E02AE730E0F9012081206498
:1005B000FC01208300008AE790E0FC018081882F05
:1005C00090E080749927892BB1F788E790E0FC01CF
:1005D000808191819093F80A8093F70A8091F60CBC
:1005E0009091F70C9C012E5F3F4F8091F20C9091FF
:1005F000F30C2817390760F18091F60C9091F70CF5
:100600009C01225031098091F20C9091F30C8217D9
:100610009307F0F08091F40C9091F50C9C012E5F03
:100620003F4F8091F70A9091F80A2817390780F018
:100630008091F40C9091F50C9C012250310980912D
:10064000F70A9091F80A8217930710F0198231C1C6
:100650008091F60C9091F70C9C012E5F3F4F80919A
:10066000F20C9091F30C28173907F8F48091F40CF0
:100670009091F50C9C012E5F3F4F8091F70A90916D
:10068000F80A2817390788F08091F40C9091F50C3E
:100690009C01225031098091F70A9091F80A821743
:1006A000930718F081E0898304C18091F60C909142
:1006B000F70C9C012E5F3F4F8091F20C9091F30C50
:1006C0002817390788F48091F40C9091F50C9C015F
:1006D000225031098091F70A9091F80A8217930706
:1006E00018F482E08983E5C08091F60C9091F70CB4
:1006F0009C012E5F3F4F8091F20C9091F30C2817D4
:100700003907F8F08091F60C9091F70C9C0122507B
:1007100031098091F20C9091F30C8217930788F0C5
:100720008091F40C9091F50C9C012250310980913C
:10073000F70A9091F80A8217930718F483E08983E7
:10074000B8C08091F60C9091F70C9C0122503109B1
:100750008091F20C9091F30C8217930788F48091AA
:10076000F40C9091F50C9C01225031098091F70A0C
:100770009091F80A8217930718F484E0898399C04E
:100780008091F60C9091F70C9C01225031098091D8
:10079000F20C9091F30C82179307F8F48091F40C0B
:1007A0009091F50C9C012E5F3F4F8091F70A90913C
:1007B000F80A2817390788F08091F40C9091F50C0D
:1007C0009C01225031098091F70A9091F80A821712
:1007D000930718F085E089836CC08091F60C9091A6
:1007E000F70C9C01225031098091F20C9091F30C8E
:1007F0008217930788F48091F40C9091F50C9C017A
:100800002E5F3F4F8091F70A9091F80A2817390719
:1008100018F486E089834DC08091F60C9091F70C16
:100820009C012E5F3F4F8091F20C9091F30C2817A2
:100830003907F8F08091F60C9091F70C9C0122504A
:1008400031098091F20C9091F30C8217930788F094
:100850008091F40C9091F50C9C012E5F3F4F80919C
:10086000F70A9091F80A2817390718F487E0898366
:1008700020C08091F60C9091F70C9C012E5F3F4FA9
:100880008091F20C9091F30C2817390788F480912D
:10089000F40C9091F50C9C012E5F3F4F8091F70A6C
:1008A0009091F80A2817390718F488E0898301C065
:1008B000198280E290E0FC018081882F90E08470B2
:1008C0009927892B19F489818061898389810F9007
:1008D000DF91CF910895CF93DF9300D01F92CDB7D2
:1008E000DEB789837B836A8389818A3031F48A8188
:1008F0009B81BC018DE00E946B0480EC90E0FC01C8
:100900008081882F90E080729927892BB1F386EC43
:1009100090E02981FC01208380E090E00F900F900F
:100920000F90DF91CF9108950F931F93CF93DF9393
:1009300000D000D0CDB7DEB781E090E09A83898304
:1009400012C089819A81019729813A812C5F3E4F9B
:10095000F90120818C5F9E4FFC01208389819A815F
:1009600001969A83898389819A81883F914048F3CF
:100970001092FB021C821B8218C08B819C818C5FB1
:100980009E4FFC0120818B819C818650994FFC01F8
:100990008081282B8B819C818650954FFC01208380
:1009A0008B819C8101969C838B838B819C81883F6A
:1009B000914018F38AEF9AE00E94D80108E210E013
:1009C0000E94A602F801808300000F900F900F9004
:1009D0000F90DF91CF911F910F910895CF93DF93E7
:1009E000CDB7DEB781E290E0FC01108282E290E0B8
:1009F0002FEFFC01208384E290E02FEBFC012083A9
:100A00008AE290E02FEFFC0120838BE290E0FC0172
:100A1000108287E290E02FEFFC01208388E290E0D3
:100A2000FC0110826BE070E080E090E00E94170112
:100A30000E9467000E9460010E9417020E945902F2
:100A40000E94940400008091EA0A8823E1F3109246
:080A5000EA0AF6CFF894FFCF8B
:100A5800010000000000000000000000000000008D
:100A6800000000000000000000000000000000007E
:100A7800000000000000000000000000000000006E
:100A8800000000000000000000000000000000005E
:100A9800000000000000000000000000000000004E
:100AA800000000000000000000000000000000003E
:100AB800000000000000000000000000000000002E
:100AC800000000000000000000000000000000001E
:100AD800000000000000000000000000000000000E
:100AE80000000000000000000000000000000000FE
:100AF80000000000000000000000000000000000EE
:100B080000000000000000000000000000000000DD
:100B180000000000000000000000000000000000CD
:100B280000000000000000000000000000000000BD
:100B380000000000000000000000000000000000AD
:100B4800000000000000000000000000000000009D
:100B5800000000000000000000000000000000008D
:100B6800000000000000000000000000000000007D
:100B7800000000000000000000000000000000006D
:100B8800000000000000000000000000000000005D
:100B9800000000000000000000000000000000004D
:100BA800000000000000000000000000000000003D
:100BB800000000000000000000000000000000002D
:100BC8000000002070F8AC20202000000000000089
:100BD800000000000000000000000000000000000D
:100BE80000000000000000000000000000000000FD
:100BF80000000000000000000000000000000000ED
:100C080000000000000000000000000000000000DC
:100C180000000000000000000000010000000000CB
:100C280000000000000000000000000000000000BC
:100C380000000000000000000000000000000000AC
:100C4800000000000000000000000000000000029A
:100C5800000000006B04000000000000000000001D
:100C6800000000000000000000000000000000007C
:100C7800000000000000000000000000000000006C
:100C8800007C82828282827C0000000000000000DA
:100C9800000000000000000000000000000000004C
:100CA800000000000000000000000000000000003C
:100CB800000000000000000000000000000000002C
:100CC800000000000000000000000000000000001C
:100CD8000000000000202020FF202020000000004D
:100CE80000000000000000000000000000000000FC
:100CF80000000000000000000000000000000000EC
:100D080000000000000000000000000000000000DB
:100D180000000000000000000000000000000000CB
:100D28000000000000000000002010080F0810203C
:100D380000000000000000000000000000000000AB
:100D4800000000000000000000000000000000009B
:100D5800000000000000000000000000000000008B
:100D6800000000000000000000000000000000007B
:100F78000000000000F00808080808F00000000061
:100F88000000000000000000000000000000000059
:100F98000000000000000000000000000000000049
:100FA8000000000000000000000000000000000039
:100FB8000000000000000000000000000000000029
:100FC800000000000000000000010202FE82828191
:100FD8000000000000000000000000000000000009
:100FE80000000000000000000000000000000000F9
:100FF80000000000000000000000000000000000E9
:1010080000000000000000000000000000000000D8
:1010180000000000000000000000000000804020E8
:101028003F20408000000000000000000000000099
:1010380000000000000000000000000000000000A8
:101048000000000000000000000000000000000098
:101058000000000000000000000000000000000088
:101068000000000000000000000000000000000078
:101078000000000000000000000000000000000068
:101088000000000000000000000000000000000058
:101098000000000000000000000000000000000048
:1010A8000000000000000000000000000000000038
:1010B8000000000000000000000000000000000028
:1010C8000000000000000000000000000000000018
:1010D8000000000000000000000000000000000008
:1010E80000000000000000000000000000000000F8
:1010F80000000000000000000000000000000000E8
:1011080000000000000000000000000000000000D7
:1011180000000000000000000000000000000000C7
:1011280000000000000000000000000000000000B7
:1011380000000000000000000000000000000000A7
:101148000000000000000000000000000000000097
:101158000000000000000000000000000000000087
:1011680000000000000000000000000000F0080877
:10117800080808F00000000000000000000000005F
:101188000000000000000000000000000000000057
:101198000000000000000000000000000000000047
:1011A8000000000000000000000000000000000037
:1011B8000000000000000000000000000000000027
:1011C80000818282FE02020100000000000000008F
:1011D8000000000000000000000000000000000007
:1011E80000000000000000000000000000000000F7
:1011F80000000000000000000000000000000000E7
:1012080000000000000000000000000000000000D6
:1012180000000000008040203F20408000000000C7
:1012280000000000000000000000000000000000B6
:1012380000000000000000000000000000000000A6
:101248000000000000000000000000000000000096
:101258000000000000000000000000000000000086
:101268000000000000000000000000000000000076
:101278000000000000000000000000000000000066
:101288000000000000000000000000000000000056
:101298000000000000000000000000000000000046
:1012A8000000000000000000000000000000000036
:1012B8000000000000000000000000000000000026
:1012C8000000000000000000000000000000000016
:1012D8000000000000000000000000000000000006
:1012E80000000000000000000000000000000000F6
:1012F80000000000000000000000000000000000E6
:1013080000000000000000000000000000000000D5
:1013180000000000000000000000000000000000C5
:1013280000000000000000000000000000000000B5
:1013380000000000000000000000000000000000A5
:101348000000000000000000000000000000000095
:101358000000000000000000000000000000000085
:101368000000000000F00808080808F0000000006D
:101378000000000000000000000000000000000065
:101388000000000000000000000000000000000055
:101398000000000000000000000000000000000045
:1013A8000000000000000000000000000000000035
:1013B800000000000000000000818282FE8282811D
:1013C8000000000000000000000000000000000015
:1013D8000000000000000000000000000000000005
:1013E80000000000000000000000000000000000F5
:1013F80000000000000000000000000000000000E5
:1014080000000000000000000000000000804020F4
:101418003F204080000000000000000000000000A5
:1014280000000000000000000000000000000000B4
:0A14380000000000000000000000AA
:00000001FF
